:020000040800F2
:1000000000500020810800080D08000809080008B9
:100010000908000809080008090800080000000095
:100020000000000000000000000000000D080008B3
:100030000D080008000000000D0800080D08000869
:100040000908000809080008090800082108000834
:10005000090800080908000809080008090800083C
:10006000090800080908000809080008090800082C
:10007000090800080908000809080008090800081C
:10008000090800080908000809080008090800080C
:1000900009080008090800080908000809080008FC
:1000A00009080008090800080908000809080008EC
:1000B00009080008090800080908000809080008DC
:1000C00009080008090800080908000809080008CC
:1000D00009080008090800080908000809080008BC
:1000E0000908000851080008090800080908000864
:1000F000090800080908000809080008090800089C
:10010000090800080908000809080008090800088B
:10011000090800080908000809080008090800087B
:10012000090800080908000809080008090800086B
:10013000090800080908000809080008090800085B
:10014000090800080908000809080008090800084B
:10015000691905220100010069010008080800086A
:1001600001740008220569192DE9F04F01260021CC
:10017000B04AB14B9568106825FA06F49C60546843
:100180001E61AE4EB0F1006F8BB0C3E90004C2E94E
:100190000511D960C3E90511DE61C0F02D81284445
:1001A000B04200F2228104F17841B1F5803FC0F005
:1001B0002A8104F16041B1F5A04F80F00082A0498E
:1001C0002C448C4200F21582D768002F40F0FC814D
:1001D0009C499D4D9D4C0D600C60D3F808C0BCF14E
:1001E000000F00F0E5804FF0000B1C68DA46089421
:1001F000D968CDF810B0CDE901BBE34609918E4630
:10020000D9699348069193490968039116699249FF
:10021000D3E90559D3F8048000960597009EAEB93E
:10022000D7689FB18D4F4FEAEE7687FB0EC7C6EBBE
:10023000671C642707FB1CECBCF1000F039F08BF81
:1002400077460397049F08BF01270497069FA7429C
:1002500040F212824C4580F0DF80AC42C0F0DC807E
:10026000019F0797009E002E40F0E1801E62076804
:10027000966107F035071F620E88B6F5007F06D934
:10028000774E36681F6A06F035063E431E624FF011
:10029000000C10E09669771CFF2E976100F25B81DD
:1002A000C3F820C0066806F035061E620E88B6F553
:1002B000007F00F263811E6AF607EBD40E88B6F564
:1002C000007F07D9DDE90867F61B664F7644BE421A
:1002D00000F2C881644F3E6846F001063E60002788
:1002E000B8F8006026801F620668976106F0350640
:1002F0001E620E88B6F5007F06D9594E36681F6A11
:1003000006F035063E431E624FF0000C10E0966981
:10031000771CFF2E976100F26781C3F820C0066842
:1003200006F035061E620E88B6F5007F00F2668183
:100330001E6AF707EBD40D88B5F5007F00F28481C3
:10034000494E356825F00105356015690095009E18
:10035000A51C002E40F0AE8135F802CCB8F8007034
:10036000BC4540F09D8101240294009C0594012726
:10037000BBF1010B08F102080EF1020E2C460197A9
:100380007FF44CAF0299059FD346002940F09D8130
:100390000021C3E9021E0499C3E900585D6111B14F
:1003A0002C4903980860BBF1000F01D0C3F81890E6
:1003B0002D4854690168002C41F08001016018DB70
:1003C0001969002940F02E814FF0FF331169536104
:1003D00079B9D3686BB1BFF35F8F244A244B1A609D
:1003E000BFF34F8F234A5A60FEE76FF00203C2E962
:1003F00005300BB0BDE8F08F6FF00103C2E90530A6
:100400000BB0BDE8F08F2C44B4427FF6DDAE6FF048
:100410000303C2E90534ECE724F47F7A009E2AF056
:10042000030A55460AF5806936B34FF0010AA51C48
:100430009DE700BF000000201C0000200000010814
:10044000005000200420024023016745AB89EFCD16
:100450000C20024074160020E0F7FF1F1F85EB51AF
:100460004C200240FFFF0708102002400000000857
:1004700008ED00E00400FA051E620768966107F0C7
:1004800035071F620E88B6F5007F06D99E4E366886
:100490001F6A06F035063E431E624FF0000C0EE068
:1004A0009669771CFF2E976178D8C3F820C006683C
:1004B00006F035061E620E88B6F5007F66D81E6A05
:1004C000F607EDD40E88B6F5007F03D98F4EB245FE
:1004D00000F2CE808E4EDFF858C2376847F0020730
:1004E0003760CCF800A0376847F040073760002736
:1004F0001F620668976106F035061E620E88B6F523
:10050000007F06D9804E36681F6A06F035063E43E6
:100510001E624FF0000C0EE09669771CFF2E97616B
:100520007CD8C3F820C0066806F035061E620E8827
:10053000B6F5007F6AD81E6AF707EDD40E88B6F5C7
:10054000007F71D9714EB2456ED9724F3E6826F068
:1005500002063E606DE0DC466FF00901D346516152
:10056000019A002A40F0BE80079A002A00F0C2805B
:10057000019A5D61002A00F0BD80B9E0624E3668E4
:100580001F6A06F035063E431E6294E65E4E3668EC
:100590001F6A06F035063E431E6290E7DC466FF0A8
:1005A0000B015161019A002A40F09180C3F814A018
:1005B000049A002A40F09280C3F8189019E76FF06F
:1005C0000503C2E9053414E772B60020524C534DBE
:1005D0002060286057695249524C5348002F0C60E4
:1005E0000860FFF606AFF8E5DC466FF00A01D34677
:1005F000B5E76FF00403C2E90534FAE6424E366807
:100600001F6A06F035063E431E6291E63E4E36688E
:100610001F6A06F035063E431E628CE7DC466FF02B
:100620000C01BEE7DB68D1E6394F3E6826F00206D2
:100630003E6016694FF0010A00960026CDF81CA016
:10064000CDF808A005960DE6DDE90856AD1B2F4E46
:100650007544B5427FF674AE2E4E356825F001051F
:10066000356072E62B4F3E6846F001063E6036E686
:10067000284EDFF8C0C030E70299DC46059FD3461C
:10068000B1B90199D9B9049911B128490398086001
:10069000BBF1000F01D0C3F818900021196187E663
:1006A000009E0199DC465661D34641B95D61EAE797
:1006B0005761E6E7012402940024059457E6C3E954
:1006C00000485D61C3E902CEDDE7576160E6C3E93A
:1006D0000048C3F814A0C3E902CE69E7134A03999E
:1006E000116069E7079AC3E90048002A7FF440AF28
:1006F000C3E902CE049A12B10C4A03991160BBF10E
:10070000000F3FF476AE57E74C200240FFFF07088A
:10071000102002405020024010E000E0081002408B
:100720000420024023016745AB89EFCD74160020F9
:1007300014200240542002402DE9F04300284BD001
:10074000002949D0002A47D0002B45D0274CDFF89C
:10075000B090274D04EA0907C5F3090547EA0508E3
:10076000D8F800E0234EB6452AD1234ED8F814C05D
:10077000B44525D1D8F8106004F5806406EA09066E
:1007800006F17846DFF87C803444444529D807EBED
:10079000060845EA08042568754516D1656965456A
:1007A00013D14FF0006C0025A46808F17848444448
:1007B0000460C1F800C017601E602846BDE8F083E1
:1007C0000E4B6FF001059F61F7E70C4A6FF00305D0
:1007D000C2F818801E60F0E7084B4FF0FF359861B3
:1007E000EBE7064B6FF002059E61E6E70174000837
:1007F000500100086919052222056919000000202E
:1008000000FCFFFFFFFF0008FEE700BF704700BFCE
:10081000024B1868C0F30800704700BF04ED00E009
:1008200010B5002001F03AFD00B910BD002001F024
:100830001BFD054A05491368096801331360002947
:10084000F3D0BDE810400847B0080020A8080020F9
:1008500010B54FF4003001F021FC012001F004FD3F
:10086000054A0649136809680133136011B1BDE8F0
:100870001040084710BD00BFA4080020AC080020AD
:1008800038B53C4A3C4CA2420FD2D34315462344D0
:100890003A4923F0030304330846194450F8044B43
:1008A000884245F8044BF9D11A44354B9A420DD28F
:1008B0000333111D5B1A23F0030304330020134498
:1008C00000E00431994210600A46FAD12D4A2E4DBB
:1008D00013682E4C43F40073136000F0C9F900F064
:1008E000F5F82B681BB92A4B22689A420CD029488C
:1008F00003F0EAFB286803F02FFC274803F0E4FB31
:10090000206803F029FCFEE7244C25498C420BD2D9
:10091000E3430B4423F00303043325461C4455F8FA
:10092000043B9847A542FAD11E4C1F498C420BD27A
:10093000E3430B4423F00303043325461C4455F8DA
:10094000043B9847A542FAD103F076FE174C06F017
:1009500057FD17498C420BD2E3430B4423F00303AA
:10096000043325461C4455F8043B9847AC42FAD161
:1009700038BD00BF0000002080050020306C00085A
:10098000040D002014ED00E09C0B0020400000202E
:1009900021436587E45E00080C5F0008306C0008A6
:1009A000306C0008306C0008306C0008306C0008B7
:1009B000306C00082DE9F041184E336833B3984786
:1009C000174DDFF86C8028602B68C8F800302B6862
:1009D000002B02DD134803F077FB2B680027002B68
:1009E0000DDD0A242F60336898472B68013C1843BB
:1009F000A4B22860002CF6D12B68002BF1DCD8F8CB
:100A00000030002B02DD084803F05EFB074B1B683B
:100A100003B19847BDE8F04101F074BC9005002097
:100A2000800500201C5F0008205F0008840500206E
:100A30008C050020074B1B6803B1184710B503F065
:100A4000A3FCC72800D910BD0348BDE8104003F03F
:100A50003BBB00BF88050020245F000870B504463A
:100A6000164803F031FB1648FF26A0FB043080092E
:100A700003F04CFB03F088FC124D044400E020BF5F
:100A800003F082FC844210D901F040FC0028F6D02B
:100A900001F03CFC0028F2D02E7001F0A7FCFF28EA
:100AA000287007D001F048FDE9E70748BDE870402D
:100AB00003F00ABB01F00AFCE1E700BF805F000819
:100AC000D34D6210A40C0020885F000808B5084BC5
:100AD0001A7802B108BD01221A7003F04FFB01F031
:100AE000F7FB04490448BDE8084003F0A5BB00BF7C
:100AF00098050020350A0008B5090008024B1B784C
:100B000003B120BF704700BF9805002010B1034B10
:100B10001B7803B97047FFF7A1BF00BF98050020FD
:100B2000054BA3FB0030800902D0044B1B7803B9AE
:100B30007047FFF793BF00BFD34D621098050020A8
:100B400008B5034803F0C6FA03F034FA00F024F9BC
:100B5000545F000862B6704772B6704708B5024825
:100B600003F0B8FA002008BD685F000808B5034824
:100B700003F0B0FA024B186808BD00BF285F0008F8
:100B8000147AFF1F08B5044672B6054803F09CFAB4
:100B9000204603F0ADFA03F00DFA20BFFDE700BFD9
:100BA000405F00080048704700500020402008F0D7
:100BB00047BE00BF8163704741637047C1637047A0
:100BC000C06B704768467047406B7047C0E90012C1
:100BD0008360704738B5144B14481D68144C03F0FB
:100BE00073FA284603F0B8FA124803F06DFA20466B
:100BF00003F0B2FA104803F067FA601B800A03F0B2
:100C000007FA0E4803F060FA6B46C3F1005000F596
:100C1000A040800A03F0FCF9094803F05BFABDE844
:100C2000384003F0C7B900BF440000208C5F0008C3
:100C3000004800209C5F0008A45F0008B05F000827
:100C4000C45F0008704700BF00207047014B186068
:100C5000704700BF84050020014B1860704700BF3B
:100C600088050020014B1860704700BF90050020E8
:100C700003F0AABA002815D0006041608260C3600A
:100C8000046145618661C761444604624C46446222
:100C9000544684625C46C462644604636E4646639E
:100CA00074468463002906D0C46B043C043925686B
:100CB0000D60B442F9D1946BA646566BB546002B35
:100CC00006D0D46B043C043B1D682560B442F9D1C6
:100CD000146BA446D46AA346946AA246546AA146F9
:100CE000146AA046D769966955691469D368516832
:100CF000106892687047006041608260C360046160
:100D000045618661C761444604624C46446254466C
:100D100084625C46C462644604636E4646637446FD
:100D20008463C46B043C043925680D60B442F9D176
:100D3000C7698669456904697047006041608260DF
:100D4000C360046145618661C761444604624C46E4
:100D50004462544684625C46C462644604636C46E2
:100D600044637446846304697047846BA646446B8D
:100D7000A546046BA446C46AA346846AA246446A94
:100D8000A146046AA046C769866945690469C368C3
:100D90008268006841687047014B024A1A60FEE7AA
:100DA0000CED00E00400FA050161704709040161DF
:100DB000704700BF024A136843F4807313607047A2
:100DC00000700040024A136823F480731360704778
:100DD000007000400122430903F1804303F504330E
:100DE000196800F01F0002FA00F00843186070470D
:100DF0000122430903F1804303F50433196800F02D
:100E00001F0002FA00F0014319601A6822EA00008C
:100E100018607047192928BF1921F0B40D4688B011
:100E2000164F03AE04460FCF0FC63A68144B32700C
:100E30001A68083B00925A68013D01921B68002D18
:100E4000029316DD002208AB03EB620313F8203C8B
:100E500008A800EB131010F8140C03F00F0308AEF1
:100E60003344A118A05413F8143C023295424B703D
:100E7000E9DC0023635508B0F0BC7047C85F000888
:100E8000F0F7FF1F2DE9F04743F6F87C06680024D1
:100E90000F27D0F804E004E048EA0A060134102CD9
:100EA00029D043FA04F515F0010FA5B2F6D04FEAA8
:100EB000840808F1020907FA08FA02FA09F901FAA6
:100EC00008F8072C26EA0A0A49EA0808E4D9654422
:100ED000AD00ADB205F1020801FA05F902FA08F811
:100EE00007FA05F5013448EA09082EEA0505102C31
:100EF00048EA050ED5D10660C0F804E0BDE8F087E9
:100F0000024B1868C0F34060704700BF00100240F9
:100F1000024A136843F08073136070470010024068
:100F2000024A136843F400431360704720100240E4
:100F300006280AD8DFE800F00404042F041D0A0084
:100F40001E4A136823F44073136070471C4B1A4603
:100F5000196841F00101196013689907FCD5174B16
:100F60001A6822F440721A601A6842F400721A6019
:100F70007047124B1A46196841F001011960136855
:100F80009807FCD5136823F440731360136843F487
:100F90008073136070470B4B1A46196841F4803117
:100FA000196013689B03FCD5044B1A6822F4407245
:100FB0001A601A6842F440721A60704720100240AA
:100FC000241002400010024038B52B4B1A46196815
:100FD00041F00101196013689907FCD5274826499B
:100FE000036823F003030360136843F48033136042
:100FF0000B689B03FCD5214C0220236823F00303DC
:1010000043F001032360236823F0F0032360236887
:1010100043F440432360236823F4E06343F4806394
:101020002360236823F46053236000F05DFD236890
:1010300023F4701343F4E0132360236843F48033F4
:101040002360236823F400332360FFF761FFFFF779
:1010500057FF0028FBD00949094A0B68094D23F0C6
:10106000030343F002030B60074C0848084B2A6057
:101070002260036038BD00BF00100240041002402F
:1010800000A24A0448000020500000204C0000202C
:101090000051250210B540F29730FFF79BFE002368
:1010A0004FF41C41044A0548054C1360036023605B
:1010B0000448116010BD00BF405C0040505C00401F
:1010C000445C0040A80B00200132521093B25AB188
:1010D000013B9BB2013301EB430331F8022B043097
:1010E000994240F8042CF8D1704700BF70B402F068
:1010F000010652080DD00B46013A92B2013200EBC4
:10110000420533F8044B20F8024BA842F9D101EB19
:1011100082010EB10B78037070BC70472DE9F04767
:10112000804600688A4617461E46BDF828908047CC
:1011300000258660089E0B4B0B490C4AC660099E31
:10114000C0F800A0C0F8DC8047600661A0F81490E9
:10115000C0E91B138266C0E93255C0E93455BDE8C9
:10116000F08700BFA513000809140008A91400089F
:101170008162704770B5002504460368C582D0F8C7
:10118000DC2082B0DB790095966829462A46B04774
:10119000D4F8DC3029465B6820469847E3691BB1E8
:1011A00002B0BDE87040184702B070BDD0F8DC3026
:1011B0005B6A184710B4D0F8DC40A468A44610BCA1
:1011C000604700BF10B4D0F8DC40E469A44610BC0E
:1011D000604700BF10B4D0F8DC40246AA44610BCBD
:1011E000604700BFD0F8DC301B691847D0F8DC300E
:1011F0009B691847D0F8DC305B69184710B5026866
:10120000838FD17904469942826B10D30021FFF776
:10121000D9FF002394F84420A3879A420CBF0322ED
:10122000022284F8443084F82C20A36310BD0B46BE
:101230000021FFF7C7FF0222236884F82C20D97908
:10124000A26BA38F0A445B1AA263A38710BD00BFE1
:101250002DE9F04F05460F4683B000F1380800F144
:101260003C0900F1480400F1680A00F1400B2668CF
:1012700096B161793B7822790B409A4204F10804D7
:1012800008D1CDF800B04B46424639462846B04713
:1012900001280AD95445EAD14B46424639462846E8
:1012A00003B0BDE8F04F00F0EDBB03B0BDE8F08F38
:1012B00070B50369044683638B79CA790D4643EAA6
:1012C00002238387FFF7C4FFA8B1EB8823B3A28F63
:1012D00021689342C97917D932B192FBF1F301FB2E
:1012E0001322B2FA82F2520984F844202046BDE863
:1012F0007040FFF783BF0646014601222046FFF7F4
:1013000071FF84F82C6070BD0022204684F84420D0
:10131000BDE87040FFF772BF1A4619462046FFF736
:1013200051FF042384F82C3070BD00BF70B50268F3
:10133000838FC48ED279E41A9442A8BF1446826B7C
:10134000A6B21A44002133460546FFF743FF864202
:1013500004D1AB8FA0B21E44AE8770BD28460122D7
:101360000021FFF73FFF00234FF0FF3085F82C30BE
:1013700070BD00BF70B405460026AC6C08353CB1AA
:101380000136042EF9D14FF0FF34204670BC70476F
:1013900000EBC60080F84C1080F84D208364204696
:1013A00070BC704738B50025044629460122056403
:1013B000FFF720FFE38E04F13001C3B194F9302030
:1013C000002A14DBA28A9A4216D321692268A163FB
:1013D000A587D27920469A4234BF052306230022EE
:1013E00084F82C301146BDE83840FFF703BF204693
:1013F000BDE83840FFF75CBF012229462046FFF7D1
:10140000F1FE84F82C5038BD38B590F82C300446E5
:10141000062B2BD0072B18D0052B07D0012200213B
:10142000FFF7E0FE002384F82C3038BDFFF77EFF85
:101430000028FADB2268E38EA18FD2795B1A9342EF
:10144000F3DC062384F82C3038BD00231A461946F5
:10145000FFF7C0FE0022236C84F82C201BB104F19E
:101460003001204698470023236438BDFFF75EFF14
:101470000028DADB04F130012046FFF7E9FE0546DB
:1014800048B1002320461A461946FFF79BFE042365
:1014900084F82C3038BD014601222046FFF7A2FE19
:1014A00084F82C5038BD00BF90F82C3010B5032BB9
:1014B000044627D0042B0DD0022B07D00122002197
:1014C000FFF790FE002384F82C3010BDBDE81040DB
:1014D000FFF794BE036C13B100F13001984794F804
:1014E0003030002BEED194F83130052BEAD1618EEB
:1014F000D4F8DC30C9B25B6820469847002384F8F2
:101500002C3010BD0723BDE81040002280F82C309D
:101510001146FFF76FBE00BFF8B54E8896B103685D
:101520005D7C6DB144686379B34244D022460023A8
:1015300003E0977C0D32BE4222D00133AB42F8D19A
:101540000020F8BDC6750446D0F8DC300E46DB68D6
:101550009847D4F8C8308BB1002204F1CC05A264BE
:101560002265A265226604F1D80713B1718820466E
:101570009847AF4202D055F8043BF6E70120F8BD8A
:101580000133DBB2C375002BDDD003EB430203EB69
:1015900082030D3B1C442579002DD4D000231F4627
:1015A000D4F809201E01B25801330AB11770257909
:1015B0009D42F5D8C7E70123C375ECE71988126887
:1015C000012984BF01211980C37D13B91370012043
:1015D0007047416803EB430003EB80030B4413F8AF
:1015E000083C01201370704730B4C47D406804EBA0
:1015F000440504EB85040D3C044420798D88854224
:101600000DD2012018808B88D4F809101B015B587B
:1016100003B11B7812680120137030BC70470020A2
:1016200030BC704719880120022984BF022119802B
:10163000002311680B7012685370704738B51D880D
:101640001446022D84BF02221A808988C9B2FFF78E
:10165000CDFD011C18BF0121002223680120197053
:1016600023685A7038BD00BF08B589880122C9B205
:10167000FFF7B8FD012008BD08B589880022C9B26E
:10168000FFF7B0FD012008BD0B788BB910B54C8871
:101690007F2C0BD8D0F8DC30847593F830204AB119
:1016A00049885B68C9B29847012010BD184610BD33
:1016B00000207047012010BD70B5C27D446802EB68
:1016C000420502EB85020D3A224415798C88A54229
:1016D00015D9D2F80920240115192E794D88AE426A
:1016E0000DD912596AB115701C46D0F8D83013B113
:1016F0004A888988984700230120238070BD0020F4
:1017000070BD002DF0D0104670BD00BF2DE9F04F28
:101710004D8889B02C0A022C069348D0032C12D095
:10172000012C03D0002009B0BDE8F08F01681D88AE
:1017300011601E460B782046AB4228BF2B463380F3
:1017400009B0BDE8F08F15F0FF05066900F01581BE
:101750008468002CE6D0C368013DAB42E2DD40F274
:10176000094389889942DDD154F8254000922046EA
:1017700002F00AFB431C5B00DBB2069A337011884F
:1017800015468B4228BF0B46032B1380009A40F26C
:10179000FF800021601E10F8014F06EB41035C80C2
:1017A0002B8801315B08013B8B42F4DCF0E00169DE
:1017B000EDB2466805EB45031160069A05EB83051B
:1017C000735D14887219A34228BF234690469B4636
:1017D0000F4607910846039211461A4602F0BCFADA
:1017E00098F80430A4EB0B04A4B216F805A007EB9C
:1017F0000B09002B00F0B78000230593D8F80920CF
:10180000059B1F01D3199D680497BDB12E78294609
:10181000A64228BF26464846324602F09DFA039A61
:101820002B78D2F809209A44A41B06EB0B01A4B232
:101830001FFA81FBB1441FFA8AFAD31919790029DA
:1018400000F0888000220292DF68029B484603EB8A
:101850004306C6EBC606BD5DBA19A54228BF25469C
:101860009046114600922A4602F076FABB5DD8F8FF
:101870000D10641BAB449A44A4B21FFA8BFBA9441D
:101880001FFA8AFAA1B1D8F811504846A542A8BF5C
:101890002546AEB2324602F05FFAD8F81130A41BEA
:1018A000B3449A44A4B21FFA8BFBB1441FFA8AFADC
:1018B000009B1B79002B40D0002553460193009BD1
:1018C000C5EB0518D3F809A048461AF808600AEBDA
:1018D0000807A64228BF26463946324602F03CFA9F
:1018E0001AF80820019BD7F80710A41BB34413442F
:1018F000A4B21FFA8BFBB1449BB2B9B10193D7F8E4
:101900000B604846A642A8BF26461FFA86F8464600
:10191000424602F021FAD7F80B20019BA41BC344D6
:101920001344A4B21FFA8BFBC1449BB2009A013549
:101930001179AAB29142C1D89A46039B0299D3F871
:101940000920049B0131D3181D7988B28542029188
:101950003FF67AAF059B03990133087999B2884223
:1019600005933FF64DAF0120079BA3F802A0069B0D
:10197000A3F800B009B0BDE8F08F09210423B170CD
:101980000699F37033700B88042B28BF04230B8057
:10199000032301207370166009B0BDE8F08F00BF0B
:1019A00019880120022984BF0221198000231168AF
:1019B0000B70126853707047002210B400F1C80415
:1019C00054F8043B63B18B4202F1010205D0042AB2
:1019D000F6D14FF0FF3010BC7047002010BC7047AC
:1019E000323240F822101846F8E700BF10B44C78A5
:1019F000092C1AD8DFE804F0111919191905091969
:101A0000150D0B4CA44610BC60470A4CA44610BCF4
:101A10006047094CA44610BC6047084CA44610BC63
:101A20006047074CA44610BC6047002010BC7047BC
:101A3000891600080D17000819150008251600085A
:101A4000BD15000810B44C78012C08D00CD3032C21
:101A500007D14C882CB9084CA44610BC60474C8870
:101A600034B1002010BC7047044CA44610BC604741
:101A7000034CA44610BC6047691600083D160008D8
:101A800079160008F0B40C7814F0600F13D104F04C
:101A90001F04012C05D011D3022C0CD1F0BCFFF790
:101AA000D1BF9C464B780D460A2B0646174612D0EE
:101AB0000B2B0ED02BB1F0BC00207047F0BCFFF711
:101AC00095BF064C63463A4629463046A446F0BCCC
:101AD0006047034CF6E7034CF4E700BFA119000888
:101AE000B9160008E9150008034A136823F0070334
:101AF00018431060704700BF00200240024B41F0C5
:101B000080011960704700BF4C5C00403E2A10B451
:101B100011D80132C2F34F02500080B20A4B0B4C75
:101B20001B6892029BB203EBC10149000C4492B2C4
:101B3000226010BC7047013AC2F34412501C4001AD
:101B400042F02002EAE700BF505C00400C60004019
:101B5000F0B54FF0C06701F07F06B40004F1804497
:101B600004F5B844256883B025F4E0450DF1080C70
:101B700025F07F050CEB42023543DFF8E8C0ADB23B
:101B8000CDE900C72560256832F8082C25F4EC451E
:101B900025F07005154349B2ADB2002925604FEA22
:101BA000C60EB0F818C0089F00DB5EBB2C4A126856
:101BB00092B27244520002F1804202F5C042C2F871
:101BC00000C027B106EB460200EB8202976648F69A
:101BD000CF7522689C442A40226025681FFA8CFC3D
:101BE00025F4E04525F04005ADB285F0200545F42B
:101BF000004545F0800500292560A0F818C001DAED
:101C000003B0F0BD1A46164B0546196803F56E730E
:101C100089B28E444FEA4E0E7344C3F800C0314679
:101C2000FFF774FF27B106EB460605EB8606F7665D
:101C30004CF68F7123682A8B0B4023602368104475
:101C400023F4804323F070039BB283F4405343F4A6
:101C5000004343F080032360288303B0F0BD00BF3E
:101C6000505C00400002000448F2800170B40C4A4D
:101C70000C4E0D4D0D4C136833400B439BB213605B
:101C800013682B400B439BB242F8043BA242F2D1B3
:101C900070BC0368DB7920335B000383704700BFAF
:101CA000045C0040BF8FFFFF8FBFFFFF205C004040
:101CB00010B449BB002A0CBF202410242B48036811
:101CC00023F4E04323F0400363401BB243F400439A
:101CD00043F080039BB20360890001F1804101F56C
:101CE000B84122B34FF480530A6822F4804222F0B4
:101CF000700292B253401BB243F4004343F080039E
:101D00009BB20B6010BC70470B06E5D501F07F015C
:101D1000890001F1804101F5B8410B6823F4E043EB
:101D200023F040039BB282B183F01003E3E74CF64B
:101D30008F700A684FF4405302400A600A6822F428
:101D4000804222F0700292B2D4E748F6CF7283F05C
:101D500020031BB243F4004343F080039BB20B60AB
:101D60000B6810BC13400B60704700BF005C004064
:101D70000B060DD4890001F1804101F5B8410868D6
:101D800000F44050A0F58050B0FA80F04009704750
:101D900001F07F01890001F1804101F5B841086837
:101DA00000F03000A0F11000B0FA80F04009704758
:101DB0000B0614D40E4B880000F1804000F5B840AB
:101DC0005A54036823F4804323F070039BB23AB95A
:101DD00083F4405343F4004343F0800303607047AF
:101DE00083F4005343F4004343F0800303607047DF
:101DF000A00B00202DE9F04101F07F06B40004F1B2
:101E0000804404F5B844256805F03005302D2ED007
:101E10001F46DFF864801146D8F80020F60092B221
:101E20003244520002F1804202F5C04210881A4644
:101E3000400000F1804000F5C040FFF745F9D8F8B8
:101E400000100C4B89B20E44760033441F602168A9
:101E5000384621F4E04121F0400189B281F030019F
:101E600041F4004141F080012160BDE8F081002093
:101E7000BDE8F08104600040505C0040F8B58C0083
:101E800004F1804404F5B844266806F44056B6F5DB
:101E9000405F43D0234FCE003D682348ADB2354468
:101EA0006D0028440068C0F3090098422CDB1D46F1
:101EB0001C4B10461A6803F56E7392B216447600F6
:101EC00033440F4619882A46490001F1804101F543
:101ED000C041FFF70BF940F60F732168134A0B401E
:101EE00043F080032360D35D63B9236823F4804308
:101EF00023F070039BB283F4405343F4004343F058
:101F0000800323602846F8BD3B6807489BB23344F2
:101F10005B0018440568C5F30905C9E70025284694
:101F2000F8BD00BF505C00400C600040A00B0020DA
:101F3000364AF8B513680446590549D41A049DB2C7
:101F400022D4280506D54FF2FF71304A236A11606A
:101F500003B19847E90406D54EF6FF712B4A636A30
:101F6000116003B19847AA05A36A06D54FF6FF5141
:101F7000264A116033B39847A36A1BB3244A1368F7
:101F800043F400731360F8BD03F00F07BE0006F1C1
:101F9000804613F0100306F5B84622D140F60F72C2
:101FA00031680A4042F40042326007EB47021344B2
:101FB0001A3354F823300BB3204639469847280586
:101FC000C8D5C0E7124A136823F400731360F8BD44
:101FD00040234FF6FF3111600383BDE8F840FFF75F
:101FE000C9B833681B0501D40123DEE7082300F1DB
:101FF00030023946FFF742FF0223D6E740F60F735F
:102000003268134043F0800333609AE7445C004039
:10201000405C0040012243099B0003F1604300F053
:102020001F0003F5614302FA00F01860704700BF1B
:10203000012916D00BD3022908D10F490F4A0B688A
:1020400003430B60136818431060704770470A49D8
:102050000A4A0B6803430B60136823EA0000106010
:1020600070470549054A0B6823EA00030B601368B3
:1020700018431060704700BF080401400C04014081
:102080000449054A0B6803430B601368184310604A
:10209000704700BF0004014004040140014B186078
:1020A000704700BF14040140044A13689B06FCD526
:1020B000136843F010031360704700BF042800400A
:1020C000044B1A46196821F01001196013689B0629
:1020D000FCD570470428004030B40C4A13689906B8
:1020E000FCD513680A490B4C43F0100385B2000C71
:1020F00013602560086013681C3923F01003136017
:102100000B689B06FCD530BC704700BF042800401C
:10211000202800402428004030B40C4A1368990657
:10212000FCD513680A490B4C43F0100385B2C0F389
:1021300003401360256008601368043923F010031E
:1021400013600B689B06FCD530BC70470428004028
:10215000082800400C280040034A044B10681B6804
:1021600043EA0040704700BF182800401C28004088
:1021700030B40C4A13689906FCD513680A490B4C15
:1021800043F01003050C80B21360256008601368EB
:10219000183923F0100313600B689B06FCD530BC84
:1021A000704700BF042800401C2800401828004049
:1021B000144A13689906FCD51368012843F01003EC
:1021C000136018D011D3022809D00E4B1A46196893
:1021D00021F01001196013689B06FCD570470A4A6C
:1021E000136843F004031360EFE7074A136843F0F2
:1021F00001031360E9E7044A136843F00203136024
:10220000E3E700BF0428004000280040144A136898
:102210009906FCD51368012843F01003136018D009
:1022200011D3022809D00E4B1A46196821F010016B
:10223000196013689B06FCD570470A4A136823F09F
:1022400004031360EFE7074A136823F001031360E8
:10225000E9E7044A136823F002031360E3E700BFD1
:10226000042800400028004001280FD008D302288D
:1022700005D1094A136823F00403136070477047BF
:10228000054A136823F0010313607047024A13687C
:1022900023F00203136070470428004001280ED089
:1022A00008D3022804D1084B186800F004007047D6
:1022B00000207047044B186800F001007047024B83
:1022C000186800F00200704704280040704700BF03
:1022D000FF23002110B50848084A094C03702370F9
:1022E000117000F05BF800F055F900F015F8BDE84A
:1022F000104000F059B800BFA60C0020A50C00202B
:10230000A40C00200121002000F090B8014B1878A7
:10231000704700BFA50C00200023064A0649C2E909
:1023200000330B7013729381C2E9043313769383E5
:10233000704700BF9C05002058060020F8B5164DD8
:1023400005EB0015EC792A7A631C93FBF2F402FB8F
:102350001434AE79E4B2B442AF8809D11AE02A7AD3
:10236000013494FBF2F302FB1344E4B2A64211D011
:102370002B6807FB04335A68511E002AEFD05960BE
:102380000029ECD1687B00F00BF9FE21687B00F09E
:102390000DF9E4E7F8BD00BF9C0500200022014BC9
:1023A0001A707047590600200021FF2010B40D4B11
:1023B0000D4C0A46217003F18C011875D880DA7330
:1023C0001A745A749A745A735A7198731A711A60FB
:1023D00018739A60DA7458759A611C338B42ECD189
:1023E00010BC7047BC0500205A060020F0B40D4B0D
:1023F0001E78A6B1FF27002238460B4B1C795D7B67
:10240000052C02F1010103F11C0303D1BD423CBFC5
:102410002F46D0B28AB2B242F0D1F0BC7047FF2052
:10242000F0BC70475A060020BC0500202DE9F0479B
:10243000DFF88C9099F8003013B300240E468246E2
:102440004FF0050827461D4DE300191B05EB8101E0
:102450000A79022A1AD0042A18D0012A12D0BAF115
:10246000000F07D11B1B05EB8303D87BFF2801D08E
:10247000FFF764FF013499F80030E4B2A342E3D1DE
:10248000BDE8F0878A6801328A60E8E7191B05EB2E
:102490008101087D5045E2D18868B0420BD8042AFA
:1024A000A3EB040205EB82028F6004BFCF744F756B
:1024B00082F80480D3E7801B8860D0E7BC05002049
:1024C0005A0600201A4B1B788BB30122F0B5C408C2
:1024D00000F0070002FA00F05A1E164BD2B240B2CA
:1024E000C2EBC20203F11C01C6430025052701EB24
:1024F000820102E01C33994218D01A79033A012A6A
:10250000F8D803EB040C9CF91520024206EA020EEF
:10251000F0D08CF815E0DA7C12B95A7D002AE9D1A6
:10252000DD745D751F711C339942E6D1F0BD7047B3
:102530005A060020BC05002010B5094A094C127843
:1025400023789A4204D84FF41C7000F00FF82378D7
:10255000054AC3EBC30352F82330BDE810401847C7
:102560005A060020A40C0020BC050020044608B533
:10257000064801F0A9FD204601F0C8FD01F01AFD52
:10258000034B1C801A8892B21A80FEE71060000884
:10259000560600200022014B1A7070475B0600208F
:1025A000014B1870FFF78EBF54000020024B03EB65
:1025B00040004170704700BF4806002081F0004194
:1025C00002E000BF83F0004330B54FEA41044FEA18
:1025D000430594EA050F08BF90EA020F1FBF54EAB3
:1025E000000C55EA020C7FEA645C7FEA655C00F04F
:1025F000E2804FEA5454D4EB5555B8BF6D420CDD20
:102600002C4480EA020281EA030382EA000083EAA2
:10261000010180EA020281EA0303362D88BF30BD42
:1026200011F0004F4FEA01314FF4801C4CEA113198
:1026300002D0404261EB410113F0004F4FEA0333F7
:102640004CEA133302D0524263EB430394EA050F82
:1026500000F0A780A4F10104D5F1200E0DDB02FAF1
:102660000EFC22FA05F2801841F1000103FA0EF285
:10267000801843FA05F359410EE0A5F120050EF14B
:10268000200E012A03FA0EFC28BF4CF0020C43FA7C
:1026900005F3C01851EBE37101F0004507D54FF089
:1026A000000EDCF1000C7EEB00006EEB0101B1F5D9
:1026B000801F1BD3B1F5001F0CD349085FEA30001F
:1026C0004FEA3C0C04F101044FEA445212F5800F2A
:1026D00080F09A80BCF1004F08BF5FEA500C50F1C7
:1026E000000041EB045141EA050130BD5FEA4C0CAA
:1026F000404141EB010111F4801FA4F10104E9D133
:1027000091F0000F04BF01460020B1FA81F308BF29
:102710002033A3F10B03B3F120020CDA0C3208DDF5
:1027200002F1140CC2F10C0201FA0CF021FA02F1D0
:102730000CE002F11402D8BFC2F1200C01FA02F140
:1027400020FA0CFCDCBF41EA0C019040E41AA2BF65
:1027500001EB0451294330BD6FEA04041F3C1CDA2D
:102760000C340EDC04F11404C4F1200220FA04F04D
:1027700001FA02F340EA030021FA04F345EA0301F7
:1027800030BDC4F10C04C4F1200220FA02F001FAB9
:1027900004F340EA0300294630BD21FA04F029463B
:1027A00030BD94F0000F83F4801306BF81F48011D4
:1027B0000134013D4EE77FEA645C18BF7FEA655C47
:1027C00029D094EA050F08BF90EA020F05D054EA19
:1027D000000C04BF1946104630BD91EA030F1EBF1E
:1027E0000021002030BD5FEA545C05D14000494122
:1027F00028BF41F0004130BD14F580043CBF01F515
:10280000801130BD01F0004545F0FE4141F47001FA
:102810004FF0000030BD7FEA645C1ABF19461046D5
:102820007FEA655C1CBF0B46024650EA013406BFD6
:1028300052EA033591EA030F41F4002130BD00BF95
:1028400090F0000F04BF0021704730B54FF4806452
:1028500004F132044FF000054FF0000150E700BFD3
:1028600090F0000F04BF0021704730B54FF4806432
:1028700004F1320410F0004548BF40424FF000011F
:102880003EE700BF42004FEAE2014FEA31014FEA62
:1028900002701FBF12F07F4393F07F4F81F06051B1
:1028A000704732F07F4208BF704793F07F4F04BFFC
:1028B00041F40021704730B54FF4607401F00045D9
:1028C00021F000411CE700BF50EA010208BF704739
:1028D00030B54FF000050AE050EA010208BF70472A
:1028E00030B511F0004502D5404261EB41014FF493
:1028F000806404F132045FEA915C3FF4D8AE4FF09B
:1029000003025FEADC0C18BF03325FEADC0C18BF7D
:10291000033202EBDC02C2F1200300FA03FC20FACE
:1029200002F001FA03FE40EA0E0021FA02F114441B
:10293000BDE600BF4FEA4102B2F1E04324BFB3F568
:10294000001CDCF1FE5C0DD901F0004C4FEAC00226
:102950004CEA5070B2F1004F40EB830008BF20F00A
:102960000100704711F0804F21D113F13872BCBFC4
:1029700001F00040704741F480114FEA5252C2F119
:102980001802C2F1200C10FA0CF320FA02F018BF62
:1029900040F001004FEAC1234FEAD32303FA0CFCB5
:1029A00040EA0C0023FA02F34FEA4303CCE77FEA44
:1029B000625307D150EA01331EBF4FF0FE4040F48E
:1029C0004000704701F0004040F0FE4040F400003D
:1029D000704700BF2DE9F84382EAE274A4EBE27489
:1029E0001546E20706460F4653BF4FF000088046E3
:1029F0008946DFF84C90640813D03B463246304697
:102A0000394600F003FBE30706460F46F3D5404680
:102A1000494632463B4600F0F9FA6408804689464A
:102A2000EBD1002D07DA42464B460020044900F066
:102A3000D5FA8046894640464946BDE8F88300BF3E
:102A40000000F03F05B508461A460ABD00B500F083
:102A500004F8FFF7F7FF10BCA646C20D4002400A7B
:102A60000124E4052043FF2AD2B200D94042013AB2
:102A7000FE2A01D27E3A70470028204600D5404207
:102A80007E3A920080327047C40FE40704D5002DCF
:102A900000D00130404203D4013A001812D0FBD5D7
:102AA000813201D1803005D2803003D2002D0FD089
:102AB0004000013AFE2A06DA013207DD400AD2055B
:102AC000104320437047FF20C005FAE700207047FD
:102AD0000506EDD1400A8002EBE700B5FFF7B6FF2F
:102AE00080018901D41A07DA1A460546644220415A
:102AF000202C07D3002000BD0D462141202C01D3FE
:102B0000002100BD64422034A54000BD0122D2074F
:102B1000514030B5FFF7E1FF401803D1C82A01DB6F
:102B200001204007FFF7B0FF30BD83B20C146343B0
:102B300004148DB26C431B1984B26C432504240C1D
:102B40001B19001409144843C002D9060D4359113A
:102B5000401870470122D307184200D0181A1942B2
:102B600000D0591A401A02D000DC52421046704779
:102B700030B5FFF76BFF1A440432FFF7D6FFD1E7F9
:102B800030B5FFF763FF0125002801D540424942D7
:102B90000024002901D54942E443C82B0EDA5242F1
:102BA000C82A0BDAD2184023091A00D201445B412B
:102BB0000944F9D318016040B4E700240846FF2215
:102BC000F9E730B5FFF742FF002801D540424942FE
:102BD000C82BF2DA5242C82AEFDAD21823A4030D26
:102BE000E45CA300434324025B1563431B13E41A14
:102BF0002346444324145C431B02E4131B1BDC01E7
:102C00004343DB13200C43431B14E01A0730000935
:102C1000B3E730B5FFF721FF0100CED4501000D349
:102C20004900043214A44B0DE45CC80960436043BE
:102C30000013604340132402241A20464043000C32
:102C4000CB095843001360434015241A20464043E3
:102C5000030B4B430005000D0D0B68431844C013D4
:102C6000604364030014201A5210CFD34008490077
:102C7000CCE7C046F1D8C3B2A4988D84F1DAC9BBC1
:102C8000B0A69E97918B8682002110B5FFF7E5FED6
:102C90000A44173A07DB072A17DDC117C943012089
:102CA000C007484010BD5242202A00DB20221041BC
:102CB00010BD002110B5FFF7D0FE0A440100F0D48A
:102CC000173AF0DBC143082AEBDC904010BD00212D
:102CD00030B51D22521A002524E7002130B5002806
:102CE000F7DA1E22521AC50740081BE7474680B490
:102CF0000025A0460DE0002902DC05E0002A03DAE9
:102D0000891B7F42121901E08919121B444667434F
:102D1000C01B1C680433640800D2013506462E41EE
:102D20000F462F4164087047C0B5FFF7DFFFFFF77C
:102D3000E5FFFCD386138F13D21056435743444606
:102D4000674336133F13C01B891980BCB846C0BD0A
:102D5000C0B5FFF7CBFFFFF7CEFFFCD3002902DCA5
:102D60008919121B01E0891B121976106410F5D124
:102D7000EBE730B51821FFF788FF484C2409001B0A
:102D8000FDDA0019FDD4820065003E480021A24210
:102D900002DB521B4042FAE7D20040A30124FFF7B6
:102DA000C3FF0931002200230025FFF76DFEFFF766
:102DB00049FE90E700B5FFF7DCFF084600BD30B5DF
:102DC000FFF7D7FFFEE630B51821FFF75EFF0114CD
:102DD0002D4A5143C9140131491002B442012B4814
:102DE0004143521A2A48002139A3CC43FFF79CFFE4
:102DF000084404BC6FE730B5FFF72FFE010015D47F
:102E00002449FFF792FE511001D30131401002B462
:102E10000146204B9B00C018C91A00222CA3D443A2
:102E2000FFF796FF114604BC130054E7FF22FBE7AF
:102E300030B5FFF7E0FF462B0ADC5B42462B06DC91
:102E40001548584308310911081A052243E7C043C1
:102E5000FF2240E730B5FFF740FE0022002802DAEB
:102E6000404249420D4A0DA30124FFF771FF10466D
:102E70000A4A841802D2841A00D4A01A0138002207
:102E800029E7C046B49D6E1315170000FF422E16A9
:102E9000CA159E2CB9C2930530E4620151ED8764D6
:102EA0000CCE583BF8755B1F4CDDEA0FEC56FD0766
:102EB000B8AAFF0354F5FF01ACFEFF00D4FF7F006A
:102EC000FCFF3F00FCFF1F00000010000200080094
:102ED000ECA94F46EDA94F46F45DB1201C891510B1
:102EE00044AC020845AC020864550004AC0A000278
:102EF000540100012C008000040040000400200068
:102F0000000010000000080003000800000000009E
:102F1000F8B52F4D024695F822400B46013485F84E
:102F2000224006460F4600F037F998B93946304638
:102F3000FFF700FD4FF07E510446FFF70BFE10B97E
:102F400000200021F8BD4FF07E512046FFF702FE21
:102F5000002802DD00201F49F8BD1F492046FFF769
:102F6000F9FD0028F6DB1C492046FFF7F3FD18B9F0
:102F700015A1D1E90001F8BD21462046FFF7F8FD73
:102F800001464FF07E50FFF7C1FDFFF742FE21469C
:102F900006464FF07E50FFF7BCFDFFF773FC04467A
:102FA0000D463046FFF76EFC22462B4600F00EFA27
:102FB000FFF7C0FC01464FF08040FFF7D9FDFFF757
:102FC00061FCF8BDAFF30080182D4454FB2109408B
:102FD0005C0600200000F87F000080BFF8B50A4DB5
:102FE00006466C78104601340F466C701946FFF7A0
:102FF000A1FC044639463046FFF79CFC2146FFF70A
:10300000E0FDFFF73FFCF8BD5C060020F8B50A4D77
:103010000646AC78104601340F46AC701946FFF7EF
:1030200089FC044639463046FFF784FC2146FFF709
:103030009FFDFFF727FCF8BD5C060020F8B50A4DA0
:103040000646EC78104601340F46EC701946FFF73F
:1030500071FC044639463046FFF76CFC2146FFF709
:1030600058FDFFF70FFCF8BD5C060020F8B50A4DCF
:1030700006462C79104601340F462C711946FFF78D
:1030800059FC044639463046FFF754FC2146FFF709
:103090003DFDFFF7F7FBF8BD5C060020F8B50B4DD2
:1030A00006466C79104601340F466C711946FFF7DD
:1030B00041FC044639463046FFF73CFC2146FFF709
:1030C00049FDB0FA80F04009F8BD00BF5C06002061
:1030D000F8B50A4D0646AC79104601340F46AC717E
:1030E0001946FFF727FC044639463046FFF722FC15
:1030F0002146FFF72FFDC00FF8BD00BF5C06002082
:10310000F8B50B4D0646EC79104601340F46EC71CC
:103110001946FFF70FFC044639463046FFF70AFC14
:103120002146FFF717FD0028CCBF00200120F8BD85
:103130005C060020F8B50A4D06462C7A104601348C
:103140000F462C721946FFF7F5FB04463946304608
:10315000FFF7F0FB2146FFF7FDFCC043C00FF8BDB1
:103160005C060020F8B50B4D06466C7A104601341B
:103170000F466C721946FFF7DDFB044639463046B0
:10318000FFF7D8FB2146FFF7E5FC0028D4BF00205D
:103190000120F8BD5C060020F8B50B4D0646AC7A60
:1031A000104601340F46AC721946FFF7C3FB0446C4
:1031B00039463046FFF7BEFB2146FFF7CBFC003017
:1031C00018BF0120F8BD00BF5C06002010B5094AF9
:1031D000D37B0133D373FFF7ADFB00210446FFF728
:1031E000B9FC00B910BD2046FFF74EFD0028B8BF5E
:1031F000013010BD5C06002010B50C4A137C013371
:103200001374FFF797FB00210446FFF7A3FC08B9EE
:10321000002010BD00212046FFF79CFC0028F7DBB2
:103220002046BDE81040FFF744BD00BF5C0600200B
:1032300008B5054A537D01335375FFF77BFBFFF754
:10324000E8FCFFF71FFB08BD5C06002008B5054A37
:10325000937D01339375FFF76DFBFFF7E9FDFFF7F2
:1032600011FB08BD5C06002008B5054AD37D01337B
:10327000D375FFF75FFBFFF7A6FDFFF703FB08BD64
:103280005C06002008B5074A137E01331376FFF76A
:1032900051FBFFF7CDFD0449FFF76AFCFFF7F2FA97
:1032A00008BD00BF5C0600203BAAB83F08B5074A2E
:1032B000537E01335376FFF73DFBFFF7B9FD044919
:1032C000FFF756FCFFF7DEFA08BD00BF5C060020E2
:1032D000D95BDE3EF8B5214C1F46A37E164601336E
:1032E000A376FFF727FB00210446FFF733FC0028F5
:1032F00010DB2046FFF79CFD394604463046FFF7B9
:1033000019FB01462046FFF733FCFFF75CFDFFF792
:10331000B9FAF8BD39463046FFF70CFB00210546E7
:10332000FFF718FC0028E4DA05F10040FFF7ACFCD9
:10333000002800F00100B8BF40420128D9D104F1B3
:103340000040FFF775FD2946FFF712FCFFF73BFD34
:1033500000F10040FFF796FAF8BD00BF5C060020C0
:1033600008B5054A137F01331377FFF7E3FAFFF738
:1033700000FDFFF787FA08BD5C06002010B50A4A79
:10338000537F01335377FFF7D5FA08490446FFF717
:10339000E1FB10B90020002110BD2046FFF70AFD17
:1033A000FFF770FA10BD00BF5C060020DB0FC93FBD
:1033B00008B5054A937F01339377FFF7BBFAFFF710
:1033C000FEFCFFF75FFA08BD5C060020F8B5134C61
:1033D0001F46E37F16460133E377FFF7ABFA002180
:1033E0000446FFF7B7FB58B130463946FFF7A2FA5B
:1033F000054629462046FFF72DFDFFF743FAF8BDA5
:1034000039463046FFF796FA00210546FFF7A2FB42
:103410000028EED100200021F8BD00BF5C0600208E
:103420002DE9F047244F024697F820600B460136FD
:1034300087F8206004460D46FFF7AEFE70BB2946B4
:103440002046FFF777FA00210746FFF783FB08B312
:1034500025F00046204631464FF0FF32174BFFF76C
:103460009BFE38B9204631464FF0FF32134BFFF731
:1034700047FE38B120462946BDE8F0470022104BF0
:10348000FFF7A4BF00213846FFF764FB00280BDDDF
:103490000C4C0D4D20462946BDE8F08700240B4D0D
:1034A00020462946BDE8F08738460021FFF752FB49
:1034B0000028DFDAECE700BF5C060020FFFFEF7FAB
:1034C0000000F03F182D4454FB21F93F0000F87F25
:1034D0002DE9F041204F024697F821600B46013656
:1034E00087F8216004460D46FFF756FE98B9294635
:1034F0002046FFF71FFA00210646FFF72BFB18B9FD
:1035000020462946BDE8F0814FF07E513046FFF756
:1035100021FB002805DD0024104D20462946BDE88A
:10352000F0810F493046FFF715FB0028F3DB3146E9
:103530003046FFF71DFB01464FF07E50FFF7E6FADD
:10354000FFF767FBFFF79EF902460B462046294628
:10355000BDE8F041FFF73ABF5C0600200000F87FAD
:10356000000080BF2DE9F843254F024697F82360FD
:103570000B46013687F8236004460D46FFF70CFE24
:10358000B8BB29462046FFF7D5F900210646FFF7CC
:10359000E1FA88B125F00047204639464FF0FF3266
:1035A000184BFFF7F9FD58B9204639464FF0FF3266
:1035B000144BFFF7A5FD18B920462946BDE8F8834E
:1035C0003046FFF700FC044606F10040FFF7FBFB26
:1035D00001462046FFF79AFA01464FF07C50FFF76C
:1035E000C7FAFFF74FF904460D4620462946BDE8C5
:1035F000F8830024044D20462946BDE8F88300BF27
:103600005C060020FFFFEF7F0000F87F2DE9F84304
:10361000234F024697F824600B46013687F8246052
:1036200005460C46FFF7B8FDB0BB21462846FFF71C
:1036300081F900210646FFF78DFAA8B124F0004772
:10364000284639464FF0FF32164BFFF7A5FD70B9FB
:10365000284639464FF0FF32124BFFF751FD30B983
:1036600028462146BDE8F8830F49BDE8F883304677
:10367000FFF7A9FB044606F10040FFF7A4FB014653
:103680002046FFF746FA01464FF07C50FFF770FAEC
:10369000FFF7F8F8BDE8F88300200449BDE8F88397
:1036A0005C060020FFFFEF7F0000F03F0000F87F86
:1036B0002DE9F843284F024697F825600B4601365E
:1036C00087F8256004460D46FFF766FD00283ED1C9
:1036D00029462046FFF72EF900210646FFF73AFA61
:1036E000A8B125F00045204629464FF0FF321B4B7C
:1036F000FFF752FD78B9204629464FF0FF32174BAD
:10370000FFF7FEFC38B9164D2946BDE8F883204680
:103710002946BDE8F88331464FF08040FFF728FA8C
:10372000FFF751FB4FF07E510546FFF7EFF94FF0E1
:103730007E5104462846FFF7ECF901462046FFF784
:1037400040FAFFF79FF80D462946BDE8F883054D7E
:1037500000202946BDE8F8835C060020FFFFEF7FCC
:103760000000F03F0000F87F2DE9F843244F0246A7
:1037700097F826600B46013687F8266004460D460A
:10378000FFF70AFDB0BB29462046FFF7D3F800211A
:103790000746FFF7DFF988B125F00046204631469D
:1037A0004FF0FF32174BFFF7F7FC58B92046314670
:1037B0004FF0FF32134BFFF7A3FC18B92046294600
:1037C000BDE8F88339463846FFF7D2F94FF07E510D
:1037D000FFF79FF9FFF71DFA01463846FFF799F901
:1037E000FFF726FBFFF74EF804460D462046294614
:1037F000BDE8F8830024044D20462946BDE8F8833F
:103800005C060020FFFFEF7F0000F87F2DE9F84302
:10381000264F024697F827600B46013687F8276047
:1038200005460C46FFF7B8FC30BB21462846FFF79B
:1038300081F84FF07E510646FFF78CF900281BDB1C
:103840004FF07E513046FFF785F960B324F0004712
:10385000284639464FF0FF32154BFFF79DFC78B9EB
:10386000284639464FF0FF32114BFFF749FC38B973
:1038700028462146BDE8F88300200E49BDE8F883BC
:1038800031463046FFF774F94FF07E51FFF73EF9AD
:10389000FFF7BFF901463046FFF73BF9FFF7C8FADB
:1038A000FEF7F0FFEAE70146BDE8F8835C0600207A
:1038B000FFFFEF7F0000F87FF8B52C4F024697F826
:1038C00028600B46013687F8286004460D46FFF74E
:1038D00063FCF0B929462046FFF72CF80021064684
:1038E000FFF738F910B920462946F8BD4FF07E5150
:1038F0003046FFF72FF920B900241D4D20462946F8
:10390000F8BD1C493046FFF725F938B900241A4D97
:10391000E9E70024194D20462946F8BD4FF07E51B5
:103920003046FFF717F90028F3DC12493046FFF75D
:1039300011F90028EDDB31464FF07E50FFF7E9F832
:10394000314604464FF07E50FFF7E0F8014620462E
:10395000FFF737F9FFF76CFA01464FF07C50FFF79D
:1039600007F9FEF78FFF04460D46BCE75C06002012
:103970000000F07F000080BF0000F0FF0000F87F33
:103980002DE9F8431E4F024697F829600B46013691
:1039900087F8296004460D46FFF7FEFB68BB25F05B
:1039A0000046204631464FF0FF32164BFFF7F4FB3E
:1039B00058B9204631464FF0FF32124BFFF7A0FBBB
:1039C00018B920462946BDE8F88329462046FEF767
:1039D000B1FF00210646FFF7BDF80028F1D03046C0
:1039E000FFF752F9031EB8BF581CFEF739FF044613
:1039F0000D4620462946BDE8F8830024024DE0E745
:103A00005C060020FFFFEF7F0000F87F2DE9F84300
:103A10001D4F024697F82A600B46013687F82A6048
:103A200004460D46FFF7B8FB50BB25F00046204684
:103A300031464FF0FF32154BFFF7AEFB58B9204629
:103A400031464FF0FF32114BFFF75AFB18B92046B1
:103A50002946BDE8F88329462046FEF76BFF002182
:103A60000646FFF777F80028F1D03046FFF70CF94B
:103A7000FEF7F6FE04460D4620462946BDE8F883CB
:103A80000024034DE3E700BF5C060020FFFFEF7F4B
:103A90000000F87F2DE9F8431D4F024697F82B6090
:103AA0000B46013687F82B6004460D46FFF774FB82
:103AB00058BB25F00046204631464FF0FF32154BEB
:103AC000FFF76AFB58B9204631464FF0FF32114BE1
:103AD000FFF716FB18B920462946BDE8F8832946AA
:103AE0002046FEF727FF00210646FFF733F800289F
:103AF000F1D03046FFF7C8F80130FEF7B1FE0446BA
:103B00000D4620462946BDE8F8830024024DE2E731
:103B10005C060020FFFFEF7F0000F87FDFF834C174
:103B20002DE9F0479CF82C60924601361F4602466C
:103B30000B468CF82C6005460C46FFF72DFB10BB9E
:103B4000524650463B463946FFF726FBD8B9214638
:103B50002846FEF7EFFE00218046FEF7FBFF0646F3
:103B600098B324F00046284631464FF0FF32374BD9
:103B7000FFF712FB58B9284631464FF0FF32334B5E
:103B8000FFF7BEFA18B900203149BDE8F087394681
:103B90005046FEF7CFFE0021FEF7DCFF0028F2D0F2
:103BA00027F00047504639464FF0FF32274BFFF7CA
:103BB000F3FAB8B9504639464FF0FF32234BFFF7BE
:103BC0009FFA78B928462146DFE739465046FEF786
:103BD000B1FE0021FEF7BEFF0028C2D030463146BC
:103BE000BDE8F08728463146FEF7A4FE3946044674
:103BF0005046FEF79FFE054601462046FEF7E1FFD0
:103C0000FEF740FEFFF7BCFEFEF794FE2946FEF7E6
:103C1000AFFF01462046FEF779FF00210446FEF77C
:103C200099FF00280BDB40460021FEF793FF002898
:103C3000B8BF04F100442046FEF724FEA5E7204665
:103C40002946FEF766FF0446EDE700BFFFFFEF7F62
:103C50000000F87F5C0600202DE9F0470D46844601
:103C600037482F4617F8014B265C16F0080634D16A
:103C70002D2C34D14FF0010E6C78AF1C002B5BD093
:103C8000102B09D1302C07D1387800F0DF005828EC
:103C90004DD110237C780237BEF1000F14BF4FF0D6
:103CA00000486FF000480026B8FBF3F9304603FBEC
:103CB000198AA4F13005092D17D82C46A34223DD1B
:103CC000751C07D081451CD301D1A24519DB012603
:103CD00000FB034017F8014BEBE73D46C1E72B2CF7
:103CE00004BFAF1C6C78B646C8E7A4F14105192D96
:103CF00001D8373CE2E7A4F16105192D04D8573CFF
:103D0000DCE74FF0FF36E5E7731C06D1222340467F
:103D1000CCF8003042B9BDE8F087BEF1000F00D00A
:103D20004042002AF7D006B1791E1160F3E7302433
:103D3000002BB1D10823AFE7302CA5D00A23ABE785
:103D40002B60000813460A46014602480068FFF748
:103D500083BF00BF680400200A44914200F1FF3392
:103D600000D1704710B511F8014B914203F8014F93
:103D7000F9D110BD10F8012B11F8013B012A28BF21
:103D80009A42F7D0D01A7047034613F8012B002A45
:103D9000FBD1181A0138704730B50024A24201D176
:103DA000002007E0035D01340D1915F8015CAB42FA
:103DB000F4D0581B30BD884210B501EB020307D880
:103DC000421E99420AD011F8014B02F8014FF8E760
:103DD0008342F5D98118D21AD34200D110BD13F80D
:103DE000014D01F8014DF7E703460244934200D12B
:103DF000704703F8011BF9E7F0B50C7864B103468E
:103E00001A7818465E1C0AB9104605E0944208D19B
:103E10000D4615F8012F02B9F0BD13F8017F974246
:103E2000F7D03346ECE770B50446013902B970BDEE
:103E3000234611F8015F561E03F8015B2DB91444A7
:103E4000A342F4D003F8015BFAE71C463246EDE7E3
:103E5000B1F5007F21D2F8B5104D0B462A880446F3
:103E60000A44B2F5007F0E4F0BD309213E460D4A9E
:103E7000298007CA03C6298832801944B1F5007F1A
:103E80000AD221461C4628881A463844FFF764FFA8
:103E90002B8823449BB22B80F8BD7047A0080020DC
:103EA0008C0600204061000810B50446FFF76CFF47
:103EB00001462046BDE81040FFF7CABF2DE9F04398
:103EC000224BDFF894801B7885B0B8F80050D3B14E
:103ED000ADB23C2DA94628BF4FF03C09B5B91C4CEA
:103EE0001C4F04F1100654F8043B13B14946384600
:103EF0009847B442F7D135B1B8F80030994511D39D
:103F00000023A8F8003005B0BDE8F0830222114B71
:103F1000CDF80C90CDE90123052301AA18461146DE
:103F2000ABBEDCE7B8F800200A48A2EB090200EBC0
:103F30000901FFF711FFB8F80030A3EB09091FFAD8
:103F400089F9A8F8009005B0BDE8F083A208002028
:103F5000900800208C060020A00800200122014BC0
:103F60001A707047A2080020F0B1114A30B413460D
:103F7000154602F1100453F8041B81420CD0A342F1
:103F8000F9D1002352F8041B49B10133042BF9D1B4
:103F900030BC4FF0FF307047002030BC704745F810
:103FA0002300084630BC70474FF0FF30704700BF19
:103FB00090080020064B1B7823B1064B1B889BB250
:103FC0001BB97047034A13807047FFF777BF00BFE4
:103FD000A2080020A008002070B564240A4D0B4EF2
:103FE00002E02B80013C0DD02B889BB253B133787B
:103FF000002BF6D02B889BB2002BF3D0FFF75EFF8F
:10400000013CF1D170BD00BFA0080020A208002033
:10401000F0B50A2100251D4A1D4F85B0B0FBF2F412
:1040200004F13003DBB2392B2AD8A7FB02C6302BB0
:1040300002FB14004FEAD60200D835B10A2D04DC89
:1040400004AC2C4404F80C3C01350139E6D1A5B987
:10405000302301258DF80430002304AA154405F807
:104060000C3C002301A88DF80E30FFF78DFE0146B1
:1040700001A8FFF7EDFE05B0F0BD0A2DF1DCEBE77E
:104080000448FFF711FF05B0F0BD00BF00CA9A3B1E
:10409000CDCCCCCC34610008031E0DD001DBFFF782
:1040A000B7BF10B51C4606480121FFF7D1FE60429C
:1040B000BDE81040FFF7ACBF01210248FFF7C8BEC2
:1040C000306100082C610008037803B97047FFF7DE
:1040D000EBBE00BF08B503780BB1FFF7E5FEBDE806
:1040E000084002210148FFF7B3BE00BF4C61000841
:1040F00008B5FFF7D1FFBDE8084002210148FFF7EE
:10410000A7BE00BF4C610008FFF7C6BFFFF780BF26
:1041100000B5030903F13002392AC8BF03F1570281
:1041200083B0C8BF52B28DF80420002200F00F0007
:1041300000F13003392BC4BF573043B201A88DF8CA
:1041400005308DF80620FFF71FFE014601A8FFF796
:104150007FFE03B05DF804FB10B50446000EFFF7C8
:10416000D7FFC4F30740FFF7D3FFC4F30720FFF7DF
:10417000CFFFE0B2BDE81040FFF7CABF08B5FCF7BB
:1041800023FF00F031F80E4B1B78A3B100F03CF890
:1041900000F04AF800F040F800F046F800F034F87B
:1041A00000F042F800F038F800F03EF80548FFF75C
:1041B00091FF00F029F8BDE80840FCF70BBD00BFF7
:1041C000B4080020506100080122024B1A70FFF76A
:1041D000C5BE00BFB40800204FF47A70FCF7D2BC13
:1041E00005F02EBB05F054BA10B54FF44170FCF742
:1041F000F1FDBDE810404FF40053002202210148B8
:10420000FCF740BE001001404FF400510148FCF79C
:10421000CDBD00BF001001404FF400510148FCF734
:10422000C3BD00BF00100140024B00BF013BFCD1E9
:10423000704700BF60E3160038B53B4B3B4D3C4A2E
:104240001C782860116004B138BD012539481D7003
:10425000FFF740FFFCF764FE2046FDF7D7FF284636
:10426000FDF7D4FF0220FDF7D1FF3348FFF732FFFF
:10427000FFF7A0FE4FF46770FCF7ACFD40F29B30F7
:10428000FCF7A8FDFCF796FD0520FCF751FE2B4D31
:104290002B4B1C602C60FCF743FEFDF705FF4FF62F
:1042A000FF73284A2848294904600C60146044615F
:1042B0004B61D360FDF704FF2A462B6823F0080307
:1042C0002B6013681B07FCD52020FDF725FF204835
:1042D000FFF700FFFFF76EFE0020FDF749FF4FF0EC
:1042E000FF30FDF7F9FE00214FF40030FDF7A0FE8E
:1042F0004FF40030FDF7C4FE0320FDF78BFE2920AC
:10430000FDF788FE72B60020FDF7AEFF0120FDF735
:10431000ABFF0220FDF7A8FF0020FDF749FF0120B9
:10432000FDF746FF62B638BDB5080020A80800209A
:10433000AC0800206C61000884610008042800407B
:104340000028004018280040082800400C280040A1
:104350009461000810B50A4B82B01B6804465BB13B
:10436000FDF7FAFE0190FCF725FD0198204402B00C
:10437000BDE81040FDF7B0BE0248FFF7A5FEEFE72D
:10438000AC08002064610008FDF7E6BE08B50548EA
:10439000FFF7A0FEFFF70EFE0122034B00201A706C
:1043A00008BD00BF20620008900B002008B5084B34
:1043B000186850B1FCF7FAFE00F082FB054B064A84
:1043C000186019681160186808BD4FF0FF3008BD0B
:1043D000E0080020D8080020CC0800202DE9F84F84
:1043E000764B83F3088800247549DFF83C824B1E26
:1043F000C8F8001001F24F1203F8014F9342FBD1AD
:10440000704F714ADFF82492DFF824A2DFF824B25B
:10441000D2E9003238460B604A604B465246594654
:104420003C60FCF789F9694D28606948FFF74CFE4C
:104430002B68002B40F08D806648FFF745FE3868FA
:10444000FFF78AFE6448FFF73FFEDBF80000FFF746
:1044500083FE6248FFF738FEDAF80000FFF77CFEC3
:104460005F48FFF731FED9F80000FFF775FEFFF750
:10447000B3FD5C48FFF728FE3B681868FFF76CFE49
:10448000FFF7AAFD5848FFF725FEFFF7A5FD2E68A8
:10449000002E40F08E803B68002B00F08A800122C5
:1044A000524CDBF800C0DAF80000D9F80010C4F86C
:1044B00000C06060A1606673A673E6736674A6743C
:1044C000E6742273227498476369002B2B606EDDBB
:1044D0004748FFF7F9FD2868FFF73EFE4548FFF71C
:1044E000F9FDFFF779FD4448FFF7EEFDD8F800002D
:1044F000FFF732FE3A48FFF7E7FD4FF4A870FFF7E9
:104500002BFE3948FFF7E6FDFFF766FDBFF35F8F2F
:104510003A4BD8F800201A60BFF34F8F3B682674DF
:104520006674A674E6749847636935482B60FFF794
:10453000CBFD2868FFF7E8FD3248FFF7CBFDA06907
:10454000FFF70AFE2848FFF7C5FDBDE8F84FFFF763
:1045500043BD2D48FFF7B8FD2868FFF7D5FD2B4870
:10456000FFF7B2FD2B68DA1C25D029481E4A13F14B
:10457000040F18BF1046FFF7A7FD1C4B9869FFF703
:10458000EBFD2B6804337FF47DAF2248FFF79CFDE1
:10459000214820F47F7020F00300FFF7DDFD1F4865
:1045A000FFF792FDD9F80000FFF7D6FD6AE71C4837
:1045B000BDE7BDE8F88F1B48DDE700BFBC47002022
:1045C000BC470020B808002000000008BC080020FC
:1045D000446200087C620008546200085C620008C3
:1045E000646200086C620008AC5F000800000020F4
:1045F0009C620008B4620008D062000808ED00E088
:10460000EC62000800630008786200084865000852
:10461000406200088462000801740008906200088B
:104620000863000834620008DC080020C00800208D
:10463000D4080020C80800202DE9F04F494C89B06B
:1046400023681BB1012009B0BDE8F08F00F0B6FD72
:1046500001282DD04448FFF73DFD00F0C3FD0023A5
:1046600008AD05F81C3D4148FFF734FD18212846E8
:1046700000F048FE3E48FFF72DFD284600F07CFA8A
:1046800000F09CFD022802D13A4B83F308883A4897
:10469000FFF720FD00F0BEF9206000F08FFD032839
:1046A00009D13648FCF7DEFA002009B0BDE8F08FEA
:1046B000FFF794FECEE73248FFF70CFDFFF77AFCD8
:1046C000FFF778FC2F4800F0DBFD4FF000094FF4B6
:1046D000FA78DFF8CCB02C4F2C4EDFF8C8A02C4D68
:1046E0002068FCF763FDDBF800300133B3F52F7F62
:1046F000CBF80030F4D33B68CBF80090A5FB032047
:10470000400908FB1030312803F101038CBF002061
:1047100001203B6000F05AFD4FF47A713268A5FB2E
:1047200002039B0901FB132301323260002BD7D116
:1047300000F0C6F90028D3D1FFF73CFC9AF800300E
:10474000002BCDD01348FFF7C5FCFFF745FC124BFB
:1047500000BF013BFCD11148FFF7BCFCFFF73CFC5C
:10476000FCF71AFBE0080020A4610008B46100080F
:10477000D4610008BC470020EC610008AD4300088C
:10478000F86100088D430008D00800206C04002068
:10479000D34D6210086200088096980018620008E5
:1047A000C4080020900B002008B500F069FD00202F
:1047B00008BD00BF70B5254B254D1A682968254BEB
:1047C0001A604B1C0ED0244B1A780AB100221A70C2
:1047D000224E4FF480623046FFF7DEFA18B94FF0F0
:1047E000FF332B6070BD1E48FFF76EFC2868FFF793
:1047F000B3FC1C48FFF768FC002304221A4C29680C
:1048000023726660A372E37223736373A373E3730B
:1048100023746374A374E37421606272FBF7A4FCD5
:104820006469002C03DD6410B4F5007FD7D00F4815
:10483000FFF74AFC2046FFF767FC0D48FFF74AFCEC
:10484000FFF7CAFB4FF0FF332B60CBE7E8080020EF
:1048500070040020E40800207C050020BC470020F4
:104860002463000848650008000000202863000851
:10487000AC5F0008B0F1006F2DE9F84F04460E461A
:1048800015463FD32C4B02449A423BD8B1F1006FFE
:1048900038D36A189A4208D9B1F1005F32D303F1D4
:1048A000C053A3F530439A422CD8002D28DDDFF801
:1048B0008C90DFF89C80DFF89CA0B5F5806F2F46C8
:1048C000A8BF4FF48067D8F8002004EA0A0B93458C
:1048D000A5EB070509D0FFF76DFF59464FF480623D
:1048E0001648C8F800B0FFF737FAC4F3090031469C
:1048F00048443A46FFF730FA002D3C443E44DCDCA5
:10490000BDE8F88F0E48FFF7DFFB2046FFF724FCD9
:104910000C48FFF7D9FB3046FFF71EFC0A48FFF7AB
:10492000D3FB2846FFF718FC0848FFF7D3FBBDE888
:10493000F84FFFF751BB00BFFFFF0008BC47002046
:10494000446300085C62000864620008AC5F000811
:104950007004002000FCFFFF024B1A780AB9012204
:104960001A707047920B0020094B1B686BB110B492
:10497000084C24782CB10A4610BC0146184600F0B9
:1049800031BD4FF0FF3010BC70474FF0FF30704723
:1049900088090020910B002008B5FFF7F5FC014BBA
:1049A000186008BD68090020044B1A7802B17047EE
:1049B000012203481A70FFF7D7BA00BF910B0020FD
:1049C00069490008F8B54FF6FF73994205460BD0C8
:1049D0000E460D4C04F1280754F8043B23B1314630
:1049E00028469847BC42F7D1002228461146074B7B
:1049F000FCF7C0FC002800DBF8BD0548FFF76AFBA8
:104A0000BDE8F840FFF7D6BAEC0800205D4D00087D
:104A1000C065000810B584B000F01CFC4FF4807134
:104A200009221B4B0291CDE900231A491A4B1B4A5C
:104A3000FCF774FB1A4C1B492060FCF799FB2068BB
:104A4000194900F01FFD2068184901F041F920685C
:104A5000174901F003FA2068164900F045FA20686A
:104A6000002100F0EFFA20681349FCF7A5FF0028A9
:104A700007DB20684FF6FF71FFF7A4FF206804B042
:104A800010BD0E48FFF726FBFFF794FAF1E700BFD1
:104A9000900A0020B86400087C04002070640008BC
:104AA0008809002099490008A949000859490008C7
:104AB0002064000874660008C54900089066000874
:104AC00010B5094C82B0206860B1FFF75DFC019021
:104AD0002368019A03F59C530833934296BF002044
:104AE0000120206002B010BD6409002010B50C4CFC
:104AF0000023224652F8040B78B1884203F10103E7
:104B000009D00A2BF6D10748FFF7E4FAFFF752FA6B
:104B10004FF0FF3010BD002010BD44F8231010BD31
:104B2000EC080020F8630008F8B5114F00253C465A
:104B30006068B0B1267801358E4204D1667896421D
:104B400001D198420BD00A2D04F10804F0D1094894
:104B5000FFF7C0FAFFF72EFA4FF0FF30F8BD002044
:104B6000F8BD07EBC50407F8351062706360F8BD47
:104B700014090020D063000810B50024044B1C70F9
:104B800028B1014618221846FFF74DF9047610BDEA
:104B90006C09002070B515460C46FFF795FA0E48D3
:104BA000FFF792FA2846FFF7B1FA0C48FFF78CFAA4
:104BB000002D0BDD013C084E254414F8010FFFF7D2
:104BC000A7FA3046FFF780FAAC42F6D1BDE8704054
:104BD0000348FFF77FBA00BF48650008CC640008AF
:104BE000AC5F000870B50C46FFF76EFA494865885F
:104BF000FFF76AFA2078FFF78BFA4748FFF764FA65
:104C00006078FFF785FA4548FFF75EFA60882E0A5C
:104C1000000AFFF77DFA6088C0B2FFF779FA4048D2
:104C2000FFF752FAA088000AFFF772FAA088C0B214
:104C3000FFF76EFA3B48FFF747FAE088000AFFF7F4
:104C400067FAE088C0B2FFF763FA2378CBB96378DC
:104C5000052B43D0092B0CBF33483448FFF734FAF7
:104C60003348FFF731FA3046FFF752FA3148FFF781
:104C70002BFAE8B2FFF74CFABDE870402E48FFF778
:104C800029BA802BF8D16378062BE3D12B48FFF7A4
:104C90001BFA731E0E2BE3D801A252F823F000BFBB
:104CA0000D4D0008054D0008FD4C0008F54C0008AE
:104CB000ED4C0008614C0008614C0008614C000894
:104CC000614C0008614C0008614C0008614C000810
:104CD000614C0008614C0008E54C00081848FFF7DB
:104CE000F3F9BDE71748FFF7EFF9B9E71648FFF703
:104CF000EBF9B5E71548FFF7E7F9B1E71448FFF717
:104D0000E3F9ADE71348FFF7DFF9A9E71248FFF72A
:104D1000DBF9A5E7D0640008D8640008E064000867
:104D2000E8640008646200083C6500084C650008FF
:104D30005065000854650008AC5F0008F064000886
:104D40002C650008246500081C650008146500082F
:104D50000C65000804650008FC6400082DE9F04FAC
:104D60000C7883B00E46814692469846DDF830B006
:104D700014B94B78052B31D0234C04F150076568EA
:104D800095B16178337822780B409A4204F1080497
:104D900008D1CDF800B04346524631464846A847B0
:104DA000012814D9BC42EAD1FFF7EEFA0246174BAC
:104DB00017481A60FFF788F93378802B02D173788F
:104DC000062B07D013483146FFF70CFF022003B033
:104DD000BDE8F08F022003B0BDE8F08FFFF7D4FAF2
:104DE00002460A4B0A481A60FFF76EF90A48FFF7B5
:104DF00071F94346524631464846A8F8004003B090
:104E0000BDE8F04FFCF7F2BD140900206409002052
:104E100014620008CC630008C463000808B57F2250
:104E2000064B4021FFF780FE002800DB08BD044848
:104E3000FFF750F9BDE80840FFF7BCB8454E000841
:104E40000067000808784030C0B201281ED82DE95C
:104E5000F04148780C46222815D11D468B88022B3C
:104E600016D14C880CB1012C17D01A48FFF72CF939
:104E70002046FFF74BF91848FFF72CF9FFF79AF88F
:104E80000020BDE8F0810220BDE8F08102207047DB
:104E90001248FFF719F9A088EBE711481768FFF7E8
:104EA000A1FE104BD3F800804046FEF76DFF0323B0
:104EB000C618F6B202467B703E70F8184146BC70C8
:104EC000FEF74AFF2B8820469E4228BF1E462E80B2
:104ED000DAE700BFA8660008AC5F0008CC660008EF
:104EE000C46600088C0900200F4A10B50F4B1160F2
:104EF0007F2240210446FFF717FE00280DDB2046E5
:104F00000B49FFF7F3FD002800DB10BD0948FFF750
:104F1000E1F8BDE81040FFF74DB80648FFF7DAF8B2
:104F2000FFF748F8EBE700BF8C090020454E00086A
:104F30001D4E000820670008F8B50D7805F1400007
:104F4000C0B201280BD84878212808D1C02D1F46AF
:104F500016468B8805D1072B24D0042B15D00220B0
:104F6000F8BD052BFBD1154A4B88127CDBB29A4267
:104F7000F5D11348FFF736FE3B88124A922B28BF23
:104F80009223326001203B80F8BD0F48FFF72AFED4
:104F90000A4A3B88116801208B4228BF0B463260C9
:104FA0003B80F8BD0948FFF71DFE3B88084AB22B3D
:104FB00028BFB223326001203B80F8BD5405002099
:104FC000F867000838670008F0670008E86700081D
:104FD000A004002008B56022064B4021FFF7A4FD85
:104FE000002800DB08BD0448FFF774F8BDE808405E
:104FF000FEF7E0BF394F00080868000838B50C78A4
:1050000014F0600F17D14C78062C14D14888040A8C
:10501000032C10D1C0B2EE280DD11C46074815460E
:10502000FFF7E0FD2388064A122B28BF12232A60CF
:105030000120238038BD022038BD00BF0068000871
:1050400040680008114B70B5197411490446FFF708
:105050004DFD104B0546602240212046FFF764FDC0
:105060000D4B06461F2220460021FFF75DFD002D57
:1050700004DB002E02DB002800DB70BD0748FFF7D1
:1050800029F8BDE87040FEF795BF00BF5405002029
:10509000D54F0008394F0008FD4F00082868000868
:1050A00038B5374D2C6804F47F43B3F5354F15D030
:1050B00004F07F43B3F1354F10D03248FFF704F8C6
:1050C0002846FFF749F83048FEF7FEFF2046FFF775
:1050D00043F82E48FEF7FEFF002503E02C48FEF7BC
:1050E000F9FF0125002000F0F1FE002104460846EA
:1050F00000F0D0FE274B9C4234D003F10E2303F581
:105100007C039C4224D0244B9C420BD00023234C94
:10511000237065B92248FEF7DDFF0223214A1846B5
:10512000137038BD03231D4C2370002DF2D01E4890
:10513000FEF7CAFF2078154A1C4B032814BF1046FF
:105140001846FEF7C7FF0323164A1846137038BDEA
:105150000224124B16481C70FEF7BCFF114B204670
:105160001C7038BD01240D4B124900201C7000F04A
:1051700091FE1148FEF7AEFF0A4B20461C7038BD69
:10518000007400086C6800087C680008AC5F0008C8
:1051900060680008424153452A72823F930B002009
:1051A000C0680008940B0020E068000854680008FC
:1051B000A0680008424F4F5480680008024B1878DE
:1051C00000B17047FFF76CBF940B00204FF4005103
:1051D00010B90348FBF7E8BD0148FBF7E7BD00BF86
:1051E0000010014008B540F20230FBF7F3FD40F239
:1051F0000330FBF7EFFD4FF44170FBF7EBFD40F29E
:105200009730FBF7E7FD4FF400510F48FBF7CCFD5B
:1052100001224FF4005311460B48FBF733FE4FF4C5
:105220008053002201210948FBF72CFE102106487B
:10523000FBF7BCFD064B00BF013BFCD1044B00BF9C
:10524000013BFCD108BD00BF001001400008014037
:10525000400D030008B540F21720FBF7C9FD4FF4DD
:1052600080510448FBF7A2FD034B00BF013BFCD17A
:10527000024808BD0008014000350C00DC5F000852
:1052800010B504460548FEF71FFF2046FEF764FFF1
:10529000BDE810400248FEF71DBF00BF24690008AA
:1052A000AC5F000808B50548FEF714FFFEF794FE52
:1052B0000349002000F0EEFDFBF76EFDF8680008E2
:1052C0002A72823F08B50548FEF704FFFEF784FE08
:1052D0000349002000F0DEFDFBF75EFD04690008D5
:1052E0004241534508B50548FEF7F4FEFEF774FE4B
:1052F0000349002000F0CEFDFBF74EFD14690008C5
:10530000424F4F540131FBF785BD00BF0148FEF706
:10531000E1BE00BF5469000810B5154A82B04023B1
:105320000092032102220446FBF744FF002320469B
:105330000093022240238321FBF73CFF0D4B2046C4
:105340000093032210238421FBF734FF20460A4BED
:105350007F222121FFF7E8FB002801DB02B010BD0E
:105360000648FEF7B7FE02B0BDE81040FEF722BEC9
:10537000395400080D53000881530008846900085F
:1053800010B5497821290AD0222906D0202901D038
:10539000022010BD1A88062A0AD9012010BD1988DA
:1053A000062905D907210B4C01201460198010BD76
:1053B0001C460948FEF788FE0720FEF7A7FE0748AF
:1053C000FEF782FE2088FEF7A1FE0548FEF782FE6A
:1053D000002010BDA46900085C6900086462000830
:1053E000AC5F0008F8B5134B1B7803B30746F0B168
:1053F0000E46E1B1144692B1402A12D9402C2546FE
:1054000028BF402532462B4683213846FBF7DAFE7B
:10541000641B8542A4B202D12E44002CEED10020A0
:10542000F8BD13460A468321FBF7CCFEF8BD4FF0CA
:10543000FF30F8BD950B002070B50F4D40232A4674
:1054400003210646FBF7C6FEA8B1402828BF40202E
:1054500000210A4B84B21A7829552AB90121084A39
:105460001970136803B1984722463046BDE8704072
:105470000149FFF7B7BF70BD94090020950B0020CC
:105480009009002008B5074B19600749FFF72EFB6C
:10549000002800DB08BD0548FEF71CFEBDE80840FB
:1054A000FEF788BD90090020195300083C690008E8
:1054B00010B5044682B00B48FEF70CFEFEF78CFDDB
:1054C000094B20460093022240238221FBF772FE03
:1054D0000222064B2046009311464023FBF76AFE4A
:1054E00002B010BD886B0008755C0008E955000823
:1054F0002DE9F04182B00191054616460021402277
:105500002A48FEF771FC72B6019B1BB962B602B065
:10551000BDE8F081019B3E2B34DD3F24402E08BFC7
:105520002346274618BF46EA0403DFF88080224658
:105530004046294600F8013BFEF70EFC019B1B1B71
:10554000019362B61A4B4246186882214023FBF74A
:1055500039FE019B23B3174B2C441C600199164A5A
:10556000164B022F11601E7012DD1548FEF7ACFDC0
:10557000781CC0B2FEF7CCFD124802B0BDE8F04185
:10558000FEF7A8BD019C46EA0403DBB22746CCE740
:1055900006490D487A1C02B0BDE8F041FFF7FABA9F
:1055A000054A022F1360E0DCF2E700BF4C0A00203E
:1055B000D8090020000A0020040A0020980B0020CF
:1055C000D06B0008AC5F0008C86B000810B504463B
:1055D0000448FEF779FD2046FEF77CFDBDE810404B
:1055E000FEF7FABCAC6900082DE9F04FAC4C402343
:1055F0008DB02246FBF7EEFD0546FEF7C5FEA94B32
:105600001860DDB1A84D94F800802C68B4B32088F0
:10561000B8B908F03F09A71C38444A46A349FEF729
:105620009BFB268818F0C0084E44B6B2268005D0F1
:10563000B8F1400F2BD00023237063700DB0BDE88C
:10564000F08F18F0800F0CD108F03F0909EB000330
:10565000B3F5886FDFDD9648FFF7B8FF2C68208828
:10566000D9E79348FFF7B2FF2C6808F03F0920887C
:1056700009EB0003B3F5886FEDDCCCE7FFF79EFD87
:105680008C4C8D4B022808BF1C462C60BFE78B4B0F
:105690001A7832B901218A4A197013680BB19847F8
:1056A00026880022D4F80280E18808F1FF332271B5
:1056B00062716180072B00F26881DFE813F02D0131
:1056C000D100C200AC0098002900660108007D48A6
:1056D000FEF700FDFEF780FCFFF770FD032800F0E9
:1056E000D681102E02D07848FFF770FFD4F80E60F4
:1056F000D4F80A10B6003246A01D0436FEF72CFB83
:105700000996099938464022FFF7F2FE2C6892E785
:10571000FFF754FD032800F09681D4F80A60B4F82E
:105720000090B6F1006FC0F08B816849684B694A00
:1057300006F5807B8B4594BF9B469346DFF8C88176
:10574000D4F80220D8F80030DFF8C0A19A4214BF84
:1057500061486248CAF80020FEF7B6FC3046FEF702
:10576000FBFC5846FEF7B0FC5D4A1378591C9B07BA
:10577000117000F0898104230B93DAF80030DFF810
:1057800090A138460B994022C8F80030DFF884B168
:10579000FFF7AEFEDAF81070DBF8003027F47F7701
:1057A00027F0030707F17848002B00F00581B6F1D8
:1057B000006F00F001814B4A1168002900F0188148
:1057C0009E42C0F02281B34200F06681B9F5867F27
:1057D00002D03D48FFF7FAFEB6F1006F05D33B4B10
:1057E00006F580729A4240F21D812C6823E73E48FC
:1057F000FEF770FC04230693069938464022FFF713
:1058000077FEFEF7E9FBFFF7D9FC0328EDD1FFF7A0
:1058100069FD2C680FE73548FEF75CFC344B042229
:105820001B680392002B0CBF022401240399314B07
:10583000384640221C70FFF75BFEFEF7CDFB2C685C
:10584000F9E62D48FEF746FCFEF7B4FF0422284B8C
:1058500004921B680499002B0CBF03240124E6E783
:105860002648FEF737FC2648FEF78EFA0646002843
:1058700000F00681542802D92248FFF7A7FE3246DD
:10588000A01D1F490436FEF767FA089608993846A6
:105890004022FFF72DFEFEF79FFB2C68CBE600BFF2
:1058A000080A0020480A0020F8090020090A002000
:1058B000B8690008A80C0020BC4B0020960B002003
:1058C000E40900206C6B0008346B0008000001083C
:1058D00048650008C46900082C6A0008CC63000809
:1058E000970B0020EC0900200C6A0008606B000890
:1058F000DC090020990B0020546B0008DC690008CB
:105900006C630008F8690008FC090020E009002029
:1059100050010008E8090020B948FEF7DBFBFFF75B
:105920004DFC182102284FF0000318BF4FF0020869
:1059300040224FF0100E6FF01D0C4FF0010B4FF096
:10594000040A4FF072095E260791A37223736373F2
:10595000A3732374637423756375A27484F817E0CA
:1059600084F818C0C4F806800799384684F80BB04C
:1059700084F80FB084F813A084F816906676FFF7C9
:10598000B7FDFEF729FB2C6855E69E48FEF79CFB09
:105990004046FEF7BBFB9C48FEF79CFBFEF71CFB5A
:1059A0000421002201230291627102993846237179
:1059B0004022FFF79DFD18E79448FEF78BFBFEF7AA
:1059C0000BFB0020DAF81030DAF80C2023F47F719A
:1059D00021F00301CBF800108D4903F178430B60EF
:1059E0008C4902F178428C4B0A608C4A1860106036
:1059F000CAF309033B4318688949884200F0AD8027
:105A0000DBF800309E42BFF4E1AE4644B6F1006FD1
:105A10002AD3844B06F580729A4225D8B9F5867F41
:105A20007FF4D7AE7C4B1B68002B7FF4DEAE04F115
:105A30000E0130464FF48072FEF71CFF2C68FAE529
:105A4000DFF82CB27AE67848FEF744FBFEF7C4FA9A
:105A50000423022405930599744B384640221C7098
:105A6000FFF746FD2C68E6E57148FEF72DFB304652
:105A7000FEF772FB6448FEF72DFBFEF7ADFAA5E6D4
:105A80006C48FFF7A3FDFAE6FEF794FA73E60423E9
:105A90000A9302240A99DFE75F4B1B68002B7FF40F
:105AA00095AE6548FEF716FBFEF796FAFEF782FE06
:105AB000574A584BD2F800A06048D3F800B0FEF720
:105AC00009FBFEF789FA52464FF000613846FEF7AF
:105AD00063F9009000287FD05948FEF7FBFAB044E4
