:020000040800F2
:1000000000500020F5070008810700087D07000860
:100010007D0700087D0700087D070008000000003C
:100020000000000000000000000000008107000840
:100030008107000800000000810700088107000810
:100040007D0700087D0700087D0700089507000868
:100050007D0700087D0700087D0700087D07000870
:100060007D0700087D0700087D0700087D07000860
:100070007D0700087D0700087D0700087D07000850
:100080007D0700087D0700087D0700087D07000840
:100090007D0700087D0700087D0700087D07000830
:1000A0007D0700087D0700087D0700087D07000820
:1000B0007D0700087D0700087D0700087D07000810
:1000C0007D0700087D0700087D0700087D07000800
:1000D0007D0700087D0700087D0700087D070008F0
:1000E0007D070008C50700087D0700087D07000898
:1000F0007D0700087D0700087D0700087D070008D0
:100100007D0700087D0700087D0700087D070008BF
:100110007D0700087D0700087D0700087D070008AF
:100120007D0700087D0700087D0700087D0700089F
:100130007D0700087D0700087D0700087D0700088F
:100140007D0700087D0700087D0700087D0700087F
:100150006919052201000100690100087C070008F7
:1001600001740008220569192DE9F04F01260021CC
:10017000A24AA34B9568106825FA06F49C6054685F
:100180001E61A04EB0F1006F85B0C3E90004C2E962
:100190000511D960C3E90511DE61C0F0CD802844A6
:1001A000B04200F2C28004F17841B1F5803FC0F066
:1001B000CA8004F16041B1F5A04F80F0D18192492D
:1001C0002C448C4200F21382D668002E00F0C281CB
:1001D00072B600208D4C8E4D2060286056698D4986
:1001E0008D4C8E48002E0C600860C0F2A280D3F8BF
:1001F00008C0BCF1000F00F0D980D9691C680191DA
:10020000A14240F2D1804FF0000BCDF808B0CDF8FC
:1002100000B0D3F804E0D3F80C8015698048814918
:10022000D3E905A94C4580F097805445C0F09480EF
:10023000009F0397002D40F09A801D62066895612B
:1002400006F035061E620D88B5F5007F06D9764D9D
:100250002D681E6A05F0350535431D6200270FE045
:1002600095696E1CFF2D966100F249811F62056839
:1002700005F035051D620D88B5F5007F00F251814E
:100280001D6AEE07ECD40D88B5F5007F03D9674DE4
:10029000AC4200F29B81664E356845F00105356041
:1002A0000026BEF8005025801E620568966105F0A4
:1002B00035051D620D88B5F5007F06D95A4D2D68AC
:1002C0001E6A05F0350535431D6200270FE095696C
:1002D0006E1CFF2D966100F250811F62056805F0CB
:1002E00035051D620D88B5F5007F00F23E811D6A5F
:1002F000ED07ECD40D88B5F5007F00F241814C4E3E
:10030000356825F0010535601569A61C002D40F003
:10031000868136F802ACBEF80070BA4540F07581AF
:100320003446012602962E4622E06FF00203C2E90F
:10033000053005B0BDE8F08F6FF00103C2E905306C
:1003400005B0BDE8F08F2C44B4427FF63DAF6FF0AE
:100350000303C2E90534ECE724F47F7727F00307B1
:10036000BA4607F58069002D33D04FF0010B0234F7
:10037000BCF1010C0EF1020E08F1020800F05781E9
:1003800001270097019FA246A7423FF64BAF029973
:10039000C3E9004E01B156615C61C3E902C8BBF11B
:1003A000000F01D0C3F8189000211961204854694A
:1003B0000168002C41F080010160BADB116900295D
:1003C00000F0F6801969002900F01C81DB68536198
:1003D000AFE71D620668956106F035061E620D885E
:1003E000B5F5007F06D9104D2D681E6A05F035055C
:1003F00035431D624FF0000B2BE000BF00000020D2
:100400001C000020000001080050002010E000E067
:10041000081002400420024023016745AB89EFCD5C
:100420000C200240E0F7FF1F4C200240FFFF0708AE
:100430001020024095696E1CFF2D966179D8C3F893
:1004400020B0056805F035051D620D88B5F5007F03
:1004500078D81D6AEE07EDD40D88B5F5007F03D975
:10046000864DAF4200F29680854EDFF838B235688F
:1004700045F002053560CBF80070356845F0400561
:10048000356000261E620568966105F035051D621F
:100490000D88B5F5007F06D97A4D2D681E6A05F0E6
:1004A000350535431D624FF0000B10E095696E1C59
:1004B000FF2D966100F29880C3F820B0056805F022
:1004C00035051D620D88B5F5007F00F285801D6A37
:1004D000ED07EBD40D88B5F5007F40F28D80674DB8
:1004E000AF4240F28980684E356825F002053560DC
:1004F0004FF0010B15690026CDE902BB9AE66FF0BB
:1005000009010098002840F0A2805161039A002A56
:1005100040F0AC80BBF1000F3FF40BAFC3F8189074
:1005200007E7584D2D681E6A05F0350535431D62F5
:10053000A6E66FF00B010098002840F09080516112
:100540005F61EBE74F4D2D681E6A05F035053543B9
:100550001D627EE74D494E4C4E480C60086046E6F1
:100560006FF00503C2E90534E3E6464D2D681E6AC7
:1005700005F0350535431D62B9E66FF00A01C0E7A5
:100580003E4DAC427FF6BBAE3F4E356825F00105CF
:100590003560B9E63C4DDFF810B12E6846F0020632
:1005A0002E60CBF800702E6846F040062E6068E79B
:1005B000D16800293FF406AFBFF35F8F364A374B4F
:1005C0001A60BFF34F8F364A5A60FEE72E4E3568E9
:1005D00045F00105356063E62A4D2D681E6A05F079
:1005E000350535431D6272E76FF00C01A3E76FF02C
:1005F0000403C2E905349CE6214E356825F0020566
:10060000356075E74FF0FF33E1E6009961B90021ED
:10061000516100995E6100293FF4C1AEBDE63446E8
:10062000012602960026A3E6C3E9004EEFE70299F1
:10063000C3E9004E01B1566100215C61C3E90218B3
:10064000BBF1000F3FF4B2AEC3F81890AEE65161B3
:10065000039AC3E9004E4AB9C3E902C85AE7C3E99D
:10066000004E51615F61C3E902C857E7009AC3F8C1
:1006700014A0002A3FF44EAFEEE700BFFFFF0708CB
:10068000102002404C200240502002400420024032
:1006900023016745AB89EFCD0000000808ED00E0BD
:1006A0000400FA0514200240542002402DE9F043D2
:1006B00000284BD0002949D0002A47D0002B45D034
:1006C000274CDFF8B090274D04EA0907C5F3090568
:1006D00047EA0508D8F800E0234EB6452AD1234E54
:1006E000D8F814C0B44525D1D8F8106004F580645A
:1006F00006EA090606F17846DFF87C803444444572
:1007000029D807EB060845EA08042568754516D17F
:100710006569654513D14FF0006C0025A46808F1A8
:10072000784844440460C1F800C017601E60284641
:10073000BDE8F0830E4B6FF001059F61F7E70C4AAF
:100740006FF00305C2F818801E60F0E7084B4FF009
:10075000FF359861EBE7064B6FF002059E61E6E717
:100760000174000850010008691905222205691961
:100770000000002000FCFFFFFFFF0008FEE700BFB5
:10078000704700BF024B1868C0F30800704700BFF5
:1007900004ED00E010B5002001F03AFD00B910BDF5
:1007A000002001F01BFD054A054913680968013363
:1007B00013600029F3D0BDE810400847B0080020BE
:1007C000A808002010B54FF4003001F021FC0120F2
:1007D00001F004FD054A06491368096801331360F6
:1007E00011B1BDE81040084710BD00BFA4080020AB
:1007F000AC08002038B53C4A3C4CA2420FD2D3434F
:10080000154623443A4923F00303043308461944A8
:1008100050F8044B884245F8044BF9D11A44354B43
:100820009A420DD20333111D5B1A23F003030433E4
:100830000020134400E00431994210600A46FAD1C6
:100840002D4A2E4D13682E4C43F40073136000F0B4
:10085000C9F900F0F5F82B681BB92A4B22689A42B7
:100860000CD0294803F0D6FB286803F01BFC27486E
:1008700003F0D0FB206803F015FCFEE7244C25496B
:100880008C420BD2E3430B4423F00303043325468D
:100890001C4455F8043B9847A542FAD11E4C1F4909
:1008A0008C420BD2E3430B4423F00303043325466D
:1008B0001C4455F8043B9847A542FAD103F05CFE6E
:1008C000174C06F09DFD17498C420BD2E3430B44B5
:1008D00023F00303043325461C4455F8043B984792
:1008E000AC42FAD138BD00BF0000002080050020D6
:1008F000006B0008000D002014ED00E0980B0020B4
:100900004000002021436587C85D0008F05D0008B5
:10091000006B0008006B0008006B0008006B00080B
:10092000006B0008006B00082DE9F041184E336899
:1009300033B39847174DDFF86C8028602B68C8F8F0
:1009400000302B68002B02DD134803F063FB2B689B
:100950000027002B0DDD0A242F60336898472B6891
:10096000013C1843A4B22860002CF6D12B68002B60
:10097000F1DCD8F80030002B02DD084803F04AFB18
:10098000074B1B6803B19847BDE8F04101F074BC08
:100990009005002080050020005E0008045E00082D
:1009A000840500208C050020074B1B6803B1184705
:1009B00010B503F08FFCC72800D910BD0348BDE86F
:1009C000104003F027BB00BF88050020085E000828
:1009D00070B50446164803F01DFB1648FF26A0FB21
:1009E0000430800903F038FB03F074FC124D04441A
:1009F00000E020BF03F06EFC844210D901F040FCFF
:100A00000028F6D001F03CFC0028F2D02E7001F056
:100A1000A7FCFF28287007D001F048FDE9E7074848
:100A2000BDE8704003F0F6BA01F00AFCE1E700BF50
:100A3000645E0008D34D6210A00C00206C5E0008BC
:100A400008B5084B1A7802B108BD01221A7003F0EC
:100A50003BFB01F0F7FB04490448BDE8084003F004
:100A600091BB00BF98050020A909000829090008CA
:100A7000024B1B7803B120BF704700BF98050020D0
:100A800010B1034B1B7803B97047FFF7A1BF00BF3C
:100A900098050020054BA3FB0030800902D0044BD1
:100AA0001B7803B97047FFF793BF00BFD34D6210A7
:100AB0009805002008B5034803F0B2FA03F020FAC5
:100AC00000F024F9385E000862B6704772B67047CD
:100AD00008B5024803F0A4FA002008BD4C5E0008E7
:100AE00008B5034803F09CFA024B186808BD00BF24
:100AF0000C5E0008147AFF1F08B5044672B605485C
:100B000003F088FA204603F099FA03F0F9F920BFC0
:100B1000FDE700BF245E0008004870470050002039
:100B2000402008F08DBE00BF81637047416370476D
:100B3000C1637047C06B704768467047406B704731
:100B4000C0E900128360704738B5144B14481D6823
:100B5000144C03F05FFA284603F0A4FA124803F09D
:100B600059FA204603F09EFA104803F053FA601B2E
:100B7000800A03F0F3F90E4803F04CFA6B46C3F118
:100B8000005000F5A040800A03F0E8F9094803F09E
:100B900047FABDE8384003F0B3B900BF4400002075
:100BA000705E000800480020805E0008885E000833
:100BB000945E0008A85E0008704700BF00207047E0
:100BC000014B1860704700BF84050020014B18607E
:100BD000704700BF88050020014B1860704700BFB8
:100BE0009005002003F096BA002815D000604160FF
:100BF0008260C360046145618661C76144460462E6
:100C00004C464462544684625C46C4626446046353
:100C10006E46466374468463002906D0C46B043C68
:100C2000043925680D60B442F9D1946BA646566B21
:100C3000B546002B06D0D46B043C043B1D682560F0
:100C4000B442F9D1146BA446D46AA346946AA2466E
:100C5000546AA146146AA046D76996695569146911
:100C6000D368516810689268704700604160826084
:100C7000C360046145618661C761444604624C46B5
:100C80004462544684625C46C462644604636E46B1
:100C9000466374468463C46B043C043925680D6064
:100CA000B442F9D1C7698669456904697047006033
:100CB00041608260C360046145618661C7614446EA
:100CC00004624C464462544684625C46C462644694
:100CD00004636C4644637446846304697047846BA0
:100CE000A646446BA546046BA446C46AA346846A20
:100CF000A246446AA146046AA046C7698669456956
:100D00000469C3688268006841687047014B024A01
:100D10001A60FEE70CED00E00400FA05016170477F
:100D200009040161704700BF024A136843F48073ED
:100D30001360704700700040024A136823F4807308
:100D400013607047007000400122430903F18043A3
:100D500003F50433196800F01F0002FA00F008439D
:100D6000186070470122430903F1804303F50433FF
:100D7000196800F01F0002FA00F0014319601A68B8
:100D800022EA000018607047192928BF1921F0B421
:100D90000D4688B0164F03AE04460FCF0FC63A6813
:100DA000144B32701A68083B00925A68013D019258
:100DB0001B68002D029316DD002208AB03EB6203D3
:100DC00013F8203C08A800EB131010F8140C03F0E3
:100DD0000F0308AE3344A118A05413F8143C023298
:100DE00095424B70E9DC0023635508B0F0BC7047B6
:100DF000AC5E0008F0F7FF1F2DE9F04743F6F87CE2
:100E0000066800240F27D0F804E004E048EA0A0648
:100E10000134102C29D043FA04F515F0010FA5B2C6
:100E2000F6D04FEA840808F1020907FA08FA02FA34
:100E300009F901FA08F8072C26EA0A0A49EA08081B
:100E4000E4D96544AD00ADB205F1020801FA05F937
:100E500002FA08F807FA05F5013448EA09082EEA0B
:100E60000505102C48EA050ED5D10660C0F804E04F
:100E7000BDE8F087024B1868C0F34060704700BFC0
:100E800000100240024A136843F0807313607047F9
:100E900000100240024A136843F400431360704795
:100EA0002010024006280AD8DFE800F00404042FCE
:100EB000041D0A001E4A136823F440731360704730
:100EC0001C4B1A46196841F0010119601368990713
:100ED000FCD5174B1A6822F440721A601A6842F463
:100EE00000721A607047124B1A46196841F00101EE
:100EF000196013689807FCD5136823F440731360D6
:100F0000136843F48073136070470B4B1A461968DB
:100F100041F48031196013689B03FCD5044B1A68B7
:100F200022F440721A601A6842F440721A607047E4
:100F300020100240241002400010024038B52B4B14
:100F40001A46196841F00101196013689907FCD528
:100F500027482649036823F003030360136843F41A
:100F6000803313600B689B03FCD5214C022023685F
:100F700023F0030343F001032360236823F0F0030D
:100F80002360236843F440432360236823F4E06331
:100F900043F480632360236823F46053236000F0EC
:100FA0005DFD236823F4701343F4E013236023688A
:100FB00043F480332360236823F400332360FFF776
:100FC00061FFFFF757FF0028FBD00949094A0B686A
:100FD000094D23F0030343F002030B60074C08485C
:100FE000084B2A602260036038BD00BF0010024039
:100FF0000410024000A24A044800002050000020D3
:101000004C0000200051250210B540F29730FFF748
:101010009BFE00234FF41C41044A0548054C136015
:10102000036023600448116010BD00BF405C0040B5
:10103000505C0040445C0040A40B00200132521080
:1010400093B25AB1013B9BB2013301EB430331F838
:10105000022B0430994240F8042CF8D1704700BFAD
:1010600070B402F0010652080DD00B46013A92B25C
:10107000013200EB420533F8044B20F8024BA84242
:10108000F9D101EB82010EB10B78037070BC70478F
:101090002DE9F047804600688A4617461E46BDF88F
:1010A0002890804700258660089E0B4B0B490C4A10
:1010B000C660099EC0F800A0C0F8DC8047600661E9
:1010C000A0F81490C0E91B138266C0E93255C0E94C
:1010D0003455BDE8F08700BF191300087D130008E0
:1010E0001D1400088162704770B50025044603682E
:1010F000C582D0F8DC2082B0DB790095966829465D
:101100002A46B047D4F8DC3029465B682046984729
:10111000E3691BB102B0BDE87040184702B070BD72
:10112000D0F8DC305B6A184710B4D0F8DC40A46813
:10113000A44610BC604700BF10B4D0F8DC40E4699E
:10114000A44610BC604700BF10B4D0F8DC40246A4D
:10115000A44610BC604700BFD0F8DC301B691847BC
:10116000D0F8DC309B691847D0F8DC305B69184751
:1011700010B50268838FD17904469942826B10D3EF
:101180000021FFF7D9FF002394F84420A3879A4257
:101190000CBF0322022284F8443084F82C20A3637D
:1011A00010BD0B460021FFF7C7FF0222236884F819
:1011B0002C20D979A26BA38F0A445B1AA263A38760
:1011C00010BD00BF2DE9F04F05460F4683B000F17A
:1011D000380800F13C0900F1480400F1680A00F108
:1011E000400B266896B161793B7822790B409A4290
:1011F00004F1080408D1CDF800B04B464246394608
:101200002846B04701280AD95445EAD14B46424600
:101210003946284603B0BDE8F04F00F0EDBB03B0FF
:10122000BDE8F08F70B50369044683638B79CA7992
:101230000D4643EA02238387FFF7C4FFA8B1EB887A
:1012400023B3A28F21689342C97917D932B192FB97
:10125000F1F301FB1322B2FA82F2520984F844201E
:101260002046BDE87040FFF783BF064601460122D5
:101270002046FFF771FF84F82C6070BD00222046E5
:1012800084F84420BDE87040FFF772BF1A46194643
:101290002046FFF751FF042384F82C3070BD00BFB7
:1012A00070B50268838FC48ED279E41A9442A8BFC5
:1012B0001446826BA6B21A44002133460546FFF756
:1012C00043FF864204D1AB8FA0B21E44AE8770BDEF
:1012D000284601220021FFF73FFF00234FF0FF3097
:1012E00085F82C3070BD00BF70B405460026AC6C8C
:1012F00008353CB10136042EF9D14FF0FF342046B9
:1013000070BC704700EBC60080F84C1080F84D2090
:101310008364204670BC704738B5002504462946D2
:1013200001220564FFF720FFE38E04F13001C3B111
:1013300094F93020002A14DBA28A9A4216D321693C
:101340002268A163A587D27920469A4234BF05233B
:101350000623002284F82C301146BDE83840FFF700
:1013600003BF2046BDE83840FFF75CBF0122294695
:101370002046FFF7F1FE84F82C5038BD38B590F8C0
:101380002C300446062B2BD0072B18D0052B07D06A
:1013900001220021FFF7E0FE002384F82C3038BD45
:1013A000FFF77EFF0028FADB2268E38EA18FD27957
:1013B0005B1A9342F3DC062384F82C3038BD0023FB
:1013C0001A461946FFF7C0FE0022236C84F82C2031
:1013D0001BB104F13001204698470023236438BD37
:1013E000FFF75EFF0028DADB04F130012046FFF74B
:1013F000E9FE054648B1002320461A461946FFF784
:101400009BFE042384F82C3038BD0146012220467F
:10141000FFF7A2FE84F82C5038BD00BF90F82C30A6
:1014200010B5032B044627D0042B0DD0022B07D078
:1014300001220021FFF790FE002384F82C3010BD1C
:10144000BDE81040FFF794BE036C13B100F130010A
:10145000984794F83030002BEED194F83130052BBA
:10146000EAD1618ED4F8DC30C9B25B682046984777
:10147000002384F82C3010BD0723BDE81040002263
:1014800080F82C301146FFF76FBE00BFF8B54E88CC
:1014900096B103685D7C6DB144686379B34244D012
:1014A0002246002303E0977C0D32BE4222D0013356
:1014B000AB42F8D10020F8BDC6750446D0F8DC3048
:1014C0000E46DB689847D4F8C8308BB1002204F18F
:1014D000CC05A2642265A265226604F1D80713B187
:1014E000718820469847AF4202D055F8043BF6E792
:1014F0000120F8BD0133DBB2C375002BDDD003EB57
:10150000430203EB82030D3B1C442579002DD4D00C
:1015100000231F46D4F809201E01B25801330AB136
:10152000177025799D42F5D8C7E70123C375ECE70D
:1015300019881268012984BF01211980C37D13B95C
:10154000137001207047416803EB430003EB8003F5
:101550000B4413F8083C01201370704730B4C47D6D
:10156000406804EB440504EB85040D3C04442079F9
:101570008D8885420DD2012018808B88D4F80910FF
:101580001B015B5803B11B7812680120137030BC3B
:101590007047002030BC704719880120022984BFA1
:1015A00002211980002311680B7012685370704774
:1015B00038B51D881446022D84BF02221A808988FE
:1015C000C9B2FFF7CDFD011C18BF0121002223681D
:1015D0000120197023685A7038BD00BF08B589888A
:1015E0000122C9B2FFF7B8FD012008BD08B58988FE
:1015F0000022C9B2FFF7B0FD012008BD0B788BB9FE
:1016000010B54C887F2C0BD8D0F8DC30847593F85B
:1016100030204AB149885B68C9B29847012010BDA3
:10162000184610BD00207047012010BD70B5C27D66
:10163000446802EB420502EB85020D3A224415791B
:101640008C88A54215D9D2F80920240115192E79C4
:101650004D88AE420DD912596AB115701C46D0F8AA
:10166000D83013B14A888988984700230120238005
:1016700070BD002070BD002DF0D0104670BD00BFC1
:101680002DE9F04F4D8889B02C0A022C069348D0E2
:10169000032C12D0012C03D0002009B0BDE8F08F3C
:1016A00001681D8811601E460B782046AB4228BF9A
:1016B0002B46338009B0BDE8F08F15F0FF050669B1
:1016C00000F015818468002CE6D0C368013DAB4270
:1016D000E2DD40F2094389889942DDD154F8254082
:1016E0000092204602F008FB431C5B00DBB2069A26
:1016F0003370118815468B4228BF0B46032B13808D
:10170000009A40F2FF800021601E10F8014F06EBA6
:1017100041035C802B8801315B08013B8B42F4DC88
:10172000F0E00169EDB2466805EB45031160069AE9
:1017300005EB8305735D14887219A34228BF234605
:1017400090469B460F4607910846039211461A465B
:1017500002F0BAFA98F80430A4EB0B04A4B216F81D
:1017600005A007EB0B09002B00F0B78000230593C1
:10177000D8F80920059B1F01D3199D680497BDB1B6
:101780002E782946A64228BF26464846324602F011
:101790009BFA039A2B78D2F809209A44A41B06EBF3
:1017A0000B01A4B21FFA81FBB1441FFA8AFAD319C4
:1017B0001979002900F0888000220292DF68029BDC
:1017C000484603EB4306C6EBC606BD5DBA19A54203
:1017D00028BF25469046114600922A4602F074FA28
:1017E000BB5DD8F80D10641BAB449A44A4B21FFA39
:1017F0008BFBA9441FFA8AFAA1B1D8F811504846C8
:10180000A542A8BF2546AEB2324602F05DFAD8F82E
:101810001130A41BB3449A44A4B21FFA8BFBB14409
:101820001FFA8AFA009B1B79002B40D000255346F3
:101830000193009BC5EB0518D3F809A048461AF898
:1018400008600AEB0807A64228BF264639463246FA
:1018500002F03AFA1AF80820019BD7F80710A41BE7
:10186000B3441344A4B21FFA8BFBB1449BB2B9B189
:101870000193D7F80B604846A642A8BF26461FFA38
:1018800086F84646424602F01FFAD7F80B20019B25
:10189000A41BC3441344A4B21FFA8BFBC1449BB2E4
:1018A000009A01351179AAB29142C1D89A46039B98
:1018B0000299D3F80920049B0131D3181D7988B20D
:1018C000854202913FF67AAF059B0399013308796F
:1018D00099B2884205933FF64DAF0120079BA3F8CC
:1018E00002A0069BA3F800B009B0BDE8F08F092163
:1018F0000423B1700699F37033700B88042B28BF52
:1019000004230B80032301207370166009B0BDE827
:10191000F08F00BF19880120022984BF022119809D
:10192000002311680B70126853707047002210B4C6
:1019300000F1C80454F8043B63B18B4202F1010288
:1019400005D0042AF6D14FF0FF3010BC70470020BC
:1019500010BC7047323240F822101846F8E700BF3A
:1019600010B44C78092C1AD8DFE804F011191919B1
:1019700019050919150D0B4CA44610BC60470A4CFB
:10198000A44610BC6047094CA44610BC6047084CF4
:10199000A44610BC6047074CA44610BC604700201A
:1019A00010BC7047FD150008811600088D14000852
:1019B000991500083115000810B44C78012C08D096
:1019C0000CD3032C07D14C882CB9084CA44610BC6E
:1019D00060474C8834B1002010BC7047044CA446CA
:1019E00010BC6047034CA44610BC6047DD150008DE
:1019F000B1150008ED150008F0B40C7814F0600F74
:101A000013D104F01F04012C05D011D3022C0CD1EA
:101A1000F0BCFFF7D1BF9C464B780D460A2B06461B
:101A2000174612D00B2B0ED02BB1F0BC0020704704
:101A3000F0BCFFF795BF064C63463A462946304650
:101A4000A446F0BC6047034CF6E7034CF4E700BF44
:101A5000151900082D1600085D150008034A1368C3
:101A600023F0070318431060704700BF00200240B6
:101A7000024B41F080011960704700BF4C5C004090
:101A80003E2A10B411D80132C2F34F02500080B286
:101A90000A4B0B4C1B6892029BB203EBC10149003D
:101AA0000C4492B2226010BC7047013AC2F3441257
:101AB000501C400142F02002EAE700BF505C0040A9
:101AC0000C600040F0B54FF0C06701F07F06B40035
:101AD00004F1804404F5B844256883B025F4E0455A
:101AE0000DF1080C25F07F050CEB42023543DFF8C1
:101AF000E8C0ADB2CDE900C72560256832F8082CF2
:101B000025F4EC4525F07005154349B2ADB2002926
:101B100025604FEAC60EB0F818C0089F00DB5EBB18
:101B20002C4A126892B27244520002F1804202F5CD
:101B3000C042C2F800C027B106EB460200EB8202A9
:101B4000976648F6CF7522689C442A402260256833
:101B50001FFA8CFC25F4E04525F04005ADB285F078
:101B6000200545F4004545F0800500292560A0F8D2
:101B700018C001DA03B0F0BD1A46164B05461968C5
:101B800003F56E7389B28E444FEA4E0E7344C3F868
:101B900000C03146FFF774FF27B106EB460605EBA0
:101BA0008606F7664CF68F7123682A8B0B402360FC
:101BB0002368104423F4804323F070039BB283F422
:101BC000405343F4004343F080032360288303B071
:101BD000F0BD00BF505C00400002000448F28001EC
:101BE00070B40C4A0C4E0D4D0D4C136833400B4332
:101BF0009BB2136013682B400B439BB242F8043B2B
:101C0000A242F2D170BC0368DB7920335B0003830E
:101C1000704700BF045C0040BF8FFFFF8FBFFFFF16
:101C2000205C004010B449BB002A0CBF20241024C3
:101C30002B48036823F4E04323F0400363401BB2C6
:101C400043F4004343F080039BB20360890001F139
:101C5000804101F5B84122B34FF480530A6822F461
:101C6000804222F0700292B253401BB243F4004310
:101C700043F080039BB20B6010BC70470B06E5D5A8
:101C800001F07F01890001F1804101F5B8410B6845
:101C900023F4E04323F040039BB282B183F01003AE
:101CA000E3E74CF68F700A684FF4405302400A6035
:101CB0000A6822F4804222F0700292B2D4E748F619
:101CC000CF7283F020031BB243F4004343F0800340
:101CD0009BB20B600B6810BC13400B60704700BFD9
:101CE000005C00400B060DD4890001F1804101F534
:101CF000B841086800F44050A0F58050B0FA80F078
:101D00004009704701F07F01890001F1804101F530
:101D1000B841086800F03000A0F11000B0FA80F07F
:101D2000400970470B0614D40E4B880000F1804028
:101D300000F5B8405A54036823F4804323F070033D
:101D40009BB23AB983F4405343F4004343F0800319
:101D50000360704783F4005343F4004343F080036F
:101D6000036070479C0B00202DE9F04101F07F06D5
:101D7000B40004F1804404F5B844256805F030054A
:101D8000302D2ED01F46DFF864801146D8F8002091
:101D9000F60092B23244520002F1804202F5C04293
:101DA00010881A46400000F1804000F5C040FFF75F
:101DB00045F9D8F800100C4B89B20E447600334434
:101DC0001F602168384621F4E04121F0400189B2CA
:101DD00081F0300141F4004141F080012160BDE813
:101DE000F0810020BDE8F08104600040505C0040BC
:101DF000F8B58C0004F1804404F5B844266806F474
:101E00004056B6F5405F43D0234FCE003D6823488F
:101E1000ADB235446D0028440068C0F30900984213
:101E20002CDB1D461C4B10461A6803F56E7392B2EC
:101E30001644760033440F4619882A46490001F1BA
:101E4000804101F5C041FFF70BF940F60F7321689F
:101E5000134A0B4043F080032360D35D63B92368CA
:101E600023F4804323F070039BB283F4405343F484
:101E7000004343F0800323602846F8BD3B680748D1
:101E80009BB233445B0018440568C5F30905C9E7F4
:101E900000252846F8BD00BF505C00400C600040A3
:101EA0009C0B0020364AF8B513680446590549D4FE
:101EB0001A049DB222D4280506D54FF2FF71304A8C
:101EC000236A116003B19847E90406D54EF6FF7105
:101ED0002B4A636A116003B19847AA05A36A06D525
:101EE0004FF6FF51264A116033B39847A36A1BB3DC
:101EF000244A136843F400731360F8BD03F00F071E
:101F0000BE0006F1804613F0100306F5B84622D154
:101F100040F60F7231680A4042F40042326007EB2B
:101F2000470213441A3354F823300BB32046394682
:101F300098472805C8D5C0E7124A136823F40073F0
:101F40001360F8BD40234FF6FF3111600383BDE8F5
:101F5000F840FFF7C9B833681B0501D40123DEE759
:101F6000082300F130023946FFF742FF0223D6E78B
:101F700040F60F733268134043F0800333609AE7F2
:101F8000445C0040405C0040012243099B0003F197
:101F9000604300F01F0003F5614302FA00F018608F
:101FA000704700BF012916D00BD3022908D10F4971
:101FB0000F4A0B6803430B601368184310607047A7
:101FC00070470A490A4A0B6803430B60136823EA07
:101FD0000000106070470549054A0B6823EA0003BA
:101FE0000B60136818431060704700BF080401407D
:101FF0000C0401400449054A0B6803430B60136855
:1020000018431060704700BF000401400404014001
:10201000014B1860704700BF14040140044A136864
:102020009B06FCD5136843F010031360704700BF94
:1020300004280040044B1A46196821F01001196069
:1020400013689B06FCD570470428004030B40C4A46
:1020500013689906FCD513680A490B4C43F010032A
:1020600085B2000C13602560086013681C3923F0EA
:10207000100313600B689B06FCD530BC704700BF93
:1020800004280040202800402428004030B40C4A96
:1020900013689906FCD513680A490B4C43F01003EA
:1020A00085B2C0F3034013602560086013680439EB
:1020B00023F0100313600B689B06FCD530BC7047FF
:1020C00004280040082800400C280040034A044B24
:1020D00010681B6843EA0040704700BF18280040A2
:1020E0001C28004030B40C4A13689906FCD51368CC
:1020F0000A490B4C43F01003050C80B213602560B5
:1021000008601368183923F0100313600B689B06EE
:10211000FCD530BC704700BF042800401C2800409C
:1021200018280040144A13689906FCD51368012842
:1021300043F01003136018D011D3022809D00E4BBE
:102140001A46196821F01001196013689B06FCD526
:1021500070470A4A136843F004031360EFE7074A25
:10216000136843F001031360E9E7044A136843F07E
:1021700002031360E3E700BF04280040002800408A
:10218000144A13689906FCD51368012843F010031C
:10219000136018D011D3022809D00E4B1A461968C3
:1021A00021F01001196013689B06FCD570470A4A9C
:1021B000136823F004031360EFE7074A136823F062
:1021C00001031360E9E7044A136823F00203136074
:1021D000E3E700BF042800400028004001280FD09A
:1021E00008D3022805D1094A136823F004031360B9
:1021F00070477047054A136823F001031360704766
:10220000024A136823F00203136070470428004059
:1022100001280ED008D3022804D1084B186800F01A
:102220000400704700207047044B186800F001005C
:102230007047024B186800F0020070470428004005
:10224000704700BFFF23002110B50848084A094C19
:1022500003702370117000F05BF800F055F900F086
:1022600015F8BDE8104000F059B800BFA20C0020DE
:10227000A10C0020A00C00200121002000F090B84B
:10228000014B1878704700BFA10C00200023064ABC
:102290000649C2E900330B7013729381C2E904331B
:1022A00013769383704700BF9C05002058060020DA
:1022B000F8B5164D05EB0015EC792A7A631C93FBF3
:1022C000F2F402FB1434AE79E4B2B442AF8809D11F
:1022D0001AE02A7A013494FBF2F302FB1344E4B2CD
:1022E000A64211D02B6807FB04335A68511E002AFE
:1022F000EFD059600029ECD1687B00F00BF9FE218A
:10230000687B00F00DF9E4E7F8BD00BF9C050020F4
:102310000022014B1A707047590600200021FF204F
:1023200010B40D4B0D4C0A46217003F18C01187549
:10233000D880DA731A745A749A745A735A719873EB
:102340001A711A6018739A60DA7458759A611C339E
:102350008B42ECD110BC7047BC0500205A0600200F
:10236000F0B40D4B1E78A6B1FF27002238460B4B68
:102370001C795D7B052C02F1010103F11C0303D1E3
:10238000BD423CBF2F46D0B28AB2B242F0D1F0BCBF
:102390007047FF20F0BC70475A060020BC050020A3
:1023A0002DE9F047DFF88C9099F8003013B3002442
:1023B0000E4682464FF0050827461D4DE300191BC7
:1023C00005EB81010A79022A1AD0042A18D0012AC1
:1023D00012D0BAF1000F07D11B1B05EB8303D87B8A
:1023E000FF2801D0FFF764FF013499F80030E4B210
:1023F000A342E3D1BDE8F0878A6801328A60E8E74A
:10240000191B05EB8101087D5045E2D18868B04277
:102410000BD8042AA3EB040205EB82028F6004BFF1
:10242000CF744F7582F80480D3E7801B8860D0E7B3
:10243000BC0500205A0600201A4B1B788BB30122E2
:10244000F0B5C40800F0070002FA00F05A1E164B5F
:10245000D2B240B2C2EBC20203F11C01C643002556
:10246000052701EB820102E01C33994218D01A794A
:10247000033A012AF8D803EB040C9CF91520024218
:1024800006EA020EF0D08CF815E0DA7C12B95A7D1B
:10249000002AE9D1DD745D751F711C339942E6D1C4
:1024A000F0BD70475A060020BC05002010B5094A4F
:1024B000094C127823789A4204D84FF41C7000F02B
:1024C0000FF82378054AC3EBC30352F82330BDE865
:1024D000104018475A060020A00C0020BC05002020
:1024E000044608B5064801F095FD204601F0B4FD0C
:1024F00001F006FD034B1C801A8892B21A80FEE799
:10250000F45E0008560600200022014B1A70704746
:102510005B060020014B1870FFF78EBF54000020AF
:10252000024B03EB40004170704700BF480600209B
:1025300081F0004102E000BF83F0004330B54FEA74
:1025400041044FEA430594EA050F08BF90EA020FE1
:102550001FBF54EA000C55EA020C7FEA645C7FEA74
:10256000655C00F0E2804FEA5454D4EB5555B8BF97
:102570006D420CDD2C4480EA020281EA030382EA08
:10258000000083EA010180EA020281EA0303362D9A
:1025900088BF30BD11F0004F4FEA01314FF4801C6D
:1025A0004CEA113102D0404261EB410113F0004F7F
:1025B0004FEA03334CEA133302D0524263EB430336
:1025C00094EA050F00F0A780A4F10104D5F1200ED4
:1025D0000DDB02FA0EFC22FA05F2801841F100012F
:1025E00003FA0EF2801843FA05F359410EE0A5F103
:1025F00020050EF1200E012A03FA0EFC28BF4CF034
:10260000020C43FA05F3C01851EBE37101F00045E9
:1026100007D54FF0000EDCF1000C7EEB00006EEBF6
:102620000101B1F5801F1BD3B1F5001F0CD3490880
:102630005FEA30004FEA3C0C04F101044FEA4452D7
:1026400012F5800F80F09A80BCF1004F08BF5FEA5E
:10265000500C50F1000041EB045141EA050130BD3E
:102660005FEA4C0C404141EB010111F4801FA4F1E1
:102670000104E9D191F0000F04BF01460020B1FA36
:1026800081F308BF2033A3F10B03B3F120020CDA6E
:102690000C3208DD02F1140CC2F10C0201FA0CF04C
:1026A00021FA02F10CE002F11402D8BFC2F1200CB1
:1026B00001FA02F120FA0CFCDCBF41EA0C01904067
:1026C000E41AA2BF01EB0451294330BD6FEA0404B0
:1026D0001F3C1CDA0C340EDC04F11404C4F120029B
:1026E00020FA04F001FA02F340EA030021FA04F3AD
:1026F00045EA030130BDC4F10C04C4F1200220FA04
:1027000002F001FA04F340EA0300294630BD21FA41
:1027100004F0294630BD94F0000F83F4801306BF07
:1027200081F480110134013D4EE77FEA645C18BFFB
:102730007FEA655C29D094EA050F08BF90EA020F92
:1027400005D054EA000C04BF1946104630BD91EA8A
:10275000030F1EBF0021002030BD5FEA545C05D18D
:102760004000494128BF41F0004130BD14F58004CC
:102770003CBF01F5801130BD01F0004545F0FE4140
:1027800041F470014FF0000030BD7FEA645C1ABF75
:10279000194610467FEA655C1CBF0B46024650EAAC
:1027A000013406BF52EA033591EA030F41F40021D8
:1027B00030BD00BF90F0000F04BF0021704730B55E
:1027C0004FF4806404F132044FF000054FF0000133
:1027D00050E700BF90F0000F04BF0021704730B5F4
:1027E0004FF4806404F1320410F0004548BF4042C9
:1027F0004FF000013EE700BF42004FEAE2014FEA1E
:1028000031014FEA02701FBF12F07F4393F07F4FF8
:1028100081F06051704732F07F4208BF704793F0FB
:102820007F4F04BF41F40021704730B54FF460740E
:1028300001F0004521F000411CE700BF50EA010211
:1028400008BF704730B54FF000050AE050EA0102BA
:1028500008BF704730B511F0004502D5404261EB2A
:1028600041014FF4806404F132045FEA915C3FF46B
:10287000D8AE4FF003025FEADC0C18BF03325FEA08
:10288000DC0C18BF033202EBDC02C2F1200300FAB9
:1028900003FC20FA02F001FA03FE40EA0E0021FADE
:1028A00002F11444BDE600BF4FEA4102B2F1E04339
:1028B00024BFB3F5001CDCF1FE5C0DD901F0004C27
:1028C0004FEAC0024CEA5070B2F1004F40EB830077
:1028D00008BF20F00100704711F0804F21D113F1A3
:1028E0003872BCBF01F00040704741F480114FEADC
:1028F0005252C2F11802C2F1200C10FA0CF320FA65
:1029000002F018BF40F001004FEAC1234FEAD32381
:1029100003FA0CFC40EA0C0023FA02F34FEA4303EB
:10292000CCE77FEA625307D150EA01331EBF4FF074
:10293000FE4040F44000704701F0004040F0FE408F
:1029400040F40000704700BF2DE9F84382EAE274CA
:10295000A4EBE2741546E20706460F4653BF4FF05C
:10296000000880468946DFF84C90640813D03B4647
:1029700032463046394600F001FBE30706460F4673
:10298000F3D54046494632463B4600F0F7FA640824
:1029900080468946EBD1002D07DA42464B4600209F
:1029A000044900F0D3FA8046894640464946BDE8CE
:1029B000F88300BF0000F03F05B508461A460ABD7F
:1029C00000B500F004F8FFF7F7FF10BCA646C20DF3
:1029D0004002400A0124E4052043FF2AD2B200D974
:1029E0004042013AFE2A01D27E3A70470028204632
:1029F00000D540427E3A920080327047C40FE4070F
:102A000004D5002D00D00130404203D4013A001813
:102A100012D0FBD5813201D1803005D2803003D273
:102A2000002D0FD04000013AFE2A06DA013207DD00
:102A3000400AD205104320437047FF20C005FAE743
:102A4000002070470506EDD1400A8002EBE700B593
:102A5000FFF7B6FF80018901D41A07DA1A46054646
:102A600064422041202C07D3002000BD0D462141A7
:102A7000202C01D3002100BD64422034A54000BDBC
:102A80000122D207514030B5FFF7E1FF401803D1D2
:102A9000C82A01DB01204007FFF7B0FF30BD83B239
:102AA0000C14634304148DB26C431B1984B26C4341
:102AB0002504240C1B19001409144843C002D9062C
:102AC0000D435911401870470122D307184200D016
:102AD000181A194200D0591A401A02D000DC52428A
:102AE0001046704730B5FFF76BFF1A440432FFF70A
:102AF000D6FFD1E730B5FFF763FF0125002801D5E8
:102B0000404249420024002901D54942E443C82BF0
:102B10000EDA5242C82A0BDAD2184023091A00D220
:102B200001445B410944F9D318016040B4E7002433
:102B30000846FF22F9E730B5FFF742FF002801D52C
:102B400040424942C82BF2DA5242C82AEFDAD21880
:102B500023A4030DE45CA300434324025B156343F9
:102B60001B13E41A2346444324145C431B02E4135E
:102B70001B1BDC014343DB13200C43431B14E01AF3
:102B800007300009B3E730B5FFF721FF0100CED4CD
:102B9000501000D34900043214A44B0DE45CC80962
:102BA000604360430013604340132402241A20460C
:102BB0004043000CCB095843001360434015241ACE
:102BC00020464043030B4B430005000D0D0B6843AB
:102BD0001844C013604364030014201A5210CFD36A
:102BE00040084900CCE7C046F1D8C3B2A4988D8410
:102BF000F1DAC9BBB0A69E97918B8682002110B5F1
:102C0000FFF7E5FE0A44173A07DB072A17DDC1176D
:102C1000C9430120C007484010BD5242202A00DBB2
:102C20002022104110BD002110B5FFF7D0FE0A444C
:102C30000100F0D4173AF0DBC143082AEBDC9040E6
:102C400010BD002130B51D22521A002524E70021B5
:102C500030B50028F7DA1E22521AC50740081BE7D4
:102C6000474680B40025A0460DE0002902DC05E0BF
:102C7000002A03DA891B7F42121901E08919121B0D
:102C800044466743C01B1C680433640800D2013506
:102C900006462E410F462F4164087047C0B5FFF726
:102CA000DFFFFFF7E5FFFCD386138F13D2105643E7
:102CB00057434446674336133F13C01B891980BCF2
:102CC000B846C0BDC0B5FFF7CBFFFFF7CEFFFCD3C2
:102CD000002902DC8919121B01E0891B12197610E8
:102CE0006410F5D1EBE730B51821FFF788FF484CA9
:102CF0002409001BFDDA0019FDD4820065003E485E
:102D00000021A24202DB521B4042FAE7D20040A35C
:102D10000124FFF7C3FF0931002200230025FFF73C
:102D20006DFEFFF749FE90E700B5FFF7DCFF0846B0
:102D300000BD30B5FFF7D7FFFEE630B51821FFF72D
:102D40005EFF01142D4A5143C9140131491002B4E8
:102D500042012B484143521A2A48002139A3CC434F
:102D6000FFF79CFF084404BC6FE730B5FFF72FFE68
:102D7000010015D42449FFF792FE511001D301310F
:102D8000401002B40146204B9B00C018C91A002213
:102D90002CA3D443FFF796FF114604BC130054E75D
:102DA000FF22FBE730B5FFF7E0FF462B0ADC5B4272
:102DB000462B06DC1548584308310911081A05222C
:102DC00043E7C043FF2240E730B5FFF740FE002253
:102DD000002802DA404249420D4A0DA30124FFF7C0
:102DE00071FF10460A4A841802D2841A00D4A01A2D
:102DF0000138002229E7C046B49D6E131517000064
:102E0000FF422E16CA159E2CB9C2930530E462010A
:102E100051ED87640CCE583BF8755B1F4CDDEA0F13
:102E2000EC56FD07B8AAFF0354F5FF01ACFEFF0006
:102E3000D4FF7F00FCFF3F00FCFF1F0000001000DC
:102E400002000800ECA94F46EDA94F46F45DB12001
:102E50001C89151044AC020845AC020864550004F6
:102E6000AC0A0002540100012C0080000400400064
:102E7000040020000000100000000800030008000B
:102E8000F8B52F4D024695F822400B46013485F8DF
:102E9000224006460F4600F037F998B939463046C9
:102EA000FFF702FD4FF07E510446FFF70DFE10B90B
:102EB00000200021F8BD4FF07E512046FFF704FEB0
:102EC000002802DD00201F49F8BD1F492046FFF7FA
:102ED000FBFD0028F6DB1C492046FFF7F5FD18B97D
:102EE00015A1D1E90001F8BD21462046FFF7FAFD02
:102EF00001464FF07E50FFF7C3FDFFF744FE214629
:102F000006464FF07E50FFF7BEFDFFF775FC044606
:102F10000D463046FFF770FC22462B4600F00EFAB5
:102F2000FFF7C2FC01464FF08040FFF7DBFDFFF7E3
:102F300063FCF8BDAFF30080182D4454FB21094019
:102F40005C0600200000F87F000080BFF8B50A4D45
:102F500006466C78104601340F466C701946FFF730
:102F6000A3FC044639463046FFF79EFC2146FFF796
:102F7000E2FDFFF741FCF8BD5C060020F8B50A4D04
:102F80000646AC78104601340F46AC701946FFF780
:102F90008BFC044639463046FFF786FC2146FFF796
:102FA000A1FDFFF729FCF8BD5C060020F8B50A4D2D
:102FB0000646EC78104601340F46EC701946FFF7D0
:102FC00073FC044639463046FFF76EFC2146FFF796
:102FD0005AFDFFF711FCF8BD5C060020F8B50A4D5C
:102FE00006462C79104601340F462C711946FFF71E
:102FF0005BFC044639463046FFF756FC2146FFF796
:103000003FFDFFF7F9FBF8BD5C060020F8B50B4D5E
:1030100006466C79104601340F466C711946FFF76D
:1030200043FC044639463046FFF73EFC2146FFF795
:103030004BFDB0FA80F04009F8BD00BF5C060020EF
:10304000F8B50A4D0646AC79104601340F46AC710E
:103050001946FFF729FC044639463046FFF724FCA1
:103060002146FFF731FDC00FF8BD00BF5C06002010
:10307000F8B50B4D0646EC79104601340F46EC715D
:103080001946FFF711FC044639463046FFF70CFCA1
:103090002146FFF719FD0028CCBF00200120F8BD14
:1030A0005C060020F8B50A4D06462C7A104601341D
:1030B0000F462C721946FFF7F7FB04463946304697
:1030C000FFF7F2FB2146FFF7FFFCC043C00FF8BD3E
:1030D0005C060020F8B50B4D06466C7A10460134AC
:1030E0000F466C721946FFF7DFFB0446394630463F
:1030F000FFF7DAFB2146FFF7E7FC0028D4BF0020EA
:103100000120F8BD5C060020F8B50B4D0646AC7AF0
:10311000104601340F46AC721946FFF7C5FB044652
:1031200039463046FFF7C0FB2146FFF7CDFC0030A3
:1031300018BF0120F8BD00BF5C06002010B5094A89
:10314000D37B0133D373FFF7AFFB00210446FFF7B6
:10315000BBFC00B910BD2046FFF750FD0028B8BFEA
:10316000013010BD5C06002010B50C4A137C013301
:103170001374FFF799FB00210446FFF7A5FC08B97B
:10318000002010BD00212046FFF79EFC0028F7DB41
:103190002046BDE81040FFF746BD00BF5C0600209A
:1031A00008B5054A537D01335375FFF77DFBFFF7E3
:1031B000EAFCFFF721FB08BD5C06002008B5054AC4
:1031C000937D01339375FFF76FFBFFF7EBFDFFF77F
:1031D00013FB08BD5C06002008B5054AD37D01330A
:1031E000D375FFF761FBFFF7A8FDFFF705FB08BDEF
:1031F0005C06002008B5074A137E01331376FFF7FB
:1032000053FBFFF7CFFD0449FFF76CFCFFF7F4FA1F
:1032100008BD00BF5C0600203BAAB83F08B5074ABE
:10322000537E01335376FFF73FFBFFF7BBFD0449A5
:10323000FFF758FCFFF7E0FA08BD00BF5C0600206E
:10324000D95BDE3EF8B5214C1F46A37E16460133FE
:10325000A376FFF729FB00210446FFF735FC002881
:1032600010DB2046FFF79EFD394604463046FFF747
:103270001BFB01462046FFF735FCFFF75EFDFFF71D
:10328000BBFAF8BD39463046FFF70EFB0021054674
:10329000FFF71AFC0028E4DA05F10040FFF7AEFC66
:1032A000002800F00100B8BF40420128D9D104F144
:1032B0000040FFF777FD2946FFF714FCFFF73DFDBF
:1032C00000F10040FFF798FAF8BD00BF5C0600204F
:1032D00008B5054A137F01331377FFF7E5FAFFF7C7
:1032E00002FDFFF789FA08BD5C06002010B50A4A06
:1032F000537F01335377FFF7D7FA08490446FFF7A6
:10330000E3FB10B90020002110BD2046FFF70CFDA3
:10331000FFF772FA10BD00BF5C060020DB0FC93F4B
:1033200008B5054A937F01339377FFF7BDFAFFF79E
:1033300000FDFFF761FA08BD5C060020F8B5134CEC
:103340001F46E37F16460133E377FFF7ADFA00210E
:103350000446FFF7B9FB58B130463946FFF7A4FAE7
:10336000054629462046FFF72FFDFFF745FAF8BD31
:1033700039463046FFF798FA00210546FFF7A4FBCF
:103380000028EED100200021F8BD00BF5C0600201F
:103390002DE9F047244F024697F820600B4601368E
:1033A00087F8206004460D46FFF7AEFE70BB294645
:1033B0002046FFF779FA00210746FFF785FB08B39F
:1033C00025F00046204631464FF0FF32174BFFF7FD
:1033D0009BFE38B9204631464FF0FF32134BFFF7C2
:1033E00047FE38B120462946BDE8F0470022104B81
:1033F000FFF7A4BF00213846FFF766FB00280BDD6E
:103400000C4C0D4D20462946BDE8F08700240B4D9D
:1034100020462946BDE8F08738460021FFF754FBD7
:103420000028DFDAECE700BF5C060020FFFFEF7F3B
:103430000000F03F182D4454FB21F93F0000F87FB5
:103440002DE9F041204F024697F821600B460136E6
:1034500087F8216004460D46FFF756FE98B92946C5
:103460002046FFF721FA00210646FFF72DFB18B989
:1034700020462946BDE8F0814FF07E513046FFF7E7
:1034800023FB002805DD0024104D20462946BDE819
:10349000F0810F493046FFF717FB0028F3DB314678
:1034A0003046FFF71FFB01464FF07E50FFF7E8FA6A
:1034B000FFF769FBFFF7A0F902460B4620462946B5
:1034C000BDE8F041FFF73ABF5C0600200000F87F3E
:1034D000000080BF2DE9F843254F024697F823608E
:1034E0000B46013687F8236004460D46FFF70CFEB5
:1034F000B8BB29462046FFF7D7F900210646FFF75B
:10350000E3FA88B125F00047204639464FF0FF32F4
:10351000184BFFF7F9FD58B9204639464FF0FF32F6
:10352000144BFFF7A5FD18B920462946BDE8F883DE
:103530003046FFF702FC044606F10040FFF7FDFBB2
:1035400001462046FFF79CFA01464FF07C50FFF7FA
:10355000C9FAFFF751F904460D4620462946BDE851
:10356000F8830024044D20462946BDE8F88300BFB7
:103570005C060020FFFFEF7F0000F87F2DE9F84395
:10358000234F024697F824600B46013687F82460E3
:1035900005460C46FFF7B8FDB0BB21462846FFF7AD
:1035A00083F900210646FFF78FFAA8B124F00047FF
:1035B000284639464FF0FF32164BFFF7A5FD70B98C
:1035C000284639464FF0FF32124BFFF751FD30B914
:1035D00028462146BDE8F8830F49BDE8F883304608
:1035E000FFF7ABFB044606F10040FFF7A6FB0146E0
:1035F0002046FFF748FA01464FF07C50FFF772FA79
:10360000FFF7FAF8BDE8F88300200449BDE8F88325
:103610005C060020FFFFEF7F0000F03F0000F87F16
:103620002DE9F843284F024697F825600B460136EE
:1036300087F8256004460D46FFF766FD00283ED159
:1036400029462046FFF730F900210646FFF73CFAED
:10365000A8B125F00045204629464FF0FF321B4B0C
:10366000FFF752FD78B9204629464FF0FF32174B3D
:10367000FFF7FEFC38B9164D2946BDE8F883204611
:103680002946BDE8F88331464FF08040FFF72AFA1B
:10369000FFF753FB4FF07E510546FFF7F1F94FF06E
:1036A0007E5104462846FFF7EEF901462046FFF713
:1036B00042FAFFF7A1F80D462946BDE8F883054D0B
:1036C00000202946BDE8F8835C060020FFFFEF7F5D
:1036D0000000F03F0000F87F2DE9F843244F024638
:1036E00097F826600B46013687F8266004460D469B
:1036F000FFF70AFDB0BB29462046FFF7D5F80021A9
:103700000746FFF7E1F988B125F00046204631462B
:103710004FF0FF32174BFFF7F7FC58B92046314600
:103720004FF0FF32134BFFF7A3FC18B92046294690
:10373000BDE8F88339463846FFF7D4F94FF07E519B
:10374000FFF7A1F9FFF71FFA01463846FFF79BF98B
:10375000FFF728FBFFF750F804460D4620462946A0
:10376000BDE8F8830024044D20462946BDE8F883CF
:103770005C060020FFFFEF7F0000F87F2DE9F84393
:10378000264F024697F827600B46013687F82760D8
:1037900005460C46FFF7B8FC30BB21462846FFF72C
:1037A00083F84FF07E510646FFF78EF900281BDBA9
:1037B0004FF07E513046FFF787F960B324F00047A1
:1037C000284639464FF0FF32154BFFF79DFC78B97C
:1037D000284639464FF0FF32114BFFF749FC38B904
:1037E00028462146BDE8F88300200E49BDE8F8834D
:1037F00031463046FFF776F94FF07E51FFF740F93A
:10380000FFF7C1F901463046FFF73DF9FFF7CAFA65
:10381000FEF7F2FFEAE70146BDE8F8835C06002008
:10382000FFFFEF7F0000F87FF8B52C4F024697F8B6
:1038300028600B46013687F8286004460D46FFF7DE
:1038400063FCF0B929462046FFF72EF80021064612
:10385000FFF73AF910B920462946F8BD4FF07E51DE
:103860003046FFF731F920B900241D4D2046294686
:10387000F8BD1C493046FFF727F938B900241A4D26
:10388000E9E70024194D20462946F8BD4FF07E5146
:103890003046FFF719F90028F3DC12493046FFF7EC
:1038A00013F90028EDDB31464FF07E50FFF7EBF8BF
:1038B000314604464FF07E50FFF7E2F801462046BD
:1038C000FFF739F9FFF76EFA01464FF07C50FFF72A
:1038D00009F9FEF791FF04460D46BCE75C0600209F
:1038E0000000F07F000080BF0000F0FF0000F87FC4
:1038F0002DE9F8431E4F024697F829600B46013622
:1039000087F8296004460D46FFF7FEFB68BB25F0EB
:103910000046204631464FF0FF32164BFFF7F4FBCE
:1039200058B9204631464FF0FF32124BFFF7A0FB4B
:1039300018B920462946BDE8F88329462046FEF7F7
:10394000B3FF00210646FFF7BFF80028F1D030464C
:10395000FFF754F9031EB8BF581CFEF73BFF04469F
:103960000D4620462946BDE8F8830024024DE0E7D5
:103970005C060020FFFFEF7F0000F87F2DE9F84391
:103980001D4F024697F82A600B46013687F82A60D9
:1039900004460D46FFF7B8FB50BB25F00046204615
:1039A00031464FF0FF32154BFFF7AEFB58B92046BA
:1039B00031464FF0FF32114BFFF75AFB18B9204642
:1039C0002946BDE8F88329462046FEF76DFF002111
:1039D0000646FFF779F80028F1D03046FFF70EF9D8
:1039E000FEF7F8FE04460D4620462946BDE8F8835A
:1039F0000024034DE3E700BF5C060020FFFFEF7FDC
:103A00000000F87F2DE9F8431D4F024697F82B6020
:103A10000B46013687F82B6004460D46FFF774FB12
:103A200058BB25F00046204631464FF0FF32154B7B
:103A3000FFF76AFB58B9204631464FF0FF32114B71
:103A4000FFF716FB18B920462946BDE8F88329463A
:103A50002046FEF729FF00210646FFF735F800282B
:103A6000F1D03046FFF7CAF80130FEF7B3FE044646
:103A70000D4620462946BDE8F8830024024DE2E7C2
:103A80005C060020FFFFEF7F0000F87FDFF834C105
:103A90002DE9F0479CF82C60924601361F460246FD
:103AA0000B468CF82C6005460C46FFF72DFB10BB2F
:103AB000524650463B463946FFF726FBD8B92146C9
:103AC0002846FEF7F1FE00218046FEF7FDFF064680
:103AD00098B324F00046284631464FF0FF32374B6A
:103AE000FFF712FB58B9284631464FF0FF32334BEF
:103AF000FFF7BEFA18B900203149BDE8F087394612
:103B00005046FEF7D1FE0021FEF7DEFF0028F2D07E
:103B100027F00047504639464FF0FF32274BFFF75A
:103B2000F3FAB8B9504639464FF0FF32234BFFF74E
:103B30009FFA78B928462146DFE739465046FEF716
:103B4000B3FE0021FEF7C0FF0028C2D03046314648
:103B5000BDE8F08728463146FEF7A6FE3946044602
:103B60005046FEF7A1FE054601462046FEF7E3FF5C
:103B7000FEF742FEFFF7BCFEFEF796FE2946FEF773
:103B8000B1FF01462046FEF77BFF00210446FEF709
:103B90009BFF00280BDB40460021FEF795FF002825
:103BA000B8BF04F100442046FEF726FEA5E72046F4
:103BB0002946FEF768FF0446EDE700BFFFFFEF7FF1
:103BC0000000F87F5C0600202DE9F0470D46844692
:103BD00037482F4617F8014B265C16F0080634D1FB
:103BE0002D2C34D14FF0010E6C78AF1C002B5BD024
:103BF000102B09D1302C07D1387800F0DF0058287D
:103C00004DD110237C780237BEF1000F14BF4FF066
:103C100000486FF000480026B8FBF3F9304603FB7C
:103C2000198AA4F13005092D17D82C46A34223DDAB
:103C3000751C07D081451CD301D1A24519DB012693
:103C400000FB034017F8014BEBE73D46C1E72B2C87
:103C500004BFAF1C6C78B646C8E7A4F14105192D26
:103C600001D8373CE2E7A4F16105192D04D8573C8F
:103C7000DCE74FF0FF36E5E7731C06D12223404610
:103C8000CCF8003042B9BDE8F087BEF1000F00D09B
:103C90004042002AF7D006B1791E1160F3E73024C4
:103CA000002BB1D10823AFE7302CA5D00A23ABE716
:103CB0000F5F000813460A46014602480068FFF7F6
:103CC00083BF00BF680400200A44914200F1FF3323
:103CD00000D1704710B511F8014B914203F8014F24
:103CE000F9D110BD10F8012B11F8013B012A28BFB2
:103CF0009A42F7D0D01A7047034613F8012B002AD6
:103D0000FBD1181A0138704730B50024A24201D106
:103D1000002007E0035D01340D1915F8015CAB428A
:103D2000F4D0581B30BD884210B501EB020307D810
:103D3000421E99420AD011F8014B02F8014FF8E7F0
:103D40008342F5D98118D21AD34200D110BD13F89D
:103D5000014D01F8014DF7E703460244934200D1BB
:103D6000704703F8011BF9E7F0B50C7864B103461E
:103D70001A7818465E1C0AB9104605E0944208D12C
:103D80000D4615F8012F02B9F0BD13F8017F9742D7
:103D9000F7D03346ECE770B50446013902B970BD7F
:103DA000234611F8015F561E03F8015B2DB9144438
:103DB000A342F4D003F8015BFAE71C463246EDE774
:103DC000B1F5007F21D2F8B5104D0B462A88044684
:103DD0000A44B2F5007F0E4F0BD309213E460D4A2F
:103DE000298007CA03C6298832801944B1F5007FAB
:103DF0000AD221461C4628881A463844FFF764FF39
:103E00002B8823449BB22B80F8BD7047A00800206C
:103E10008C060020246000082DE9F843DFF8649048
:103E2000164CB9F80060DFF85880B6B23C2E354623
:103E300028BF3C2504F1100754F8043B13B1294670
:103E400040469847BC42F7D136B1B9F800309D42A0
:103E500004D30023A9F80030BDE8F883B9F80020A6
:103E60000748521B4119FFF72FFFB9F800305D1BBF
:103E7000ADB2A9F80050BDE8F88300BF900800205B
:103E80008C060020A008002010B50446FFF734FF80
:103E900001462046BDE81040FFF792BF0122014BCA
:103EA0001A707047A20800200022014B1A70704758
:103EB000A2080020F0B1114A30B41346154602F1B1
:103EC000100453F8041B81420CD0A342F9D1002303
:103ED00052F8041B49B10133042BF9D130BC4FF027
:103EE000FF307047002030BC704745F8230008467B
:103EF00030BC70474FF0FF30704700BF9008002083
:103F0000064B1B7823B1064B1B889BB21BB970472D
:103F1000034A13807047FFF77FBF00BFA20800204D
:103F2000A008002070B564240A4D0B4E02E02B80DF
:103F3000013C0DD02B889BB253B13378002BF6D0C7
:103F40002B889BB2002BF3D0FFF766FF013CF1D129
:103F500070BD00BFA0080020A2080020F0B50A2113
:103F600000251D4A1D4F85B0B0FBF2F404F130036B
:103F7000DBB2392B2AD8A7FB02C6302B02FB140078
:103F80004FEAD60200D835B10A2D04DC04AC2C442B
:103F900004F80C3C01350139E6D1A5B930230125DF
:103FA0008DF80430002304AA154405F80C3C0023C6
:103FB00001A88DF80E30FFF79FFE014601A8FFF71C
:103FC000FFFE05B0F0BD0A2DF1DCEBE70448FFF77A
:103FD0005BFF05B0F0BD00BF00CA9A3BCDCCCCCC96
:103FE00018600008031E0DD001DBFFF7B7BF10B546
:103FF0001C4606480121FFF7E3FE6042BDE8104081
:10400000FFF7ACBF01210248FFF7DABE14600008D9
:1040100010600008037803B97047FFF735BF00BF91
:1040200008B503780BB1FFF72FFFBDE80840022168
:104030000148FFF7C5BE00BF3060000808B5FFF7B4
:10404000D1FFBDE8084002210148FFF7B9BE00BF1B
:1040500030600008FFF7C6BFFFF780BF00B5030957
:1040600003F13002392AC8BF03F1570283B0C8BF39
:1040700052B28DF80420002200F00F0000F130034E
:10408000392BC4BF573043B201A88DF805308DF8E5
:104090000620FFF731FE014601A8FFF791FE03B0AD
:1040A0005DF804FB10B50446000EFFF7D7FFC4F31C
:1040B0000740FFF7D3FFC4F30720FFF7CFFFE0B2BD
:1040C000BDE81040FFF7CABF08B5FCF737FF00F0A6
:1040D00031F80E4B1B78A3B100F03CF800F04AF821
:1040E00000F040F800F046F800F034F800F042F834
:1040F00000F038F800F03EF80548FFF791FF00F0B7
:1041000029F8BDE80840FCF71FBD00BFB408002037
:10411000346000080122024B1A70FFF7BFBE00BFD7
:10412000B40800204FF47A70FCF7E6BC05F088BBB9
:1041300005F0AEBA10B54FF44170FCF705FEBDE8CE
:1041400010404FF40053002202210148FCF754BEF6
:10415000001001404FF400510148FCF7E1BD00BFE1
:10416000001001404FF400510148FCF7D7BD00BFDB
:1041700000100140024B00BF013BFCD1704700BF63
:1041800060E3160038B53B4B3B4D3C4A1C78286039
:10419000116004B138BD012539481D70FFF740FF9B
:1041A000FCF778FE2046FDF7EBFF2846FDF7E8FF19
:1041B0000220FDF7E5FF3348FFF732FFFFF7A0FECF
:1041C0004FF46770FCF7C0FD40F29B30FCF7BCFD7C
:1041D000FCF7AAFD0520FCF765FE2B4D2B4B1C6060
:1041E0002C60FCF757FEFDF719FF4FF6FF73284AC6
:1041F0002848294904600C60146044614B61D36015
:10420000FDF718FF2A462B6823F008032B6013687C
:104210001B07FCD52020FDF739FF2048FFF700FFE2
:10422000FFF76EFE0020FDF75DFF4FF0FF30FDF75A
:104230000DFF00214FF40030FDF7B4FE4FF40030C5
:10424000FDF7D8FE0320FDF79FFE2920FDF79CFE19
:1042500072B60020FDF7C2FF0120FDF7BFFF02206C
:10426000FDF7BCFF0020FDF75DFF0120FDF75AFFC1
:1042700062B638BDB5080020A8080020AC080020B0
:1042800050600008686000080428004000280040D2
:1042900018280040082800400C28004078600008DA
:1042A00010B50A4B82B01B6804465BB1FDF70EFFE8
:1042B0000190FCF739FD0198204402B0BDE81040A0
:1042C000FDF7C4BE0248FFF7A5FEEFE7AC080020EB
:1042D00048600008FDF7FABE08B50548FFF7A0FEE4
:1042E000FFF70EFE0122034B00201A7008BD00BF2D
:1042F000046100088C0B002008B5084B186850B109
:10430000FCF70EFF00F07CFB054B064A18601968AD
:104310001160186808BD4FF0FF3008BDE0080020AC
:10432000D8080020CC0800202DE9F84F744B83F307
:10433000088800247349DFF830824B1EC8F800104B
:1043400001F24F1203F8014F9342FBD16E4F6F4AB7
:10435000DFF81892DFF818A2DFF818B2D2E90032BD
:1043600038460B604A604B46524659463C60FCF763
:104370009DF9674D28606748FFF74CFE2B68002BBE
:104380007BD16548FFF746FE3868FFF78BFE634830
:10439000FFF740FEDBF80000FFF784FE6048FFF700
:1043A00039FEDAF80000FFF77DFE5E48FFF732FEC7
:1043B000D9F80000FFF776FEFFF7B4FD5A48FFF783
:1043C00029FE3B681868FFF76DFEFFF7ABFD574805
:1043D000FFF726FEFFF7A6FD2E68002E4BD13B68A7
:1043E000002B48D00122524CDBF800C0DAF8000064
:1043F000D9F80010C4F800C06060A1606673A673AD
:10440000E6736674A674E67422732274984763692F
:10441000002B2B605EDD4748FFF7FCFD2868FFF7A7
:1044200041FE4548FFF7FCFDFFF77CFD4348FFF7E1
:10443000F1FDD8F80000FFF735FE3A48FFF7EAFD36
:104440004FF4A870FFF72EFE3848FFF7E9FDFFF79D
:1044500069FDFFF729FDBFF35F8F394BD8F80020C6
:104460001A60BFF34F8F3B6826746674A674E674B7
:10447000984763692B60BDE8F88F3248FFF7CAFDA3
:104480002868FFF7E7FD3048FFF7C4FD2B68DA1C0A
:1044900033D02E48254A13F1040F18BF1046FFF7FA
:1044A000B9FD234B9869FFF7FDFD2B6804338ED1CE
:1044B0002748FFF7AFFD274820F47F7020F0030066
:1044C000FFF7F0FD2448FFF7A5FDD9F80000FFF73E
:1044D000E9FD7CE72148FFF79DFD2868FFF7BAFD5D
:1044E0001F48FFF79DFDA069FFF7DCFD0F48FFF7B0
:1044F00097FDBDE8F84FFFF715BD1A48CFE700BF9D
:10450000BC470020BC470020B8080020000000087D
:10451000BC080020286100086061000838610008BC
:10452000406100084861000850610008905E000882
:10453000000000208061000898610008B461000854
:1045400008ED00E05C6100081864000824610008C0
:10455000686100080174000874610008D0610008F7
:10456000EC61000818610008DC080020C008002089
:10457000D4080020C80800202DE9F04F494C89B02C
:1045800023681BB1012009B0BDE8F08F00F0B6FD33
:1045900001282DD04448FFF743FD00F0C3FD002360
:1045A00008AD05F81C3D4148FFF73AFD18212846A3
:1045B00000F048FE3E48FFF733FD284600F07CFA45
:1045C00000F09CFD022802D13A4B83F308883A4858
:1045D000FFF726FD00F0BEF9206000F08FFD0328F4
:1045E00009D13648FCF7F8FA002009B0BDE8F08F91
:1045F000FFF79AFECEE73248FFF712FDFFF780FC87
:10460000FFF77EFC2F4800F0DBFD4FF000094FF470
:10461000FA78DFF8CCB02C4F2C4EDFF8C8A02C4D28
:104620002068FCF77DFDDBF800300133B3F52F7F08
:10463000CBF80030F4D33B68CBF80090A5FB032007
:10464000400908FB1030312803F101038CBF002022
:1046500001203B6000F05AFD4FF47A713268A5FBEF
:1046600002039B0901FB132301323260002BD7D1D7
:1046700000F0C6F90028D3D1FFF742FC9AF80030C9
:10468000002BCDD01348FFF7CBFCFFF74BFC124BB0
:1046900000BF013BFCD11148FFF7C2FCFFF742FC11
:1046A000FCF734FBE00800208860000898600008F0
:1046B000B8600008BC470020D0600008F94200083C
:1046C000DC600008D9420008D00800206C040020FB
:1046D000D34D6210EC60000880969800FC600008E2
:1046E000C40800208C0B002008B500F069FD0020F4
:1046F00008BD00BF70B5254B254D1A682968254BAC
:104700001A604B1C0ED0244B1A780AB100221A7082
:10471000224E4FF480623046FFF7F6FA18B94FF098
:10472000FF332B6070BD1E48FFF774FC2868FFF74D
:10473000B9FC1C48FFF76EFC002304221A4C2968C0
:1047400023726660A372E37223736373A373E373CC
:1047500023746374A374E37421606272FBF704FD35
:104760006469002C03DD6410B4F5007FD7D00F48D6
:10477000FFF750FC2046FFF76DFC0D48FFF750FC9B
:10478000FFF7D0FB4FF0FF332B60CBE7E8080020AA
:1047900070040020E40800207C050020BC470020B5
:1047A000F46100081864000800000020F8610008A7
:1047B000905E0008B0F1006F2DE9F84F04460E46F8
:1047C00015463FD32C4B02449A423BD8B1F1006FBF
:1047D00038D36A189A4208D9B1F1005F32D303F195
:1047E000C053A3F530439A422CD8002D28DDDFF8C2
:1047F0008C90DFF89C80DFF89CA0B5F5806F2F4689
:10480000A8BF4FF48067D8F8002004EA0A0B93454C
:10481000A5EB070509D0FFF76DFF59464FF48062FD
:104820001648C8F800B0FFF74FFAC4F30900314644
:1048300048443A46FFF748FA002D3C443E44DCDC4D
:10484000BDE8F88F0E48FFF7E5FB2046FFF72AFC8E
:104850000C48FFF7DFFB3046FFF724FC0A48FFF760
:10486000D9FB2846FFF71EFC0848FFF7D9FBBDE837
:10487000F84FFFF757BB00BFFFFF0008BC47002001
:10488000146200084061000848610008905E00085A
:104890007004002000FCFFFF024B1A780AB90122C5
:1048A0001A7070478E0B0020094B1B686BB110B457
:1048B000084C24782CB10A4610BC0146184600F07A
:1048C00031BD4FF0FF3010BC70474FF0FF307047E4
:1048D000880900208D0B002008B5FFF7FBFC014B79
:1048E000186008BD68090020044B1A7802B17047AF
:1048F000012203481A70FFF7DDBA00BF8D0B0020BC
:10490000A9480008F8B54FF6FF73994205460BD049
:104910000E460D4C04F1280754F8043B23B13146F0
:1049200028469847BC42F7D1002228461146074B3B
:10493000FCF7DAFC002800DBF8BD0548FFF770FB48
:10494000BDE8F840FFF7DCBAEC0800209D4C0008F9
:104950009064000810B584B000F01CFC4FF4807126
:1049600009221B4B0291CDE900231A491A4B1B4A1D
:10497000FCF78EFB1A4C1B492060FCF7B3FB206848
:10498000194900F01FFD2068184901F013F920684B
:10499000174901F0D5F92068164900F045FA20685A
:1049A000002100F0EFFA20681349FCF7BFFF002850
:1049B00007DB20684FF6FF71FFF7A4FF206804B003
:1049C00010BD0E48FFF72CFBFFF79AFAF1E700BF86
:1049D0008C0A0020886300087C04002040630008E3
:1049E00088090020D9480008E948000899480008CB
:1049F000F062000844650008054900086065000889
:104A000010B5094C82B0206860B1FFF763FC0190DB
:104A10002368019A03F59C530833934296BF002004
:104A20000120206002B010BD6409002010B50C4CBC
:104A30000023224652F8040B78B1884203F10103A7
:104A400009D00A2BF6D10748FFF7EAFAFFF758FA20
:104A50004FF0FF3010BD002010BD44F8231010BDF2
:104A6000EC080020C8620008F8B5114F00253C464C
:104A70006068B0B1267801358E4204D166789642DE
:104A800001D198420BD00A2D04F10804F0D1094855
:104A9000FFF7C6FAFFF734FA4FF0FF30F8BD0020F9
:104AA000F8BD07EBC50407F8351062706360F8BD08
:104AB00014090020A062000810B50024044B1C70EB
:104AC00028B1014618221846FFF765F9047610BD93
:104AD0006C09002070B515460C46FFF79BFA0E488E
:104AE000FFF798FA2846FFF7B7FA0C48FFF792FA53
:104AF000002D0BDD013C084E254414F8010FFFF793
:104B0000ADFA3046FFF786FAAC42F6D1BDE8704008
:104B10000348FFF785BA00BF186400089C630008CB
:104B2000905E000870B50C46FFF774FA4948658836
:104B3000FFF770FA2078FFF791FA4748FFF76AFA13
:104B40006078FFF78BFA4548FFF764FA60882E0A11
:104B5000000AFFF783FA6088C0B2FFF77FFA404887
:104B6000FFF758FAA088000AFFF778FAA088C0B2C9
:104B7000FFF774FA3B48FFF74DFAE088000AFFF7A9
:104B80006DFAE088C0B2FFF769FA2378CBB9637891
:104B9000052B43D0092B0CBF33483448FFF73AFAB2
:104BA0003348FFF737FA3046FFF758FA3148FFF736
:104BB00031FAE8B2FFF752FABDE870402E48FFF72D
:104BC0002FBA802BF8D16378062BE3D12B48FFF75F
:104BD00021FA731E0E2BE3D801A252F823F000BF76
:104BE0004D4C0008454C00083D4C0008354C000871
:104BF0002D4C0008A14B0008A14B0008A14B000858
:104C0000A14B0008A14B0008A14B0008A14B0008D4
:104C1000A14B0008A14B0008254C00081848FFF7DD
:104C2000F9F9BDE71748FFF7F5F9B9E71648FFF7B7
:104C3000F1F9B5E71548FFF7EDF9B1E71448FFF7CB
:104C4000E9F9ADE71348FFF7E5F9A9E71248FFF7DF
:104C5000E1F9A5E7A0630008A8630008B0630008B5
:104C6000B8630008486100080C6400081C64000870
:104C70002064000824640008905E0008C0630008F7
:104C8000FC630008F4630008EC630008E4630008B8
:104C9000DC630008D4630008CC6300082DE9F04F02
:104CA0000C7883B00E46814692469846DDF830B0C7
:104CB00014B94B78052B31D0234C04F150076568AB
:104CC00095B16178337822780B409A4204F1080458
:104CD00008D1CDF800B04346524631464846A84771
:104CE000012814D9BC42EAD1FFF7F4FA0246174B67
:104CF00017481A60FFF78EF93378802B02D173784A
:104D0000062B07D013483146FFF70CFF022003B0F3
:104D1000BDE8F08F022003B0BDE8F08FFFF7DAFAAC
:104D200002460A4B0A481A60FFF774F90A48FFF76F
:104D300077F94346524631464846A8F8004003B04A
:104D4000BDE8F04FFCF70CBE1409002064090020F8
:104D5000F86000089C6200089462000808B57F2291
:104D6000064B4021FFF780FE002800DB08BD044809
:104D7000FFF756F9BDE80840FFF7C2B8854D0008B7
:104D8000D065000808784030C0B201281ED82DE94F
:104D9000F04148780C46222815D11D468B88022BFD
:104DA00016D14C880CB1012C17D01A48FFF732F9F4
:104DB0002046FFF751F91848FFF732F9FFF7A0F83E
:104DC0000020BDE8F0810220BDE8F081022070479C
:104DD0001248FFF71FF9A088EBE711481768FFF7A3
:104DE000A1FE104BD3F800804046FEF785FF032359
:104DF000C618F6B202467B703E70F8184146BC7089
:104E0000FEF762FF2B8820469E4228BF1E462E805A
:104E1000DAE700BF78650008905E00089C6500082E
:104E2000946500088C0900200F4A10B50F4B1160E3
:104E30007F2240210446FFF717FE00280DDB2046A5
:104E40000B49FFF7F3FD002800DB10BD0948FFF711
:104E5000E7F8BDE81040FFF753B80648FFF7E0F861
:104E6000FFF74EF8EBE700BF8C090020854D0008E6
:104E70005D4D0008F0650008F8B50D7805F14000BB
:104E8000C0B201280BD84878212808D1C02D1F4670
:104E900016468B8805D1072B24D0042B15D0022071
:104EA000F8BD052BFBD1154A4B88127CDBB29A4228
:104EB000F5D11348FFF736FE3B88124A922B28BFE4
:104EC0009223326001203B80F8BD0F48FFF72AFE95
:104ED0000A4A3B88116801208B4228BF0B4632608A
:104EE0003B80F8BD0948FFF71DFE3B88084AB22BFE
:104EF00028BFB223326001203B80F8BD540500205A
:104F0000C866000808660008C0660008B8660008A1
:104F1000A004002008B56022064B4021FFF7A4FD45
:104F2000002800DB08BD0448FFF77AF8BDE8084018
:104F3000FEF7E6BF794E0008D866000838B50C7851
:104F400014F0600F17D14C78062C14D14888040A4D
:104F5000032C10D1C0B2EE280DD11C4607481546CF
:104F6000FFF7E0FD2388064A122B28BF12232A6090
:104F70000120238038BD022038BD00BFD066000864
:104F800010670008114B70B5197411490446FFF7FA
:104F90004DFD104B0546602240212046FFF764FD81
:104FA0000D4B06461F2220460021FFF75DFD002D18
:104FB00004DB002E02DB002800DB70BD0748FFF792
:104FC0002FF8BDE87040FEF79BBF00BF54050020DE
:104FD000154F0008794E00083D4F0008F86600089C
:104FE00038B5374D2C6804F47F43B3F5354F15D0F1
:104FF00004F07F43B3F1354F10D03248FFF70AF881
:105000002846FFF74FF83048FFF704F82046FFF72F
:1050100049F82E48FFF704F8002503E02C48FEF776
:10502000FFFF0125002000F0C3FE002104460846D2
:1050300000F0A2FE274B9C4234D003F10E2303F56F
:105040007C039C4224D0244B9C420BD00023234C55
:10505000237065B92248FEF7E3FF0223214A184670
:10506000137038BD03231D4C2370002DF2D01E4851
:10507000FEF7D0FF2078154A1C4B032814BF1046BA
:105080001846FEF7CDFF0323164A1846137038BDA5
:105090000224124B16481C70FEF7C2FF114B20462B
:1050A0001C7038BD01240D4B124900201C7000F00B
:1050B00063FE1148FEF7B4FF0A4B20461C7038BD52
:1050C000007400083C6700084C670008905E000808
:1050D00030670008424153452A72823F8F0B0020FF
:1050E00090670008900B0020B06700082467000854
:1050F00070670008424F4F5450670008024B187801
:1051000000B17047FFF76CBF900B00204FF40051C7
:1051100010B90348FBF702BE0148FBF701BE00BF10
:105120000010014008B540F20230FBF70DFE40F2DE
:105130000330FBF709FE4FF44170FBF705FE40F228
:105140009730FBF701FE4FF400510F48FBF7E6FDE7
:1051500001224FF4005311460B48FBF74DFE4FF46C
:105160008053002201210948FBF746FE1021064822
:10517000FBF7D6FD064B00BF013BFCD1044B00BF43
:10518000013BFCD108BD00BF0010014000080140F8
:10519000400D030008B540F21720FBF7E3FD4FF484
:1051A00080510448FBF7BCFD034B00BF013BFCD121
:1051B000024808BD0008014000350C00C05E000830
:1051C00010B504460548FEF725FF2046FEF76AFFA6
:1051D000BDE810400248FEF723BF00BFF467000897
:1051E000905E000808B50548FEF71AFFFEF79AFE24
:1051F0000349002000F0C0FDFBF788FDC8670008E8
:105200002A72823F08B50548FEF70AFFFEF78AFEBC
:105210000349002000F0B0FDFBF778FDD4670008DB
:105220004241534508B50548FEF7FAFEFEF77AFEFF
:105230000349002000F0A0FDFBF768FDE4670008CB
:10524000424F4F540131FBF79FBD00BF0148FEF7AD
:10525000E7BE00BF2468000810B5154A82B040239D
:105260000092032102220446FBF75EFF0023204642
:105270000093022240238321FBF756FF0D4B20466B
:105280000093032210238421FBF74EFF20460A4B94
:105290007F222121FFF7E8FB002801DB02B010BDCF
:1052A0000648FEF7BDFE02B0BDE81040FEF728BE7E
:1052B000795300084D520008C15200085468000894
:1052C00010B5497821290AD0222906D0202901D0F9
:1052D000022010BD1A88062A0AD9012010BD19889B
:1052E000062905D907210B4C01201460198010BD37
:1052F0001C460948FEF78EFE0720FEF7ADFE074864
:10530000FEF788FE2088FEF7A7FE0548FEF788FE18
:10531000002010BD746800082C680008486100086F
:10532000905E0008F8B5134B1B7803B30746F0B145
:105330000E46E1B1144692B1402A12D9402C2546BE
:1053400028BF402532462B4683213846FBF7F4FE22
:10535000641B8542A4B202D12E44002CEED1002061
:10536000F8BD13460A468321FBF7E6FEF8BD4FF071
:10537000FF30F8BD910B002070B50F4D40232A4639
:1053800003210646FBF7E0FEA8B1402828BF4020D5
:1053900000210A4B84B21A7829552AB90121084AFA
:1053A0001970136803B1984722463046BDE8704033
:1053B0000149FFF7B7BF70BD94090020910B002091
:1053C0009009002008B5074B19600749FFF72EFB2D
:1053D000002800DB08BD0548FEF722FEBDE80840B6
:1053E000FEF78EBD90090020595200080C68000895
:1053F00010B5044682B00B48FEF712FEFEF792FD90
:10540000094B20460093022240238221FBF78CFEA9
:105410000222064B2046009311464023FBF784FEF0
:1054200002B010BD586A0008655B000829550008E5
:105430002DE9F04182B00191054616460021402237
:105440002A48FEF789FC72B6019B1BB962B602B00E
:10545000BDE8F081019B3E2B34DD3F24402E08BF88
:105460002346274618BF46EA0403DFF88080224619
:105470004046294600F8013BFEF726FC019B1B1B1A
:10548000019362B61A4B4246186882214023FBF70B
:1054900053FE019B23B3174B2C441C600199164A01
:1054A000164B022F11601E7012DD1548FEF7B2FD7B
:1054B000781CC0B2FEF7D2FD124802B0BDE8F04140
:1054C000FEF7AEBD019C46EA0403DBB22746CCE7FB
:1054D00006490D487A1C02B0BDE8F041FFF7FABA60
:1054E000054A022F1360E0DCF2E700BF480A002003
:1054F000D8090020FC090020000A0020940B00209D
:10550000A06A0008905E0008986A000810B504467A
:105510000448FEF77FFD2046FEF782FDBDE81040FF
:10552000FEF700BD7C6800082DE9F04FA44C402335
:105530008DB02246FBF708FE0546FEF7CBFEA14BD9
:105540001860D5B1A04F26783C68ACB32088B8B9B4
:1055500006F03F0904F1020840444A469B49FEF721
:10556000B3FB258816F0C0064D44ADB2258004D0AB
:10557000402E2AD00023237063700DB0BDE8F08F59
:1055800032060CD406F03F0909EB0003B3F5886F2F
:10559000E0DD8F48FFF7BAFF3C682088DAE78C48E7
:1055A000FFF7B4FF3C6806F03F09208809EB0003D1
:1055B000B3F5886FEDDCCDE7FFF7A0FD854C864B9A
:1055C000022808BF1C463C60C0E7844B1A7832B9F9
:1055D0000121834A197013680BB19847258800226E
:1055E000D4F80260E188731E227162716180072B1A
:1055F00000F25881DFE813F01E01C400BA00A900D0
:1056000095002900560108007648FEF709FDFEF7CF
:1056100089FCFFF773FD032800F0BE81102D02D036
:105620007148FFF773FFD4F80E50D4F80A10AD009C
:105630002A46A01D0435FEF747FB09950999404607
:105640004022FFF7F5FE3C6894E7FFF757FD03287B
:1056500000F07E81D4F80A50B4F800A0B5F1006FD4
:10566000C0F073816149624B624A05F5807B8B45CE
:1056700094BF9B469346604ED4F802203368DFF80F
:10568000A8919A4214BF5D485D48C9F80020FEF712
:10569000C1FC2846FEF706FD5846FEF7BBFC594AFA
:1056A0001378591C9B07117000F0738104230B932E
:1056B000D9F80030DFF8749140460B9940223360EE
:1056C000DFF86C81FFF7B4FED9F81060D8F800302D
:1056D00026F47F7626F0030606F1784B002B00F0C7
:1056E000F880B5F1006F00F0F480474A1168002996
:1056F00000F009819D42C0F01281AB4200F08E8122
:10570000BAF5867F02D03848FFF700FFB5F1006F89
:1057100005D3364B05F580729A4240F20D813C6804
:1057200028E73A48FEF77CFC042306930699404696
:105730004022FFF77DFEFEF7F5FBFFF7DFFC0328B5
:10574000EDD1FFF76FFD3C6814E73148FEF768FCC8
:1057500004230224039303992E4B404640221C70DD
:10576000FFF766FEFEF7DEFB3C6803E72A48FEF71C
:1057700057FCFEF7BFFF0423049303240499EBE7CF
:105780002648FEF74DFC2648FEF7B6FA05460028E7
:1057900000F0FB80542802D92248FFF7B7FE2A46C2
:1057A000A01D1F490435FEF78FFA08950899404659
:1057B0004022FFF73DFEFEF7B5FB3C68DAE600BF8E
:1057C000040A0020440A0020F4090020050A0020F1
:1057D00088680008A40C0020BC4B0020920B00201D
:1057E000E00900203C6A0008046A00080000010883
:1057F0001864000894680008F8090020FC68000894
:105800009C620008930B0020E8090020DC68000877
:10581000306A0008950B0020246A0008AC68000874
:105820003C620008C8680008DC090020500100083C
:10583000E4090020AF48FEF7F3FBFFF75FFC1821F7
:1058400002284FF0000318BF022640224FF0100E2E
:105850006FF01D0C4FF0010B4FF0040A4FF072096E
:105860005E250791A37223736373A3732374637418
:1058700023756375A27484F817E084F818C0C4F81F
:1058800006600799404684F80BB084F80FB084F89E
:1058900013A084F816906576FFF7CAFDFEF742FB69
:1058A0003C6867E69448FEF7B5FB3046FEF7D4FB4C
:1058B0009248FEF7B5FBFEF735FB042100220123D9
:1058C000029162710299404623714022FFF7B0FDB8
:1058D00025E78B48FEF7A4FBFEF724FB0020D9F850
:1058E0001030D9F80C1023F47F7222F00302C8F8AC
:1058F0000020844A03F178431360834B834A01F10B
:10590000784119601060C9F309033343186880496E
:10591000884246D0D8F800309D42BFF4F1AE5D44D5
:10592000B5F1006F25D37B4B05F580729A4220D8E4
:10593000BAF5867F7FF4E7AE04F10E0128464FF4F6
:105940008072FEF737FF3C6814E6DFF814B292E687
:105950007148FEF765FBFEF7E5FA04230224059380
:1059600005996E4B404640221C70FFF761FD3C6874
:1059700000E66B48FEF74EFB2846FEF793FB5F48B8
:10598000FEF74EFBFEF7CEFABAE66648FFF7BEFD1D
:1059900005E7FEF7B5FA89E604230A9302240A997B
:1059A000DFE7586960498842B4D1136001921969F0
:1059B000DFF8509121F47F7121F0030101F178406B
:1059C000C8F80010C9F80000DB684F4903F17843BC
:1059D00056480B600091FEF71DFBD8F80000FEF75B
:1059E00061FB5348FEF716FBD9F80000FEF75AFB9F
:1059F0005048FEF70FFB00990868FEF753FB3F483D
:105A0000FEF70EFBFEF78EFAD8F80030019A9D42A1
:105A100085D31268002A7FF470AE71E64648DFF83D
:105A2000E4800093FEF7FCFAFEF77CFAFEF762FED4
:105A30004248FEF7F5FAFEF775FAD8F800204FF065
:105A400000613046FEF760F990B93D48FEF7E2FA92
:105A50003046FEF727FB3B48FEF7DCFAD8F800009B
:105A6000FEF720FB2548FEF7DBFAFEF75BFA47E678
:105A7000009B35489B44FEF7D3FAFEF753FA3348B0
:105A8000FEF7C8FA204C5846FEF70CFB2D48FEF7EF
:105A9000C1FA2068FEF706FB1848FEF7C1FAFEF7C8
:105AA00041FA226831465846FEF784FEFEF722FE90
:105AB0002748FEF7AFFA5846FEF7F4FA2548FEF7F6
:105AC000A9FA2068FEF7EEFA2348FEF7A3FA30465B
:105AD000FEF7E8FA2148FEF79DFAD8F80000FEF735
