:020000040800F2
:100000000050002039060008C5050008C105000899
:10001000C1050008C1050008C10500080000000076
:10002000000000000000000000000000C5050008FE
:10003000C505000800000000C5050008C50500084A
:10004000C1050008C1050008C1050008D905000860
:10005000C1050008C1050008C1050008C105000868
:10006000C1050008C1050008C1050008C105000858
:10007000C1050008C1050008C1050008C105000848
:10008000C1050008C1050008C1050008C105000838
:10009000C1050008C1050008C1050008C105000828
:1000A000C1050008C1050008C1050008C105000818
:1000B000C1050008C1050008C1050008C105000808
:1000C000C1050008C1050008C1050008C1050008F8
:1000D000C1050008C1050008C1050008C1050008E8
:1000E000C105000809060008C1050008C10500088F
:1000F000C1050008C1050008C1050008C1050008C8
:10010000C1050008C1050008C1050008C1050008B7
:10011000C1050008C1050008C1050008C1050008A7
:10012000C1050008C1050008C1050008C105000897
:10013000C1050008C1050008C1050008C105000887
:10014000C1050008C1050008C1050008C105000877
:10015000691905220100010069010008C0050008B5
:10016000017000082205691900232DE9F04FAE4CFB
:1001700083B0D4F800C0E268BCF1006FC4E9043376
:10018000D4E901370092C0F0A980A8490CEB07021E
:100190008A4200F29C8003F17842B2F5803F80F001
:1001A000A480DA198A4200F23981009A7F08002A75
:1001B00000F0608172B600219D4A9E481160016086
:1001C0009D4A9E489E4910601160002F00F07F817B
:1001D0009C4A6546944500F274814FF0000AB94686
:1001E0005146A3EB0C030193974A984BDFF87CE24E
:1001F000974E0198AA4505EB000840F29C80A94261
:1002000000F2998011681888B0F5007F84BFDEF88D
:100210000000014301F0350106E010681F8800F07E
:100220003501B7F5007F76D8C807F6D41988B1F53F
:10023000007F76D987498D4273D98748016841F09C
:1002400001010160B8F80010298011681888B0F524
:10025000007F84BFDEF80000014301F0350106E0B5
:1002600010681F8800F03501B7F5007F4DD8C90729
:10027000F6D41988B1F5007F58D976498D4255D901
:100280007548016821F001010160B8F800002F886D
:10029000A91C874209D1B9F10109A1EB0C0000F0BA
:1002A000FC8068480D468142A3D9694A136843F02F
:1002B00080031360009B002B00F0F9804FF0FF30AB
:1002C000664B674A1A60206103B0BDE8F08F6FF09B
:1002D0000203C4E9043203B0BDE8F08F6FF00103FC
:1002E000C4E9043C03B0BDE8F08F03F16042B2F50D
:1002F000A04F80F08E805B49DA198A427FF655AFB5
:100300006FF00403C4E90432E5E7DEF800100843A7
:1003100000F03501ABE7DEF80010084300F03501CE
:1003200082E7316841F0010131608BE7316821F0EB
:1003300001013160A9E71168188825F47F77B0F5CD
:10034000007F88BFDEF8000027F0030788BF014365
:1003500007F5806A01F0350107E01068B3F800B0D6
:1003600000F03501BBF5007F3DD8C807F5D41988EA
:10037000B1F5007F3DD937498F423AD93649DFF888
:10038000F0B0086840F002000860CBF80070086820
:1003900040F04000086011681888B0F5007F84BF05
:1003A000DEF80000014301F0350107E01068B3F802
:1003B00000B000F03501BBF5007F0ED8C907F5D4B9
:1003C0001988B1F5007F1FD922498F421CD92248D4
:1003D000016821F00201016014E7DEF80010084313
:1003E00000F03501EAE7DEF80010084300F03501BF
:1003F000BBE731681C4841F0020131600760316899
:1004000041F040013160C6E7316821F002013160FE
:10041000F8E66FF00502C4E904235CE76FF003031C
:10042000C4E9043257E700BF0000002000000108C3
:1004300010E000E00810024004200240230167455C
:10044000AB89EFCDFFFF00080C200240E0F7FF1F53
:1004500010200240FFFF0708502002400CED00E092
:100460000400FA0500500020142002404C200240F5
:1004700054200240194A1A481A4910601160CFB13D
:10048000194A654694457FF6A8AE184A4FF0FF30EA
:10049000136843F08003136015E7144A136843F0B0
:1004A00080031360009B002B3FF40DAF08E74FF073
:1004B000FF3008E70D4A0098136843F0800313608B
:1004C00001E70A4A136843F080031360F6E6074A1F
:1004D0003846136843F080031360F1E604200240BD
:1004E00023016745AB89EFCDFFFF000810200240D4
:1004F0002DE9F04300284BD0002949D0002A47D0ED
:10050000002B45D0274CDFF8B090274D04EA0907AF
:10051000C5F3090547EA0508D8F800E0234EB645BB
:100520002AD1234ED8F814C0B44525D1D8F810608C
:1005300004F5806406EA090606F17846DFF87C8057
:100540003444444529D807EB060845EA08042568E1
:10055000754516D16569654513D14FF0006C0025CE
:10056000A46808F1784844440460C1F800C01760EA
:100570001E602846BDE8F0830E4B6FF001055F61F9
:10058000F7E70C4A6FF00305C2F814801E60F0E72D
:10059000084B4FF0FF355861EBE7064B6FF0020553
:1005A0005E61E6E701700008500100086919052244
:1005B000220569190000002000FCFFFFFFFF000872
:1005C000FEE700BF704700BF024B1868C0F3080089
:1005D000704700BF04ED00E010B5002001F03AFDC7
:1005E00000B910BD002001F01BFD054A0549136844
:1005F0000968013313600029F3D0BDE810400847B3
:10060000880800208008002010B54FF4003001F069
:1006100021FC012001F004FD054A06491368096820
:100620000133136011B1BDE81040084710BD00BF91
:100630007C0800208408002038B53C4A3C4CA2428B
:100640000FD2D343154623443A4923F0030304331E
:100650000846194450F8044B884245F8044BF9D138
:100660001A44354B9A420DD20333111D5B1A23F005
:10067000030304330020134400E004319942106066
:100680000A46FAD12D4A2E4D13682E4C43F40073BE
:10069000136000F0C9F900F0F5F82B681BB92A4B7C
:1006A00022689A420CD0294803F0BEFB286803F068
:1006B00003FC274803F0B8FB206803F0FDFBFEE7CE
:1006C000244C25498C420BD2E3430B4423F0030313
:1006D000043325461C4455F8043B9847A542FAD1FB
:1006E0001E4C1F498C420BD2E3430B4423F00303FF
:1006F000043325461C4455F8043B9847A542FAD1DB
:1007000003F01CFD174C06F07BFC17498C420BD202
:10071000E3430B4423F00303043325461C4455F8FC
:10072000043B9847AC42FAD138BD00BF000000201E
:100730005805002048670008D40C002014ED00E0A4
:100740006C0B00201800002021436587985A000890
:10075000C05A000848670008486700084867000852
:100760004867000848670008486700082DE9F0411D
:10077000184E336833B39847174DDFF86C80286004
:100780002B68C8F800302B68002B02DD134803F0FB
:100790004BFB2B680027002B0DDD0A242F603368EC
:1007A00098472B68013C1843A4B22860002CF6D16E
:1007B0002B68002BF1DCD8F80030002B02DD084854
:1007C00003F032FB074B1B6803B19847BDE8F041CB
:1007D00001F074BC6805002058050020D05A0008BC
:1007E000D45A00085C05002064050020074B1B68F4
:1007F00003B1184710B503F077FCC72800D910BD26
:100800000348BDE8104003F00FBB00BF60050020A7
:10081000D85A000870B50446164803F005FB164880
:10082000FF26A0FB0430800903F020FB03F05CFCF2
:10083000124D044400E020BF03F056FC844210D95E
:1008400001F040FC0028F6D001F03CFC0028F2D07A
:100850002E7001F0A7FCFF28287007D001F048FD9A
:10086000E9E70748BDE8704003F0DEBA01F00AFC92
:10087000E1E700BF345B0008D34D6210740C002028
:100880003C5B000808B5084B1A7802B108BD01228C
:100890001A7003F023FB01F0F7FB04490448BDE89C
:1008A000084003F079BB00BF70050020ED07000889
:1008B0006D070008024B1B7803B120BF704700BFD3
:1008C0007005002010B1034B1B7803B97047FFF788
:1008D000A1BF00BF70050020054BA3FB00308009BD
:1008E00002D0044B1B7803B97047FFF793BF00BFDA
:1008F000D34D62107005002008B5034803F09AFA42
:1009000003F018FA00F024F9085B000862B670479B
:1009100072B6704708B5024803F08CFA002008BD93
:100920001C5B000808B5034803F084FA024B186802
:1009300008BD00BFDC5A0008147AFF1F08B5044642
:1009400072B6054803F070FA204603F081FA03F00E
:10095000F1F920BFFDE700BFF45A000800487047D6
:1009600000500020402008F06BBD00BF816370473D
:1009700041637047C1637047C06B704768467047FA
:10098000406B7047C0E900128360704738B5144B64
:1009900014481D68144C03F047FA284603F08CFAFB
:1009A000124803F041FA204603F086FA104803F09B
:1009B0003BFA601B800A03F0DBF90E4803F034FABF
:1009C0006B46C3F1005000F5A040800A03F0D0F957
:1009D000094803F02FFABDE8384003F0ABB900BF77
:1009E0001C000020405B000800480020505B00080D
:1009F000585B0008645B0008785B0008704700BF24
:100A000000207047014B1860704700BF5C05002054
:100A1000014B1860704700BF60050020014B186053
:100A2000704700BF6805002003F07EBA002815D08B
:100A3000006041608260C360046145618661C76196
:100A4000444604624C464462544684625C46C46236
:100A5000644604636E46466374468463002906D088
:100A6000C46B043C043925680D60B442F9D1946B21
:100A7000A646566BB546002B06D0D46B043C043B0F
:100A80001D682560B442F9D1146BA446D46AA3460C
:100A9000946AA246546AA146146AA046D769966928
:100AA00055691469D368516810689268704700608E
:100AB00041608260C360046145618661C7614446EC
:100AC00004624C464462544684625C46C462644696
:100AD00004636E46466374468463C46B043C043905
:100AE00025680D60B442F9D1C76986694569046912
:100AF0007047006041608260C36004614561866147
:100B0000C761444604624C464462544684625C4673
:100B1000C462644604636C46446374468463046937
:100B20007047846BA646446BA546046BA446C46A12
:100B3000A346846AA246446AA146046AA046C769DD
:100B4000866945690469C3688268006841687047BE
:100B5000014B024A1A60FEE70CED00E00400FA05C2
:100B60000161704709040161704700BF024A1368C0
:100B700043F480731360704700700040024A1368AA
:100B800023F4807313607047007000400122430912
:100B900003F1804303F50433196800F01F0002FAE3
:100BA00000F00843186070470122430903F18043B5
:100BB00003F50433196800F01F0002FA00F0014346
:100BC00019601A6822EA000018607047192928BFC6
:100BD0001921F0B40D4688B0164F03AE04460FCF6E
:100BE0000FC63A68144B32701A68083B00925A6874
:100BF000013D01921B68002D029316DD002208AB17
:100C000003EB620313F8203C08A800EB131010F864
:100C1000140C03F00F0308AE3344A118A05413F8CA
:100C2000143C023295424B70E9DC0023635508B056
:100C3000F0BC70477C5B0008F0F7FF1F2DE9F04720
:100C400043F6F87C066800240F27D0F804E004E09F
:100C500048EA0A060134102C29D043FA04F515F0AD
:100C6000010FA5B2F6D04FEA840808F1020907FA8D
:100C700008FA02FA09F901FA08F8072C26EA0A0A22
:100C800049EA0808E4D96544AD00ADB205F10208AF
:100C900001FA05F902FA08F807FA05F5013448EAFD
:100CA00009082EEA0505102C48EA050ED5D1066084
:100CB000C0F804E0BDE8F087024B1868C0F340605C
:100CC000704700BF00100240024A136843F080736F
:100CD0001360704700100240024A136843F4004357
:100CE000136070472010024006280AD8DFE800F0A1
:100CF0000404042F041D0A001E4A136823F44073E1
:100D0000136070471C4B1A46196841F001011960C5
:100D100013689907FCD5174B1A6822F440721A60C1
:100D20001A6842F400721A607047124B1A4619682A
:100D300041F00101196013689807FCD5136823F48A
:100D400040731360136843F48073136070470B4B58
:100D50001A46196841F48031196013689B03FCD569
:100D6000044B1A6822F440721A601A6842F4407206
:100D70001A60704720100240241002400010024008
:100D800038B52B4B1A46196841F0010119601368F8
:100D90009907FCD527482649036823F0030303601D
:100DA000136843F4803313600B689B03FCD5214C1C
:100DB0000220236823F0030343F001032360236828
:100DC00023F0F0032360236843F440432360236847
:100DD00023F4E06343F480632360236823F46053C7
:100DE000236000F05DFD236823F4701343F4E013E7
:100DF0002360236843F480332360236823F40033A3
:100E00002360FFF761FFFFF757FF0028FBD0094978
:100E1000094A0B68094D23F0030343F002030B60FA
:100E2000074C0848084B2A602260036038BD00BFA9
:100E3000001002400410024000A24A0420000020DA
:100E400028000020240000200051250210B540F2A7
:100E50009730FFF79BFE00234FF41C41044A0548DE
:100E6000054C1360036023600448116010BD00BF8F
:100E7000405C0040505C0040445C0040780B002027
:100E80000132521093B25AB1013B9BB2013301EBD4
:100E9000430331F8022B0430994240F8042CF8D176
:100EA000704700BF70B402F0010652080DD00B4627
:100EB000013A92B2013200EB420533F8044B20F8BC
:100EC000024BA842F9D101EB82010EB10B780370FD
:100ED00070BC70472DE9F047804600688A46174687
:100EE0001E46BDF82890804700258660089E0B4B63
:100EF0000B490C4AC660099EC0F800A0C0F8DC800F
:100F000047600661A0F81490C0E91B138266C0E92F
:100F10003255C0E93455BDE8F08700BF5D110008C7
:100F2000C1110008611200088162704770B5002588
:100F300004460368C582D0F8DC2082B0DB790095D6
:100F4000966829462A46B047D4F8DC3029465B68C3
:100F500020469847E3691BB102B0BDE870401847CE
:100F600002B070BDD0F8DC305B6A184710B4D0F81E
:100F7000DC40A468A44610BC604700BF10B4D0F8A1
:100F8000DC40E469A44610BC604700BF10B4D0F850
:100F9000DC40246AA44610BC604700BFD0F8DC30B7
:100FA0001B691847D0F8DC309B691847D0F8DC3053
:100FB0005B69184710B50268838FD179044699425E
:100FC000826B10D30021FFF7D9FF002394F844204F
:100FD000A3879A420CBF0322022284F8443084F88B
:100FE0002C20A36310BD0B460021FFF7C7FF022290
:100FF000236884F82C20D979A26BA38F0A445B1A4A
:10100000A263A38710BD00BF2DE9F04F05460F4630
:1010100083B000F1380800F13C0900F1480400F108
:10102000680A00F1400B266896B161793B78227915
:101030000B409A4204F1080408D1CDF800B04B46A9
:10104000424639462846B04701280AD95445EAD1D4
:101050004B4642463946284603B0BDE8F04F00F003
:10106000EDBB03B0BDE8F08F70B503690446836340
:101070008B79CA790D4643EA02238387FFF7C4FFC1
:10108000A8B1EB8823B3A28F21689342C97917D9FD
:1010900032B192FBF1F301FB1322B2FA82F2520950
:1010A00084F844202046BDE87040FFF783BF064621
:1010B000014601222046FFF771FF84F82C6070BDC5
:1010C0000022204684F84420BDE87040FFF772BF3C
:1010D0001A4619462046FFF751FF042384F82C30A6
:1010E00070BD00BF70B50268838FC48ED279E41AD8
:1010F0009442A8BF1446826BA6B21A44002133461C
:101100000546FFF743FF864204D1AB8FA0B21E44D1
:10111000AE8770BD284601220021FFF73FFF002364
:101120004FF0FF3085F82C3070BD00BF70B405461D
:101130000026AC6C08353CB10136042EF9D14FF0D5
:10114000FF34204670BC704700EBC60080F84C109E
:1011500080F84D208364204670BC704738B5002568
:101160000446294601220564FFF720FFE38E04F1BF
:101170003001C3B194F93020002A14DBA28A9A42CC
:1011800016D321692268A163A587D27920469A42A5
:1011900034BF05230623002284F82C301146BDE815
:1011A0003840FFF703BF2046BDE83840FFF75CBF7B
:1011B000012229462046FFF7F1FE84F82C5038BD65
:1011C00038B590F82C300446062B2BD0072B18D0BE
:1011D000052B07D001220021FFF7E0FE002384F851
:1011E0002C3038BDFFF77EFF0028FADB2268E38E43
:1011F000A18FD2795B1A9342F3DC062384F82C305A
:1012000038BD00231A461946FFF7C0FE0022236CA2
:1012100084F82C201BB104F13001204698470023AC
:10122000236438BDFFF75EFF0028DADB04F13001EC
:101230002046FFF7E9FE054648B1002320461A463E
:101240001946FFF79BFE042384F82C3038BD014675
:1012500001222046FFF7A2FE84F82C5038BD00BFC3
:1012600090F82C3010B5032B044627D0042B0DD05A
:10127000022B07D001220021FFF790FE002384F803
:101280002C3010BDBDE81040FFF794BE036C13B1C5
:1012900000F13001984794F83030002BEED194F8EB
:1012A0003130052BEAD1618ED4F8DC30C9B25B68ED
:1012B00020469847002384F82C3010BD0723BDE852
:1012C0001040002280F82C301146FFF76FBE00BF9F
:1012D000F8B54E8896B103685D7C6DB1446863795A
:1012E000B34244D02246002303E0977C0D32BE4235
:1012F00022D00133AB42F8D10020F8BDC6750446B8
:10130000D0F8DC300E46DB689847D4F8C8308BB193
:10131000002204F1CC05A2642265A265226604F1D4
:10132000D80713B1718820469847AF4202D055F8CC
:10133000043BF6E70120F8BD0133DBB2C375002B97
:10134000DDD003EB430203EB82030D3B1C44257904
:10135000002DD4D000231F46D4F809201E01B25816
:1013600001330AB1177025799D42F5D8C7E70123EB
:10137000C375ECE719881268012984BF012119801F
:10138000C37D13B9137001207047416803EB43001C
:1013900003EB80030B4413F8083C012013707047E3
:1013A00030B4C47D406804EB440504EB85040D3C77
:1013B000044420798D8885420DD2012018808B88C5
:1013C000D4F809101B015B5803B11B781268012087
:1013D000137030BC7047002030BC70471988012062
:1013E000022984BF02211980002311680B70126842
:1013F0005370704738B51D881446022D84BF0222F1
:101400001A808988C9B2FFF7CDFD011C18BF0121E0
:10141000002223680120197023685A7038BD00BF6C
:1014200008B589880122C9B2FFF7B8FD012008BDBF
:1014300008B589880022C9B2FFF7B0FD012008BDB8
:101440000B788BB910B54C887F2C0BD8D0F8DC30DA
:10145000847593F830204AB149885B68C9B29847CF
:10146000012010BD184610BD00207047012010BD9E
:1014700070B5C27D446802EB420502EB85020D3A6D
:10148000224415798C88A54215D9D2F80920240167
:1014900015192E794D88AE420DD912596AB11570C1
:1014A0001C46D0F8D83013B14A8889889847002361
:1014B0000120238070BD002070BD002DF0D01046AB
:1014C00070BD00BF2DE9F04F4D8889B02C0A022C69
:1014D000069348D0032C12D0012C03D0002009B071
:1014E000BDE8F08F01681D8811601E460B7820460C
:1014F000AB4228BF2B46338009B0BDE8F08F15F012
:10150000FF05066900F015818468002CE6D0C368E9
:10151000013DAB42E2DD40F2094389889942DDD1C9
:1015200054F825400092204602F00AFB431C5B0061
:10153000DBB2069A3370118815468B4228BF0B46E2
:10154000032B1380009A40F2FF800021601E10F8E8
:10155000014F06EB41035C802B8801315B08013BA6
:101560008B42F4DCF0E00169EDB2466805EB45031F
:101570001160069A05EB8305735D14887219A34206
:1015800028BF234690469B460F4607910846039284
:1015900011461A4602F0BCFA98F80430A4EB0B048A
:1015A000A4B216F805A007EB0B09002B00F0B780DA
:1015B00000230593D8F80920059B1F01D3199D68C6
:1015C0000497BDB12E782946A64228BF2646484634
:1015D000324602F09DFA039A2B78D2F809209A44F9
:1015E000A41B06EB0B01A4B21FFA81FBB1441FFA46
:1015F0008AFAD3191979002900F088800022029212
:10160000DF68029B484603EB4306C6EBC606BD5D9A
:10161000BA19A54228BF25469046114600922A468F
:1016200002F076FABB5DD8F80D10641BAB449A4407
:10163000A4B21FFA8BFBA9441FFA8AFAA1B1D8F809
:1016400011504846A542A8BF2546AEB2324602F028
:101650005FFAD8F81130A41BB3449A44A4B21FFA1D
:101660008BFBB1441FFA8AFA009B1B79002B40D0F8
:10167000002553460193009BC5EB0518D3F809A03C
:1016800048461AF808600AEB0807A64228BF264613
:101690003946324602F03CFA1AF80820019BD7F886
:1016A0000710A41BB3441344A4B21FFA8BFBB1442C
:1016B0009BB2B9B10193D7F80B604846A642A8BFC8
:1016C00026461FFA86F84646424602F021FAD7F827
:1016D0000B20019BA41BC3441344A4B21FFA8BFB31
:1016E000C1449BB2009A01351179AAB29142C1D886
:1016F0009A46039B0299D3F80920049B0131D31821
:101700001D7988B2854202913FF67AAF059B039915
:101710000133087999B2884205933FF64DAF012015
:10172000079BA3F802A0069BA3F800B009B0BDE890
:10173000F08F09210423B1700699F37033700B8880
:10174000042B28BF04230B80032301207370166031
:1017500009B0BDE8F08F00BF19880120022984BFBD
:1017600002211980002311680B70126853707047B2
:10177000002210B400F1C80454F8043B63B18B425A
:1017800002F1010205D0042AF6D14FF0FF3010BC5F
:101790007047002010BC7047323240F822101846C3
:1017A000F8E700BF10B44C78092C1AD8DFE804F031
:1017B0001119191919050919150D0B4CA44610BC5E
:1017C00060470A4CA44610BC6047094CA44610BCB4
:1017D0006047084CA44610BC6047074CA44610BCA8
:1017E0006047002010BC704741140008C514000871
:1017F000D1120008DD1300087513000810B44C78EE
:10180000012C08D00CD3032C07D14C882CB9084CE0
:10181000A44610BC60474C8834B1002010BC70470F
:10182000044CA44610BC6047034CA44610BC60475F
:1018300021140008F513000831140008F0B40C78E6
:1018400014F0600F13D104F01F04012C05D011D344
:10185000022C0CD1F0BCFFF7D1BF9C464B780D4653
:101860000A2B0646174612D00B2B0ED02BB1F0BC1C
:1018700000207047F0BCFFF795BF064C63463A4620
:1018800029463046A446F0BC6047034CF6E7034CBB
:10189000F4E700BF5917000871140008A1130008ED
:1018A000034A136823F0070318431060704700BF12
:1018B00000200240024B41F080011960704700BFD8
:1018C0004C5C00403E2A10B411D80132C2F34F02E2
:1018D000500080B20A4B0B4C1B6892029BB203EB88
:1018E000C10149000C4492B2226010BC7047013A19
:1018F000C2F34412501C400142F02002EAE700BF4C
:10190000505C00400C600040F0B54FF0C06701F043
:101910007F06B40004F1804404F5B844256883B020
:1019200025F4E0450DF1080C25F07F050CEB420293
:101930003543DFF8E8C0ADB2CDE900C725602568C2
:1019400032F8082C25F4EC4525F07005154349B212
:10195000ADB2002925604FEAC60EB0F818C0089F46
:1019600000DB5EBB2C4A126892B27244520002F154
:10197000804202F5C042C2F800C027B106EB460221
:1019800000EB8202976648F6CF7522689C442A4095
:10199000226025681FFA8CFC25F4E04525F04005FF
:1019A000ADB285F0200545F4004545F080050029DD
:1019B0002560A0F818C001DA03B0F0BD1A46164B36
:1019C0000546196803F56E7389B28E444FEA4E0ED0
:1019D0007344C3F800C03146FFF774FF27B106EB2C
:1019E000460605EB8606F7664CF68F7123682A8B50
:1019F0000B4023602368104423F4804323F07003DA
:101A00009BB283F4405343F4004343F080032360CC
:101A1000288303B0F0BD00BF505C0040000200040A
:101A200048F2800170B40C4A0C4E0D4D0D4C1368F9
:101A300033400B439BB2136013682B400B439BB2A4
:101A400042F8043BA242F2D170BC0368DB79203338
:101A50005B000383704700BF045C0040BF8FFFFF43
:101A60008FBFFFFF205C004010B449BB002A0CBFB1
:101A7000202410242B48036823F4E04323F0400380
:101A800063401BB243F4004343F080039BB2036006
:101A9000890001F1804101F5B84122B34FF4805330
:101AA0000A6822F4804222F0700292B253401BB2C4
:101AB00043F4004343F080039BB20B6010BC7047BB
:101AC0000B06E5D501F07F01890001F1804101F5A8
:101AD000B8410B6823F4E04323F040039BB282B18A
:101AE00083F01003E3E74CF68F700A684FF440531D
:101AF00002400A600A6822F4804222F0700292B228
:101B0000D4E748F6CF7283F020031BB243F40043BE
:101B100043F080039BB20B600B6810BC13400B605A
:101B2000704700BF005C00400B060DD4890001F136
:101B3000804101F5B841086800F44050A0F580509C
:101B4000B0FA80F04009704701F07F01890001F18F
:101B5000804101F5B841086800F03000A0F11000A4
:101B6000B0FA80F0400970470B0614D40E4B880081
:101B700000F1804000F5B8405A54036823F48043D4
:101B800023F070039BB23AB983F4405343F400430B
:101B900043F080030360704783F4005343F4004331
:101BA00043F0800303607047700B00202DE9F04183
:101BB00001F07F06B40004F1804404F5B8442568C0
:101BC00005F03005302D2ED01F46DFF86480114619
:101BD000D8F80020F60092B23244520002F180425E
:101BE00002F5C04210881A46400000F1804000F51E
:101BF000C040FFF745F9D8F800100C4B89B20E44ED
:101C0000760033441F602168384621F4E04121F01A
:101C1000400189B281F0300141F4004141F080017E
:101C20002160BDE8F0810020BDE8F0810460004043
:101C3000505C0040F8B58C0004F1804404F5B844D1
:101C4000266806F44056B6F5405F43D0234FCE00D9
:101C50003D682348ADB235446D0028440068C0F3A8
:101C6000090098422CDB1D461C4B10461A6803F5F0
:101C70006E7392B21644760033440F4619882A4692
:101C8000490001F1804101F5C041FFF70BF940F631
:101C90000F732168134A0B4043F080032360D35D28
:101CA00063B9236823F4804323F070039BB283F469
:101CB000405343F4004343F0800323602846F8BDBB
:101CC0003B6807489BB233445B0018440568C5F382
:101CD0000905C9E700252846F8BD00BF505C004053
:101CE0000C600040700B0020364AF8B513680446BB
:101CF000590549D41A049DB222D4280506D54FF2BD
:101D0000FF71304A236A116003B19847E90406D590
:101D10004EF6FF712B4A636A116003B19847AA051A
:101D2000A36A06D54FF6FF51264A116033B3984790
:101D3000A36A1BB3244A136843F400731360F8BD0D
:101D400003F00F07BE0006F1804613F0100306F5FE
:101D5000B84622D140F60F7231680A4042F4004280
:101D6000326007EB470213441A3354F823300BB3A5
:101D70002046394698472805C8D5C0E7124A136857
:101D800023F400731360F8BD40234FF6FF31116058
:101D90000383BDE8F840FFF7C9B833681B0501D4D9
:101DA0000123DEE7082300F130023946FFF742FF46
:101DB0000223D6E740F60F733268134043F08003E6
:101DC00033609AE7445C0040405C004001224309D4
:101DD0009B0003F1604300F01F0003F5614302FA2A
:101DE00000F01860704700BF012916D00BD30229FC
:101DF00008D10F490F4A0B6803430B60136818435F
:101E00001060704770470A490A4A0B6803430B6029
:101E1000136823EA0000106070470549054A0B6803
:101E200023EA00030B60136818431060704700BF7B
:101E3000080401400C0401400449054A0B680343AF
:101E40000B60136818431060704700BF0004014026
:101E500004040140014B1860704700BF14040140A6
:101E6000044A13689B06FCD5136843F01003136003
:101E7000704700BF04280040044B1A46196821F03F
:101E80001001196013689B06FCD5704704280040B8
:101E900030B40C4A13689906FCD513680A490B4CF8
:101EA00043F0100385B2000C1360256008601368CE
:101EB0001C3923F0100313600B689B06FCD530BC63
:101EC000704700BF0428004020280040242800401C
:101ED00030B40C4A13689906FCD513680A490B4CB8
:101EE00043F0100385B2C0F303401360256008601F
:101EF0001368043923F0100313600B689B06FCD5AC
:101F000030BC704704280040082800400C280040DE
:101F1000034A044B10681B6843EA0040704700BF47
:101F2000182800401C28004030B40C4A1368990659
:101F3000FCD513680A490B4C43F01003050C80B222
:101F40001360256008601368183923F010031360CC
:101F50000B689B06FCD530BC704700BF04280040CE
:101F60001C28004018280040144A13689906FCD524
:101F70001368012843F01003136018D011D302280E
:101F800009D00E4B1A46196821F010011960136828
:101F90009B06FCD570470A4A136843F0040313609C
:101FA000EFE7074A136843F001031360E9E7044AC7
:101FB000136843F002031360E3E700BF0428004006
:101FC00000280040144A13689906FCD513680128BC
:101FD00043F01003136018D011D3022809D00E4B20
:101FE0001A46196821F01001196013689B06FCD588
:101FF00070470A4A136823F004031360EFE7074AA7
:10200000136823F001031360E9E7044A136823F01F
:1020100002031360E3E700BF0428004000280040EB
:1020200001280FD008D3022805D1094A136823F0EC
:102030000403136070477047054A136823F00103D7
:1020400013607047024A136823F00203136070475D
:102050000428004001280ED008D3022804D1084BE0
:10206000186800F00400704700207047044B18689F
:1020700000F001007047024B186800F00200704742
:1020800004280040704700BFFF23002110B5084816
:10209000084A094C03702370117000F05BF800F0DF
:1020A00055F900F015F8BDE8104000F059B800BF30
:1020B000760C0020750C0020740C002001210020FB
:1020C00000F090B8014B1878704700BF750C0020E5
:1020D0000023064A0649C2E900330B70137293814C
:1020E000C2E9043313769383704700BF7405002060
:1020F00030060020F8B5164D05EB0015EC792A7A6C
:10210000631C93FBF2F402FB1434AE79E4B2B442E4
:10211000AF8809D11AE02A7A013494FBF2F302FB6A
:102120001344E4B2A64211D02B6807FB04335A686B
:10213000511E002AEFD059600029ECD1687B00F0D5
:102140000BF9FE21687B00F00DF9E4E7F8BD00BF54
:10215000740500200022014B1A70704731060020E0
:102160000021FF2010B40D4B0D4C0A46217003F1E5
:102170008C011875D880DA731A745A749A745A7369
:102180005A7198731A711A6018739A60DA745875D4
:102190009A611C338B42ECD110BC7047940500202F
:1021A00032060020F0B40D4B1E78A6B1FF270022A6
:1021B00038460B4B1C795D7B052C02F1010103F1C4
:1021C0001C0303D1BD423CBF2F46D0B28AB2B242FB
:1021D000F0D1F0BC7047FF20F0BC70473206002001
:1021E000940500202DE9F047DFF88C9099F8003035
:1021F00013B300240E4682464FF0050827461D4DB6
:10220000E300191B05EB81010A79022A1AD0042A7E
:1022100018D0012A12D0BAF1000F07D11B1B05EB11
:102220008303D87BFF2801D0FFF764FF013499F8BE
:102230000030E4B2A342E3D1BDE8F0878A680132FE
:102240008A60E8E7191B05EB8101087D5045E2D162
:102250008868B0420BD8042AA3EB040205EB820283
:102260008F6004BFCF744F7582F80480D3E7801B62
:102270008860D0E794050020320600201A4B1B78B6
:102280008BB30122F0B5C40800F0070002FA00F099
:102290005A1E164BD2B240B2C2EBC20203F11C016D
:1022A000C6430025052701EB820102E01C33994259
:1022B00018D01A79033A012AF8D803EB040C9CF9D8
:1022C0001520024206EA020EF0D08CF815E0DA7C06
:1022D00012B95A7D002AE9D1DD745D751F711C3376
:1022E0009942E6D1F0BD70473206002094050020E7
:1022F00010B5094A094C127823789A4204D84FF451
:102300001C7000F00FF82378054AC3EBC30352F8A2
:102310002330BDE81040184732060020740C00201E
:1023200094050020044608B5064801F07DFD2046CE
:1023300001F09CFD01F0FEFC034B1C801A8892B258
:102340001A80FEE7C45B00082E0600200022014B25
:102350001A70704733060020014B1870FFF78EBFCC
:102360002C000020024B03EB40004170704700BF7F
:102370002006002081F0004102E000BF83F000430E
:1023800030B54FEA41044FEA430594EA050F08BF10
:1023900090EA020F1FBF54EA000C55EA020C7FEAD4
:1023A000645C7FEA655C00F0E2804FEA5454D4EB51
:1023B0005555B8BF6D420CDD2C4480EA020281EA1B
:1023C000030382EA000083EA010180EA020281EA53
:1023D0000303362D88BF30BD11F0004F4FEA0131A5
:1023E0004FF4801C4CEA113102D0404261EB4101B4
:1023F00013F0004F4FEA03334CEA133302D052423A
:1024000063EB430394EA050F00F0A780A4F10104F5
:10241000D5F1200E0DDB02FA0EFC22FA05F280182F
:1024200041F1000103FA0EF2801843FA05F3594115
:102430000EE0A5F120050EF1200E012A03FA0EFC94
:1024400028BF4CF0020C43FA05F3C01851EBE371BE
:1024500001F0004507D54FF0000EDCF1000C7EEBDB
:1024600000006EEB0101B1F5801F1BD3B1F5001F19
:102470000CD349085FEA30004FEA3C0C04F1010438
:102480004FEA445212F5800F80F09A80BCF1004F61
:1024900008BF5FEA500C50F1000041EB045141EAE3
:1024A000050130BD5FEA4C0C404141EB010111F4E4
:1024B000801FA4F10104E9D191F0000F04BF01468F
:1024C0000020B1FA81F308BF2033A3F10B03B3F16D
:1024D00020020CDA0C3208DD02F1140CC2F10C02FD
:1024E00001FA0CF021FA02F10CE002F11402D8BF5B
:1024F000C2F1200C01FA02F120FA0CFCDCBF41EA27
:102500000C019040E41AA2BF01EB0451294330BDF5
:102510006FEA04041F3C1CDA0C340EDC04F11404D2
:10252000C4F1200220FA04F001FA02F340EA0300A9
:1025300021FA04F345EA030130BDC4F10C04C4F1EF
:10254000200220FA02F001FA04F340EA03002946CF
:1025500030BD21FA04F0294630BD94F0000F83F419
:10256000801306BF81F480110134013D4EE77FEAFC
:10257000645C18BF7FEA655C29D094EA050F08BF48
:1025800090EA020F05D054EA000C04BF1946104629
:1025900030BD91EA030F1EBF0021002030BD5FEA6D
:1025A000545C05D14000494128BF41F0004130BD95
:1025B00014F580043CBF01F5801130BD01F00045E9
:1025C00045F0FE4141F470014FF0000030BD7FEA5C
:1025D000645C1ABF194610467FEA655C1CBF0B4657
:1025E000024650EA013406BF52EA033591EA030F6E
:1025F00041F4002130BD00BF90F0000F04BF002166
:10260000704730B54FF4806404F132044FF0000598
:102610004FF0000150E700BF90F0000F04BF002111
:10262000704730B54FF4806404F1320410F0004577
:1026300048BF40424FF000013EE700BF42004FEA72
:10264000E2014FEA31014FEA02701FBF12F07F43EF
:1026500093F07F4F81F06051704732F07F4208BFA6
:10266000704793F07F4F04BF41F40021704730B5AD
:102670004FF4607401F0004521F000411CE700BFF9
:1026800050EA010208BF704730B54FF000050AE07C
:1026900050EA010208BF704730B511F0004502D57D
:1026A000404261EB41014FF4806404F132045FEA7F
:1026B000915C3FF4D8AE4FF003025FEADC0C18BF28
:1026C00003325FEADC0C18BF033202EBDC02C2F11A
:1026D000200300FA03FC20FA02F001FA03FE40EAAC
:1026E0000E0021FA02F11444BDE600BF4FEA410298
:1026F000B2F1E04324BFB3F5001CDCF1FE5C0DD960
:1027000001F0004C4FEAC0024CEA5070B2F1004FA9
:1027100040EB830008BF20F00100704711F0804FAC
:1027200021D113F13872BCBF01F00040704741F471
:1027300080114FEA5252C2F11802C2F1200C10FA75
:102740000CF320FA02F018BF40F001004FEAC12359
:102750004FEAD32303FA0CFC40EA0C0023FA02F3FD
:102760004FEA4303CCE77FEA625307D150EA0133D3
:102770001EBF4FF0FE4040F44000704701F00040A3
:1027800040F0FE4040F40000704700BF2DE9F843E0
:1027900082EAE274A4EBE2741546E20706460F46AD
:1027A00053BF4FF0000880468946DFF84C9064081C
:1027B00013D03B4632463046394600F003FBE30770
:1027C00006460F46F3D54046494632463B4600F0A2
:1027D000F9FA640880468946EBD1002D07DA4246B3
:1027E0004B460020044900F0D5FA80468946404611
:1027F0004946BDE8F88300BF0000F03F05B5084634
:102800001A460ABD00B500F004F8FFF7F7FF10BC48
:10281000A646C20D4002400A0124E4052043FF2AD7
:10282000D2B200D94042013AFE2A01D27E3A704724
:102830000028204600D540427E3A92008032704700
:10284000C40FE40704D5002D00D00130404203D46A
:10285000013A001812D0FBD5813201D1803005D267
:10286000803003D2002D0FD04000013AFE2A06DA54
:10287000013207DD400AD205104320437047FF2094
:10288000C005FAE7002070470506EDD1400A800236
:10289000EBE700B5FFF7B6FF80018901D41A07DA2C
:1028A0001A46054664422041202C07D3002000BD73
:1028B0000D462141202C01D3002100BD644220346B
:1028C000A54000BD0122D207514030B5FFF7E1FF1E
:1028D000401803D1C82A01DB01204007FFF7B0FFF1
:1028E00030BD83B20C14634304148DB26C431B19C6
:1028F00084B26C432504240C1B19001409144843AA
:10290000C002D9060D435911401870470122D30760
:10291000184200D0181A194200D0591A401A02D091
:1029200000DC52421046704730B5FFF76BFF1A4487
:102930000432FFF7D6FFD1E730B5FFF763FF01257B
:10294000002801D5404249420024002901D54942CE
:10295000E443C82B0EDA5242C82A0BDAD2184023BD
:10296000091A00D201445B410944F9D318016040BF
:10297000B4E700240846FF22F9E730B5FFF742FF2D
:10298000002801D540424942C82BF2DA5242C82AF7
:10299000EFDAD21823A4030DE45CA300434324021E
:1029A0005B1563431B13E41A2346444324145C431E
:1029B0001B02E4131B1BDC014343DB13200C4343CA
:1029C0001B14E01A07300009B3E730B5FFF721FF09
:1029D0000100CED4501000D34900043214A44B0D92
:1029E000E45CC80960436043001360434013240261
:1029F000241A20464043000CCB095843001360437F
:102A00004015241A20464043030B4B430005000D9C
:102A10000D0B68431844C013604364030014201A6C
:102A20005210CFD340084900CCE7C046F1D8C3B21A
:102A3000A4988D84F1DAC9BBB0A69E97918B86824B
:102A4000002110B5FFF7E5FE0A44173A07DB072A15
:102A500017DDC117C9430120C007484010BD5242CD
:102A6000202A00DB2022104110BD002110B5FFF705
:102A7000D0FE0A440100F0D4173AF0DBC143082A23
:102A8000EBDC904010BD002130B51D22521A00250C
:102A900024E7002130B50028F7DA1E22521AC507B4
:102AA00040081BE7474680B40025A0460DE00029FA
:102AB00002DC05E0002A03DA891B7F42121901E0DB
:102AC0008919121B44466743C01B1C680433640801
:102AD00000D2013506462E410F462F41640870474B
:102AE000C0B5FFF7DFFFFFF7E5FFFCD386138F13B9
:102AF000D210564357434446674336133F13C01B17
:102B0000891980BCB846C0BDC0B5FFF7CBFFFFF741
:102B1000CEFFFCD3002902DC8919121B01E0891BBE
:102B2000121976106410F5D1EBE730B51821FFF7D4
:102B300088FF484C2409001BFDDA0019FDD48200EF
:102B400065003E480021A24202DB521B4042FAE7E8
:102B5000D20040A30124FFF7C3FF09310022002364
:102B60000025FFF76DFEFFF749FE90E700B5FFF780
:102B7000DCFF084600BD30B5FFF7D7FFFEE630B5F5
:102B80001821FFF75EFF01142D4A5143C91401318A
:102B9000491002B442012B484143521A2A480021ED
:102BA00039A3CC43FFF79CFF084404BC6FE730B562
:102BB000FFF72FFE010015D42449FFF792FE5110B4
:102BC00001D30131401002B40146204B9B00C018D4
:102BD000C91A00222CA3D443FFF796FF114604BC68
:102BE000130054E7FF22FBE730B5FFF7E0FF462B69
:102BF0000ADC5B42462B06DC1548584308310911B4
:102C0000081A052243E7C043FF2240E730B5FFF72B
:102C100040FE0022002802DA404249420D4A0DA33C
:102C20000124FFF771FF10460A4A841802D2841A61
:102C300000D4A01A0138002229E7C046B49D6E13C3
:102C400015170000FF422E16CA159E2CB9C2930517
:102C500030E4620151ED87640CCE583BF8755B1F80
:102C60004CDDEA0FEC56FD07B8AAFF0354F5FF014F
:102C7000ACFEFF00D4FF7F00FCFF3F00FCFF1F0005
:102C80000000100002000800ECA94F46EDA94F46D5
:102C9000F45DB1201C89151044AC020845AC020853
:102CA00064550004AC0A0002540100012C008000AD
:102CB0000400400004002000000010000000080094
:102CC0000300080000000000F8B52F4D024695F8FB
:102CD00022400B46013485F8224006460F4600F09C
:102CE00037F998B939463046FFF700FD4FF07E516D
:102CF0000446FFF70BFE10B900200021F8BD4FF08D
:102D00007E512046FFF702FE002802DD00201F4909
:102D1000F8BD1F492046FFF7F9FD0028F6DB1C49E6
:102D20002046FFF7F3FD18B915A1D1E90001F8BD60
:102D300021462046FFF7F8FD01464FF07E50FFF791
:102D4000C1FDFFF742FE214606464FF07E50FFF7D9
:102D5000BCFDFFF773FC04460D463046FFF76EFCE2
:102D600022462B4600F00EFAFFF7C0FC01464FF05A
:102D70008040FFF7D9FDFFF761FCF8BDAFF300809D
:102D8000182D4454FB210940340600200000F87F30
:102D9000000080BFF8B50A4D06466C781046013435
:102DA0000F466C701946FFF7A1FC044639463046C1
:102DB000FFF79CFC2146FFF7E0FDFFF73FFCF8BD65
:102DC00034060020F8B50A4D0646AC7810460134AA
:102DD0000F46AC701946FFF789FC04463946304669
:102DE000FFF784FC2146FFF79FFDFFF727FCF8BDA6
:102DF00034060020F8B50A4D0646EC78104601343A
:102E00000F46EC701946FFF771FC04463946304610
:102E1000FFF76CFC2146FFF758FDFFF70FFCF8BDEC
:102E200034060020F8B50A4D06462C7910460134C8
:102E30000F462C711946FFF759FC044639463046B7
:102E4000FFF754FC2146FFF73DFDFFF7F7FBF8BD08
:102E500034060020F8B50B4D06466C791046013457
:102E60000F466C711946FFF741FC0446394630465F
:102E7000FFF73CFC2146FFF749FDB0FA80F040091E
:102E8000F8BD00BF34060020F8B50A4D0646AC79FF
:102E9000104601340F46AC711946FFF727FC044673
:102EA00039463046FFF722FC2146FFF72FFDC00FC1
:102EB000F8BD00BF34060020F8B50B4D0646EC798E
:102EC000104601340F46EC711946FFF70FFC04461B
:102ED00039463046FFF70AFC2146FFF717FD002868
:102EE000CCBF00200120F8BD34060020F8B50A4D03
:102EF00006462C7A104601340F462C721946FFF70D
:102F0000F5FB044639463046FFF7F0FB2146FFF754
:102F1000FDFCC043C00FF8BD34060020F8B50B4DD2
:102F200006466C7A104601340F466C721946FFF75C
:102F3000DDFB044639463046FFF7D8FB2146FFF754
:102F4000E5FC0028D4BF00200120F8BD3406002095
:102F5000F8B50B4D0646AC7A104601340F46AC72FC
:102F60001946FFF7C3FB044639463046FFF7BEFB60
:102F70002146FFF7CBFC003018BF0120F8BD00BF91
:102F80003406002010B5094AD37B0133D373FFF711
:102F9000ADFB00210446FFF7B9FC00B910BD204687
:102FA000FFF74EFD0028B8BF013010BD34060020E9
:102FB00010B50C4A137C01331374FFF797FB002103
:102FC0000446FFF7A3FC08B9002010BD00212046ED
:102FD000FFF79CFC0028F7DB2046BDE81040FFF718
:102FE00044BD00BF3406002008B5054A537D0133B7
:102FF0005375FFF77BFBFFF7E8FCFFF71FFB08BDEE
:103000003406002008B5054A937D01339375FFF718
:103010006DFBFFF7E9FDFFF711FB08BD340600204B
:1030200008B5054AD37D0133D375FFF75FFBFFF782
:10303000A6FDFFF703FB08BD3406002008B5074ACC
:10304000137E01331376FFF751FBFFF7CDFD0449E3
:10305000FFF76AFCFFF7F2FA08BD00BF3406002054
:103060003BAAB83F08B5074A537E01335376FFF7B2
:103070003DFBFFF7B9FD0449FFF756FCFFF7DEFA09
:1030800008BD00BF34060020D95BDE3EF8B5214CF8
:103090001F46A37E16460133A376FFF727FB0021C8
:1030A0000446FFF733FC002810DB2046FFF79CFDA9
:1030B000394604463046FFF719FB01462046FFF724
:1030C00033FCFFF75CFDFFF7B9FAF8BD394630462F
:1030D000FFF70CFB00210546FFF718FC0028E4DA97
:1030E00005F10040FFF7ACFC002800F00100B8BF7C
:1030F00040420128D9D104F10040FFF775FD29466F
:10310000FFF712FCFFF73BFD00F10040FFF796FAD6
:10311000F8BD00BF3406002008B5054A137F01330F
:103120001377FFF7E3FAFFF700FDFFF787FA08BD13
:103130003406002010B50A4A537F01335377FFF756
:10314000D5FA08490446FFF7E1FB10B90020002139
:1031500010BD2046FFF70AFDFFF770FA10BD00BF53
:1031600034060020DB0FC93F08B5054A937F0133C1
:103170009377FFF7BBFAFFF7FEFCFFF75FFA08BD96
:1031800034060020F8B5134C1F46E37F1646013382
:10319000E377FFF7ABFA00210446FFF7B7FB58B11E
:1031A00030463946FFF7A2FA054629462046FFF782
:1031B0002DFDFFF743FAF8BD39463046FFF796FA82
:1031C00000210546FFF7A2FB0028EED100200021D8
:1031D000F8BD00BF340600202DE9F047244F024619
:1031E00097F820600B46013687F8206004460D46AC
:1031F000FFF7AEFE70BB29462046FFF777FA0021A5
:103200000746FFF783FB08B325F00046204631460A
:103210004FF0FF32174BFFF79BFE38B9204631467F
:103220004FF0FF32134BFFF747FE38B120462946D7
:10323000BDE8F0470022104BFFF7A4BF002138463D
:10324000FFF764FB00280BDD0C4C0D4D2046294692
:10325000BDE8F08700240B4D20462946BDE8F087E5
:1032600038460021FFF752FB0028DFDAECE700BF09
:1032700034060020FFFFEF7F0000F03F182D44547C
:10328000FB21F93F0000F87F2DE9F041204F024675
:1032900097F821600B46013687F8216004460D46F9
:1032A000FFF756FE98B929462046FFF71FFA00217E
:1032B0000646FFF72BFB18B920462946BDE8F081EA
:1032C0004FF07E513046FFF721FB002805DD00243A
:1032D000104D20462946BDE8F0810F493046FFF7E2
:1032E00015FB0028F3DB31463046FFF71DFB014696
:1032F0004FF07E50FFF7E6FAFFF767FBFFF79EF906
:1033000002460B4620462946BDE8F041FFF73ABF8A
:10331000340600200000F87F000080BF2DE9F8434C
:10332000254F024697F823600B46013687F8236045
:1033300004460D46FFF70CFEB8BB29462046FFF7B2
:10334000D5F900210646FFF7E1FA88B125F00047DC
:10335000204639464FF0FF32184BFFF7F9FD58B9B8
:10336000204639464FF0FF32144BFFF7A5FD18B940
:1033700020462946BDE8F8833046FFF700FC0446A6
:1033800006F10040FFF7FBFB01462046FFF79AFAE3
:1033900001464FF07C50FFF7C7FAFFF74FF904469C
:1033A0000D4620462946BDE8F8830024044D2046FA
:1033B0002946BDE8F88300BF34060020FFFFEF7FF9
:1033C0000000F87F2DE9F843234F024697F8246068
:1033D0000B46013687F8246005460C46FFF7B8FD1A
:1033E000B0BB21462846FFF781F900210646FFF7CA
:1033F0008DFAA8B124F00047284639464FF0FF3235
:10340000164BFFF7A5FD70B9284639464FF0FF323D
:10341000124BFFF751FD30B928462146BDE8F8832D
:103420000F49BDE8F8833046FFF7A9FB044606F1D3
:103430000040FFF7A4FB01462046FFF746FA01468D
:103440004FF07C50FFF770FAFFF7F8F8BDE8F8830B
:1034500000200449BDE8F88334060020FFFFEF7F19
:103460000000F03F0000F87F2DE9F843284F0246A6
:1034700097F825600B46013687F8256004460D460F
:10348000FFF766FD00283ED129462046FFF72EF9BA
:1034900000210646FFF73AFAA8B125F0004520467C
:1034A00029464FF0FF321B4BFFF752FD78B92046FB
:1034B00029464FF0FF32174BFFF7FEFC38B9164D87
:1034C0002946BDE8F88320462946BDE8F883314601
:1034D0004FF08040FFF728FAFFF751FB4FF07E5185
:1034E0000546FFF7EFF94FF07E5104462846FFF7F7
:1034F000ECF901462046FFF740FAFFF79FF80D462A
:103500002946BDE8F883054D00202946BDE8F8832B
:1035100034060020FFFFEF7F0000F03F0000F87F3F
:103520002DE9F843244F024697F826600B460136F2
:1035300087F8266004460D46FFF70AFDB0BB294612
:103540002046FFF7D3F800210746FFF7DFF988B1DF
:1035500025F00046204631464FF0FF32174BFFF76B
:10356000F7FC58B9204631464FF0FF32134BFFF7B6
:10357000A3FC18B920462946BDE8F88339463846E9
:10358000FFF7D2F94FF07E51FFF79FF9FFF71DFAD1
:1035900001463846FFF799F9FFF726FBFFF74EF88B
:1035A00004460D4620462946BDE8F8830024044D14
:1035B00020462946BDE8F88334060020FFFFEF7F50
:1035C0000000F87F2DE9F843264F024697F8276060
:1035D0000B46013687F8276005460C46FFF7B8FC16
:1035E00030BB21462846FFF781F84FF07E51064652
:1035F000FFF78CF900281BDB4FF07E513046FFF7B8
:1036000085F960B324F00047284639464FF0FF3271
:10361000154BFFF79DFC78B9284639464FF0FF322D
:10362000114BFFF749FC38B928462146BDE8F8831D
:1036300000200E49BDE8F88331463046FFF774F9A3
:103640004FF07E51FFF73EF9FFF7BFF901463046D4
:10365000FFF73BF9FFF7C8FAFEF7F0FFEAE701468C
:10366000BDE8F88334060020FFFFEF7F0000F87FFD
:10367000F8B52C4F024697F828600B46013687F8BC
:10368000286004460D46FFF763FCF0B92946204642
:10369000FFF72CF800210646FFF738F910B920464D
:1036A0002946F8BD4FF07E513046FFF72FF920B97B
:1036B00000241D4D20462946F8BD1C493046FFF721
:1036C00025F938B900241A4DE9E70024194D2046A0
:1036D0002946F8BD4FF07E513046FFF717F9002814
:1036E000F3DC12493046FFF711F90028EDDB3146D3
:1036F0004FF07E50FFF7E9F8314604464FF07E5018
:10370000FFF7E0F801462046FFF737F9FFF76CFABC
:1037100001464FF07C50FFF707F9FEF78FFF044694
:103720000D46BCE7340600200000F07F000080BF9B
:103730000000F0FF0000F87F2DE9F8431E4F02461D
:1037400097F829600B46013687F8296004460D4634
:10375000FFF7FEFB68BB25F00046204631464FF0E0
:10376000FF32164BFFF7F4FB58B9204631464FF0B5
:10377000FF32124BFFF7A0FB18B920462946BDE8DF
:10378000F88329462046FEF7B1FF00210646FFF7E1
:10379000BDF80028F1D03046FFF752F9031EB8BF3C
:1037A000581CFEF739FF04460D4620462946BDE861
:1037B000F8830024024DE0E734060020FFFFEF7F8E
:1037C0000000F87F2DE9F8431D4F024697F82A6064
:1037D0000B46013687F82A6004460D46FFF7B8FB12
:1037E00050BB25F00046204631464FF0FF32154BC6
:1037F000FFF7AEFB58B9204631464FF0FF32114B70
:10380000FFF75AFB18B920462946BDE8F883294638
:103810002046FEF76BFF00210646FFF777F80028E9
:10382000F1D03046FFF70CF9FEF7F6FE04460D46E0
:1038300020462946BDE8F8830024034DE3E700BF96
:1038400034060020FFFFEF7F0000F87F2DE9F843EA
:103850001D4F024697F82B600B46013687F82B6008
:1038600004460D46FFF774FB58BB25F00046204682
:1038700031464FF0FF32154BFFF76AFB58B920462F
:1038800031464FF0FF32114BFFF716FB18B92046B7
:103890002946BDE8F88329462046FEF727FF002188
:1038A0000646FFF733F80028F1D03046FFF7C8F896
:1038B0000130FEF7B1FE04460D4620462946BDE81C
:1038C000F8830024024DE2E734060020FFFFEF7F7B
:1038D0000000F87FDFF834C12DE9F0479CF82C6038
:1038E000924601361F4602460B468CF82C60054670
:1038F0000C46FFF72DFB10BB524650463B4639465F
:10390000FFF726FBD8B921462846FEF7EFFE002137
:103910008046FEF7FBFF064698B324F00046284693
:1039200031464FF0FF32374BFFF712FB58B92846AC
:1039300031464FF0FF32334BFFF7BEFA18B9002083
:103940003149BDE8F08739465046FEF7CFFE0021E9
:10395000FEF7DCFF0028F2D027F00047504639463A
:103960004FF0FF32274BFFF7F3FAB8B9504639460C
:103970004FF0FF32234BFFF79FFA78B928462146D4
:10398000DFE739465046FEF7B1FE0021FEF7BEFFE5
:103990000028C2D030463146BDE8F087284631467F
:1039A000FEF7A4FE394604465046FEF79FFE054644
:1039B00001462046FEF7E1FFFEF740FEFFF7BCFEA2
:1039C000FEF794FE2946FEF7AFFF01462046FEF7BC
:1039D00079FF00210446FEF799FF00280BDB4046E3
:1039E0000021FEF793FF0028B8BF04F100442046F1
:1039F000FEF724FEA5E720462946FEF766FF0446AB
:103A0000EDE700BFFFFFEF7F0000F87F34060020E6
:103A10002DE9F0470D46844637482F4617F8014BED
:103A2000265C16F0080634D12D2C34D14FF0010E4F
:103A30006C78AF1C002B5BD0102B09D1302C07D138
:103A4000387800F0DF0058284DD110237C780237F9
:103A5000BEF1000F14BF4FF000486FF00048002681
:103A6000B8FBF3F9304603FB198AA4F13005092DA0
:103A700017D82C46A34223DD751C07D081451CD3E3
:103A800001D1A24519DB012600FB034017F8014BC9
:103A9000EBE73D46C1E72B2C04BFAF1C6C78B64664
:103AA000C8E7A4F14105192D01D8373CE2E7A4F19C
:103AB0006105192D04D8573CDCE74FF0FF36E5E7E8
:103AC000731C06D122234046CCF8003042B9BDE831
:103AD000F087BEF1000F00D04042002AF7D006B1B7
:103AE000791E1160F3E73024002BB1D10823AFE732
:103AF000302CA5D00A23ABE7DF5B000813460A464B
:103B0000014602480068FFF783BF00BF4004002061
:103B10000A44914200F1FF3300D1704710B511F80B
:103B2000014B914203F8014FF9D110BD10F8012B60
:103B300011F8013B012A28BF9A42F7D0D01A7047EA
:103B4000034613F8012B002AFBD1181A01387047DD
:103B500030B50024A24201D1002007E0035D01340A
:103B60000D1915F8015CAB42F4D0581B30BD8842EA
:103B700010B501EB020307D8421E99420AD011F892
:103B8000014B02F8014FF8E78342F5D98118D21AA8
:103B9000D34200D110BD13F8014D01F8014DF7E7F4
:103BA00003460244934200D1704703F8011BF9E732
:103BB000F0B50C7864B103461A7818465E1C0AB951
:103BC000104605E0944208D10D4615F8012F02B9C0
:103BD000F0BD13F8017F9742F7D03346ECE770B59C
:103BE0000446013902B970BD234611F8015F561E23
:103BF00003F8015B2DB91444A342F4D003F8015B30
:103C0000FAE71C463246EDE7B1F5007F21D2F8B560
:103C1000104D0B462A8804460A44B2F5007F0E4F29
:103C20000BD309213E460D4A298007CA03C62988BD
:103C300032801944B1F5007F0AD221461C462888FB
:103C40001A463844FFF764FF2B8823449BB22B802D
:103C5000F8BD70477808002064060020F45C000876
:103C60002DE9F843DFF86490164CB9F80060DFF8EE
:103C70005880B6B23C2E354628BF3C2504F11007CB
:103C800054F8043B13B1294640469847BC42F7D14B
:103C900036B1B9F800309D4204D30023A9F80030B2
:103CA000BDE8F883B9F800200748521B4119FFF717
:103CB0002FFFB9F800305D1BADB2A9F80050BDE888
:103CC000F88300BF68080020640600207808002000
:103CD00010B50446FFF734FF01462046BDE810400A
:103CE000FFF792BF704700BFF0B1114A30B41346DE
:103CF000154602F1100453F8041B81420CD0A34274
:103D0000F9D1002352F8041B49B10133042BF9D136
:103D100030BC4FF0FF307047002030BC704745F892
:103D20002300084630BC70474FF0FF30704700BF9B
:103D300068080020034B1B889BB203B97047FFF74C
:103D40008FBF00BF7808002038B56424074D01E01C
:103D5000013C0AD02B889BB23BB12B889BB2002B35
:103D6000F6D0FFF77DFF013CF4D138BD7808002084
:103D7000F0B50A2100251D4A1D4F85B0B0FBF2F4B5
:103D800004F13003DBB2392B2AD8A7FB02C6302B53
:103D900002FB14004FEAD60200D835B10A2D04DC2C
:103DA00004AC2C4404F80C3C01350139E6D1A5B92A
:103DB000302301258DF80430002304AA154405F8AA
:103DC0000C3C002301A88DF80E30FFF7B9FE014628
:103DD00001A8FFF719FF05B0F0BD0A2DF1DCEBE7F4
:103DE0000448FFF775FF05B0F0BD00BF00CA9A3B5D
:103DF000CDCCCCCCE85C0008031E0DD001DBFFF776
:103E0000B7BF10B51C4606480121FFF7FDFE604212
:103E1000BDE81040FFF7ACBF01210248FFF7F4BE38
:103E2000E45C0008E05C0008037803B97047FFF722
:103E30004FBF00BF08B503780BB1FFF749FFBDE8DE
:103E4000084002210148FFF7DFBE00BF005D000807
:103E500008B5FFF7D1FFBDE8084002210148FFF790
:103E6000D3BE00BF005D0008FFF7C6BFFFF780BFED
:103E700000B5030903F13002392AC8BF03F1570224
:103E800083B0C8BF52B28DF80420002200F00F00AA
:103E900000F13003392BC4BF573043B201A88DF86D
:103EA00005308DF80620FFF74BFE014601A8FFF70D
:103EB000ABFE03B05DF804FB10B50446000EFFF73F
:103EC000D7FFC4F30740FFF7D3FFC4F30720FFF782
:103ED000CFFFE0B2BDE81040FFF7CABF08B5FCF75E
:103EE0004FFF00F031F80E4B1B78A3B100F03CF807
:103EF00000F04AF800F040F800F046F800F034F81E
:103F000000F042F800F038F800F03EF80548FFF7FE
:103F100091FF00F029F8BDE80840FCF737BD00BF6D
:103F20008C080020045D00080122024B1A70FFF784
:103F3000D9BE00BF8C0800204FF47A70FCF7FEBC9D
:103F400005F07EBA05F0A4B910B54FF44170FCF746
:103F50001DFEBDE810404FF400530022022101482D
:103F6000FCF76CBE001001404FF400510148FCF713
:103F7000F9BD00BF001001404FF400510148FCF7AB
:103F8000EFBD00BF00100140024B00BF013BFCD160
:103F9000704700BF60E3160038B53B4B3B4D3C4AD1
:103FA0001C782860116004B138BD012539481D70A6
:103FB000FFF740FFFCF790FE2046FEF703F8284687
:103FC000FEF700F80220FDF7FDFF3348FFF732FF50
:103FD000FFF7B0FE4FF46770FCF7D8FD40F29B305E
:103FE000FCF7D4FDFCF7C2FD0520FCF77DFE2B4D50
:103FF0002B4B1C602C60FCF76FFEFDF731FF4FF67A
:10400000FF73284A2848294904600C601460446101
:104010004B61D360FDF730FF2A462B6823F008037D
:104020002B6013681B07FCD52020FDF751FF2048AB
:10403000FFF700FFFFF77EFE0020FDF775FF4FF052
:10404000FF30FDF725FF00214FF40030FDF7CCFED7
:104050004FF40030FDF7F0FE0320FDF7B7FE2920F6
:10406000FDF7B4FE72B60020FDF7DAFF0120FDF780
:10407000D7FF0220FDF7D4FF0020FDF775FF0120D8
:10408000FDF772FF62B638BD8D0800208008002061
:1040900084080020205D0008385D000804280040E6
:1040A0000028004018280040082800400C28004044
:1040B000485D000810B50A4B82B01B6804465BB12E
:1040C000FDF726FF0190FCF751FD0198204402B056
:1040D000BDE81040FDF7DCBE0248FFF7A5FEEFE7A4
:1040E00084080020185D0008FDF712BF08B50548D8
:1040F000FFF7A0FEFFF71EFE0122034B00201A70FF
:1041000008BD00BF585E0008600B002008B5084BD2
:10411000186850B1FCF726FF00F034FA054B064A48
:10412000186019681160186808BD4FF0FF3008BDAD
:10413000B4080020B0080020A40800202DE9F04FAA
:104140008D4C89B025681DB1012009B0BDE8F08F04
:104150008A4808AEFFF76EFE00F090FD06F81C5D81
:104160008748FFF767FE1821304600F007FE8548B4
:10417000FFF760FE304600F061FA00F06BFD0228A8
:1041800002D1814B83F308888048FFF753FE00F08B
:10419000A3F9206000F05EFD012806D17C48FCF701
:1041A0003DFC002009B0BDE8F08F0025794E7A4F24
:1041B000DFF84C82DFF84C923B4642464946304697
:1041C0003560FCF795F9754D28607548FFF72CFEB2
:1041D0002B68002B40F0A1807248FFF725FE306865
:1041E000FFF76AFE7048FFF71FFED9F80000FFF7DF
:1041F00063FE6E48FFF718FED8F80000FFF75CFE7C
:104200006B48FFF711FE3868FFF756FEFFF79CFD7D
:104210006848FFF709FE33681868FFF74DFEFFF79F
:1042200093FD6548FFF706FEFFF78EFD2B68EBB99F
:104230003268DAB10121614ED9F800E0D8F800C047
:104240003868C6F800E0C6F804C03173B060737314
:10425000B373F3739047336959482B60FFF7E4FD5C
:104260002868FFF701FE5448FFF7E4FD5548FFF7C3
:10427000E1FDFFF75FFDFFF75DFD534800F04CFDEA
:104280004FF000094FF4FA78DFF87CB14F4F504EF1
:10429000DFF878A14F4D2068FCF764FEDBF80030B2
:1042A0000133B3F52F7FCBF80030F4D33B68CBF864
:1042B0000090A5FB0320400908FB1030312803F1D2
:1042C00001038CBF002001203B6000F0CBFC4FF4C9
:1042D0007A713268A5FB02039B0901FB13230132AB
:1042E0003260002BD7D100F04DF90028D3D1FFF771
:1042F00021FD9AF80030002BCDD03748FFF79AFD0A
:10430000FFF722FD354B00BF013BFCD13448FFF7DE
:1043100091FDFFF719FDFCF71BFC3248FFF784FD08
:104320002868FFF7A1FD3048FFF77EFD2B68DA1CF7
:1043300020D02E48204A13F1040F18BF1046FFF773
:1043400073FD1E4B5869FFF7B7FD2B6804337FF4EC
:1043500068AF2748FFF768FD264820F47F7020F0FB
:104360000300FFF7A9FD2448FFF75EFD3868FFF75B
:10437000A3FD56E72148E2E7B4080020685D000885
:10438000785D0008985D0008BC470020B05D00081B
:104390000D41000890080020980800209408002093
:1043A000BC5D0008CC5D0008D45D0008DC5D000841
:1043B000E45D0008EC5D0008605B00080000002080
:1043C0001C5E0008305E0008ED400008A8080020D0
:1043D00044040020D34D6210405E0008809698008F
:1043E000505E0008F85D0008F05F0008645D00089A
:1043F000045E000801700008105E0008585D0008A7
:10440000AC080020A00800209C080020600B0020C1
:1044100008B500F081FC002008BD00BF024B1A78EF
:104420000AB901221A707047620B0020094B1B6801
:104430006BB110B4084C24782CB10A4610BC01466C
:10444000184600F00BBD4FF0FF3010BC70474FF026
:10445000FF30704754090020610B002008B5FFF7BA
:1044600043FE014B186008BD34090020044B1A7844
:1044700002B17047012203481A70FFF735BC00BF34
:10448000610B00202D440008F8B54FF6FF739942E8
:1044900005460BD00E460D4C04F1280754F8043B9A
:1044A00023B1314628469847BC42F7D1002228461E
:1044B0001146074BFCF73AFE002800DBF8BD054823
:1044C000FFF7B8FCBDE8F840FFF734BCB80800209F
:1044D000214800086860000810B584B000F006FCB0
:1044E0004FF4807109221B4B0291CDE900231A4938
:1044F0001A4B1B4AFCF7EEFC1A4C1B492060FCF7D8
:1045000013FD2068194900F0F9FC2068184901F0F2
:10451000EBF82068174901F0ADF92068164900F062
:1045200045FA2068002100F0EFFA20681349FDF7F2
:104530001FF9002807DB20684FF6FF71FFF7A4FF83
:10454000206804B010BD0E48FFF774FCFFF7F2FBC3
:10455000F1E700BF600A0020605F000850040020FF
:10456000185F0008540900205D4400086D440008ED
:104570001D440008C85E00081C610008894400084A
:104580003861000810B5094C82B0206860B1FFF7AF
:10459000ABFD01902368019A03F59C5308339342C5
:1045A00096BF00200120206002B010BD300900201D
:1045B00010B50C4C0023224652F8040B78B1884207
:1045C00003F1010309D00A2BF6D10748FFF732FCAB
:1045D000FFF7B0FB4FF0FF3010BD002010BD44F8D6
:1045E000231010BDB8080020A05E0008F8B5114FD8
:1045F00000253C466068B0B1267801358E4204D172
:104600006678964201D198420BD00A2D04F1080435
:10461000F0D10948FFF70EFCFFF78CFB4FF0FF309D
:10462000F8BD0020F8BD07EBC50407F8351062702F
:104630006360F8BDE0080020785E000810B5002433
:10464000044B1C7028B1014618221846FFF7C7FA20
:10465000047610BD3809002070B515460C46FFF7EA
:10466000E3FB0E48FFF7E0FB2846FFF7FFFB0C4893
:10467000FFF7DAFB002D0BDD013C084E254414F852
:10468000010FFFF7F5FB3046FFF7CEFBAC42F6D14A
:10469000BDE870400348FFF7CDBB00BFF05F0008E6
:1046A000745F0008605B000870B50C46FFF7BCFB48
:1046B00049486588FFF7B8FB2078FFF7D9FB4748E2
:1046C000FFF7B2FB6078FFF7D3FB4548FFF7ACFB81
:1046D00060882E0A000AFFF7CBFB6088C0B2FFF7A4
:1046E000C7FB4048FFF7A0FBA088000AFFF7C0FB0C
:1046F000A088C0B2FFF7BCFB3B48FFF795FBE08802
:10470000000AFFF7B5FBE088C0B2FFF7B1FB2378E2
:10471000CBB96378052B43D0092B0CBF3348344801
:10472000FFF782FB3348FFF77FFB3046FFF7A0FB24
:104730003148FFF779FBE8B2FFF79AFBBDE870401C
:104740002E48FFF777BB802BF8D16378062BE3D197
:104750002B48FFF769FB731E0E2BE3D801A252F81A
:1047600023F000BFD1470008C9470008C14700082F
:10477000B9470008B1470008254700082547000849
:104780002547000825470008254700082547000859
:10479000254700082547000825470008A9470008C5
:1047A0001848FFF741FBBDE71748FFF73DFBB9E7A6
:1047B0001648FFF739FBB5E71548FFF735FBB1E7BA
:1047C0001448FFF731FBADE71348FFF72DFBA9E7CE
:1047D0001248FFF729FBA5E7785F0008805F000813
:1047E000885F0008905F0008E45D0008E45F00084F
:1047F000F45F0008F85F0008FC5F0008605B0008D9
:10480000985F0008D45F0008CC5F0008C45F000810
:10481000BC5F0008B45F0008AC5F0008A45F00083C
:104820002DE9F04F0C7883B00E46814692469846AB
:10483000DDF830B014B94B78052B31D0234C04F19E
:104840005007656895B16178337822780B409A42B9
:1048500004F1080408D1CDF800B043465246314671
:104860004846A847012814D9BC42EAD1FFF73CFCCE
:104870000246174B17481A60FFF7D6FA3378802B99
:1048800002D17378062B07D013483146FFF70CFF8F
:10489000022003B0BDE8F08F022003B0BDE8F08F26
:1048A000FFF722FC02460A4B0A481A60FFF7BCFADF
:1048B0000A48FFF7BFFA4346524631464846A8F831
:1048C000004003B0BDE8F04FFCF76CBFE0080020EB
:1048D000300900204C5E0008745E00086C5E000821
:1048E00008B57F22064B4021FFF780FE002800DB41
:1048F00008BD0448FFF79EFABDE80840FFF71ABA62
:1049000009490008A861000808784030C0B20128B1
:104910001ED82DE9F04148780C46222815D11D46B5
:104920008B88022B16D14C880CB1012C17D01A4859
:10493000FFF77AFA2046FFF799FA1848FFF77AFA54
:10494000FFF7F8F90020BDE8F0810220BDE8F08112
:10495000022070471248FFF767FAA088EBE711487A
:104960001768FFF7A1FE104BD3F800804046FFF711
:10497000E7F80323C618F6B202467B703E70F818BB
:104980004146BC70FFF7C4F82B8820469E4228BFE2
:104990001E462E80DAE700BF50610008605B000809
:1049A000746100086C610008580900200F4A10B5B6
:1049B0000F4B11607F2240210446FFF717FE0028AD
:1049C0000DDB20460B49FFF7F3FD002800DB10BD8F
:1049D0000948FFF72FFABDE81040FFF7ABB90648CA
:1049E000FFF728FAFFF7A6F9EBE700BF5809002008
:1049F00009490008E1480008C8610008F8B50D78C9
:104A000005F14000C0B201280BD84878212808D110
:104A1000C02D1F4616468B8805D1072B24D0042BAA
:104A200015D00220F8BD052BFBD1154A4B88127C0E
:104A3000DBB29A42F5D11348FFF736FE3B88124AA3
:104A4000922B28BF9223326001203B80F8BD0F4893
:104A5000FFF72AFE0A4A3B88116801208B4228BFD3
:104A60000B4632603B80F8BD0948FFF71DFE3B88CE
:104A7000084AB22B28BFB223326001203B80F8BD28
:104A800028050020A0620008E06100089862000884
:104A9000906200087404002008B56022064B402193
:104AA000FFF7A4FD002800DB08BD0448FFF7C2F9AA
:104AB000BDE80840FFF73EB9FD490008B0620008B4
:104AC00038B50C7814F0600F17D14C78062C14D13F
:104AD0004888040A032C10D1C0B2EE280DD11C4620
:104AE00007481546FFF7E0FD2388064A122B28BF2A
:104AF00012232A600120238038BD022038BD00BF68
:104B0000A8620008E8620008114B70B519741149D9
:104B10000446FFF74DFD104B05466022402120461C
:104B2000FFF764FD0D4B06461F2220460021FFF7CC
:104B30005DFD002D04DB002E02DB002800DB70BDD4
:104B40000748FFF777F9BDE87040FFF7F3B800BFFB
:104B500028050020994A0008FD490008C14A0008BC
:104B6000D062000838B52F4D2C6804F47F43B3F5AC
:104B7000354F15D004F07F43B3F1354F10D02A489C
:104B8000FFF752F92846FFF797F92848FFF74CF945
:104B90002046FFF791F92648FFF74CF9002503E07E
:104BA0002448FFF747F90125002000F09BFE002173
:104BB0000446084600F07AFE1F4B9C422ED003F1BB
:104BC000A65303F54D2303F618539C4209D1022442
:104BD0001A4B1B481C70FFF72DF91A4B20461C700E
:104BE00038BD0023154C23703DB91748FFF722F953
:104BF0000223144A1846137038BD1448FFF714F9FD
:104C000020780B4A124B012814BF10461846FFF7B4
:104C100011F901230B4A1846137038BD0123074CC4
:104C20002370E1E7007000081463000824630008A3
:104C3000605B0008086300082A72823F630B002053
:104C400028630008640B00204863000868630008BC
:104C5000FC620008024B187800B17047FFF782BF72
:104C6000640B00204FF4005110B90348FBF778BFE4
:104C70000148FBF777BF00BF0010014008B540F2C4
:104C80000230FBF783FF40F20330FBF77FFF4FF466
:104C90004170FBF77BFF40F29730FBF777FF4FF453
:104CA00000510F48FBF75CFF01224FF400531146FF
:104CB0000B48FBF7C3FF4FF4805300220121094842
:104CC000FBF7BCFF10210648FBF74CFF064B00BF6B
:104CD000013BFCD1044B00BF013BFCD108BD00BF30
:104CE0000010014000080140400D030008B540F2EB
:104CF0001720FBF759FF4FF480510448FBF732FFB0
:104D0000034B00BF013BFCD1024808BD0008014035
:104D100000350C00905B000810B504460548FFF70D
:104D200083F82046FFF7C8F8BDE810400248FFF7B7
:104D300081B800BF9C630008605B000808B50548A7
:104D4000FFF778F8FFF700F80349002000F0AEFD08
:104D5000FBF7FEFE806300082A72823F08B5054813
:104D6000FFF768F8FEF7F0FF0349002000F09EFD12
:104D7000FBF7EEFE8C630008424F4F540131FBF706
:104D800025BF00BF0148FFF755B800BFCC6300083E
:104D900010B5154A82B04023009203210222044636
:104DA000FCF7E4F8002320460093022240238321ED
:104DB000FCF7DCF80D4B20460093032210238421DE
:104DC000FCF7D4F820460A4B7F222121FFF70EFC86
:104DD000002801DB02B010BD0648FFF72BF802B037
:104DE000BDE81040FEF7A6BFB14E0008854D000893
:104DF000F94D0008FC63000810B5497821290AD054
:104E0000222906D0202901D0022010BD1A88062AA6
:104E10000AD9012010BD1988062905D907210B4C94
:104E200001201460198010BD1C460948FEF7FCFFE4
:104E30000720FFF71BF80748FEF7F6FF2088FFF76B
:104E400015F80548FEF7F6FF002010BD1C640008A9
:104E5000D4630008E45D0008605B0008F8B5134BFC
:104E60001B7803B30746F0B10E46E1B1144692B188
:104E7000402A12D9402C254628BF402532462B46D1
:104E800083213846FCF77AF8641B8542A4B202D12C
:104E90002E44002CEED10020F8BD13460A46832193
:104EA000FCF76CF8F8BD4FF0FF30F8BD650B002043
:104EB00070B50F4D40232A4603210646FCF766F8DD
:104EC000A8B1402828BF402000210A4B84B21A789C
:104ED00029552AB90121084A1970136803B1984766
:104EE00022463046BDE870400149FFF7B7BF70BDAC
:104EF00060090020650B00205C09002008B5074B05
:104F000019600749FFF754FB002800DB08BD05487E
:104F1000FEF790FFBDE80840FEF70CBF5C090020DB
:104F2000914D0008B463000810B5044682B00B48E8
:104F3000FEF780FFFEF708FF094B20460093022290
:104F400040238221FCF712F80222064B20460093F0
:104F500011464023FCF70AF802B010BD00660008B5
:104F600099560008615000082DE9F04182B0019186
:104F700005461646002140222A48FEF711FE72B669
:104F8000019B1BB962B602B0BDE8F081019B3E2BCC
:104F900034DD3F24402E08BF2346274618BF46EA8B
:104FA0000403DFF8808022464046294600F8013B92
:104FB000FEF7AEFD019B1B1B019362B61A4B4246E6
:104FC000186882214023FBF7D9FF019B23B3174BBD
:104FD0002C441C600199164A164B022F11601E705A
:104FE00012DD1548FEF720FF781CC0B2FEF740FF27
:104FF000124802B0BDE8F041FEF71CBF019C46EA32
:105000000403DBB22746CCE706490D487A1C02B000
:10501000BDE8F041FFF720BB054A022F1360E0DC3A
:10502000F2E700BF140A0020A4090020C8090020EC
:10503000CC090020680B002048660008605B00086F
:105040004066000810B504460448FEF7EDFE204611
:10505000FEF7F0FEBDE81040FEF776BE24640008BF
:105060002DE9F04FA44C40238DB02246FBF78EFF74
:105070000546FFF739F8A14B1860D5B1A04F267847
:105080003C68ACB32088B8B906F03F0904F10208C7
:1050900040444A469B49FEF73BFD258816F0C00672
:1050A0004D44ADB2258004D0402E2AD00023237079
:1050B00063700DB0BDE8F08F33060CD406F03F09E5
:1050C00009EB0003B3F5886FE0DD8F48FFF7BAFF07
:1050D0003C682088DAE78C48FFF7B4FF3C6806F0AC
:1050E0003F09208809EB0003B3F5886FEDDCCDE7BD
:1050F000FFF7B0FD854C864B022808BF1C463C607C
:10510000C0E7844B1A7832B90121834A19701368B9
:105110000BB1984725880022D4F80260E188731EFD
:10512000227162716180072B00F25881DFE813F071
:105130001E01C400BA00A90095002900560108000C
:105140007648FEF777FEFEF7FFFDFFF783FD0128A7
:1051500000F0BE81102D02D07148FFF773FFD4F824
:105160000E50D4F80A10AD002A46A01D0435FEF7F3
:10517000CFFC0995099940464022FFF7F5FE3C68AF
:1051800094E7FFF767FD012800F07E81D4F80A500C
:10519000B4F800A0B5F1006FC0F073816149624BB3
:1051A000624A05F5807B8B4594BF9B469346604ED3
:1051B000D4F802203368DFF8A8919A4214BF5D4802
:1051C0005D48C9F80020FEF72FFE2846FEF774FE62
:1051D0005846FEF729FE594A1378591C1170002BC6
:1051E00040F0738104230B93D9F80030DFF87491F9
:1051F00040460B9940223360DFF86C81FFF7B4FE24
:10520000D9F81060D8F8003026F47F7626F003062F
:1052100006F1784B002B00F0F880B5F1006F00F03C
:10522000F480474A1168002900F009819D42C0F0CE
:105230001281AB4200F08E81BAF5867F02D03848E9
:10524000FFF700FFB5F1006F05D3364B05F580720F
:105250009A4240F20D813C6828E73A48FEF7EAFDA1
:1052600004230693069940464022FFF77DFEFEF791
:105270006BFDFFF7EFFC0128EDD1FFF76FFD3C68F8
:1052800014E73148FEF7D6FD042302240393039963
:105290002E4B404640221C70FFF766FEFEF754FD81
:1052A0003C6803E72A48FEF7C5FD00F027FB04230E
:1052B000049301240499EBE72648FEF7BBFD26483A
:1052C000FEF73EFC0546002800F0FB80542802D97A
:1052D0002248FFF7B7FE2A46A01D1F490435FEF7F6
:1052E00017FC0895089940464022FFF73DFEFEF75F
:1052F0002BFD3C68DAE600BFD0090020100A002030
:10530000C0090020D109002030640008780C00207A
:10531000BC470020660B0020AC090020E4650008B3
:10532000AC65000800000108F05F00083C6400085C
:10533000C4090020A4640008745E0008670B002004
:10534000B409002084640008D8650008690B0020B7
:10535000CC65000854640008F0660008706400081A
:10536000A809002050010008B0090020AE48FEF74F
:1053700061FDFFF76FFC182102284FF0000318BFF2
:10538000022640224FF0100E6FF01D0C4FF0010B63
:105390004FF0040A4FF072095E250791A372237340
:1053A0006373A3732374637423756375A27484F8A1
:1053B00017E084F818C0C4F806600799404684F8DE
:1053C0000BB084F80FB084F813A084F816906576BB
:1053D000FFF7CAFDFEF7B8FC3C6867E69348FEF7A6
:1053E00023FD3046FEF742FD9148FEF723FDFEF710
:1053F000ABFC042100220123029162710299404614
:1054000023714022FFF7B0FD25E78A48FEF712FD21
:10541000FEF79AFC0020D9F81030D9F80C1023F4CC
:105420007F7222F00302C8F80020834A03F1784318
:105430001360824B824A01F1784119601060C9F310
:105440000903334318687F49884246D0D8F80030B2
:105450009D42BFF4F1AE5D44B5F1006F25D37A4BA8
:1054600005F580729A4220D8BAF5867F7FF4E7AEC0
:1054700004F10E0128464FF4807200F09BFA3C685C
:1054800014E6DFF810B292E67048FEF7D3FCFEF7A0
:105490005BFC04230224059305996D4B4046402292
:1054A0001C70FFF761FD3C6800E66A48FEF7BCFC33
:1054B0002846FEF701FD5E48FEF7BCFCFEF744FC03
:1054C000BAE66548FFF7BEFD05E7FEF733FC89E65F
:1054D00004230A9302240A99DFE758695F49884246
:1054E000B4D1136001921969DFF84C9121F47F71F6
:1054F00021F0030101F17840C8F80010C9F800005C
:10550000DB684E4903F1784355480B600091FEF784
:105510008BFCD8F80000FEF7CFFC5248FEF784FC65
:10552000D9F80000FEF7C8FC4F48FEF77DFC009953
:105530000868FEF7C1FC3E48FEF77CFCFEF704FC61
:10554000D8F80030019A9D4285D31268002A7FF472
:1055500070AE71E64548DFF8E0800093FEF76AFC24
:10556000FEF7F2FB00F0CAF94148FEF763FCFEF7D4
:10557000EBFBD8F800204FF000613046FEF7E8FA68
:1055800090B93C48FEF750FC3046FEF795FC3A488F
:10559000FEF74AFCD8F80000FEF78EFC2448FEF720
:1055A00049FCFEF7D1FB47E6009B34489B44FEF7DD
:1055B00041FCFEF7C9FB3248FEF736FC1F4C58464B
:1055C000FEF77AFC2C48FEF72FFC2068FEF774FCEF
:1055D0001748FEF72FFCFEF7B7FB22683146584606
:1055E00000F0E8F900F08AF92648FEF71DFC58465D
:1055F000FEF762FC2448FEF717FC2068FEF75CFC0F
:105600002248FEF711FC3046FEF756FC2048FEF714
:105610000BFCD8F80000FEF74FFC0548FEF70AFC2B
:10562000FEF792FB29E600BF44640008F06500081D
:10563000605B0008B4640008BC090020B8090020C1
:10564000B4090020691905220000010894640008CB
:10565000690B0020F86400086064000822056919DD
:10566000C4640008D8640008E864000814650008F1
:105670002865000894650008686500084065000812
:10568000546500087065000888650008045E00081D
:10569000105E00083C64000810B50F4C236843B945
:1056A00023682BB90D490A78022A0FD0012A08D0A5
:1056B00010BD0B4B0B4A216812781868FFF754FC99
:1056C000EEE7BDE810400B70FFF738BBBDE81040B7
:1056D0000B70FFF743BB00BFCC090020690B002013
:1056E000C8090020680B002038B50D46044615484F
:1056F000FEF79AFB1448FEF7DFFB1448FEF794FB15
:105700001348FEF7D9FB1348FEF794FB124A134BDC
:1057100014601D60FFF79EFA02280BD02046104946
:10572000FEF746FF002800DB38BD0E48BDE83840D4
:10573000FEF780BB40F2424200210B48FEF730FAF0
:10574000ECE700BF10660008007000082066000843
:1057500000000108605B0008A4090020AC090020DB
:10576000294F000828660008BC47002008B5FF2222
:10577000064B8021FEF73AFF002800DB08BD0448F5
:10578000FEF758FBBDE80840FEF7D4BA955700086D
:10579000506600084888000A0F280ED12DE9F04F06
:1057A000314F85B03D680193164645B14B78062BC5
:1057B0000CD0022005B0BDE8F08F022070472B48C6
:1057C000FEF738FBFEF7B6FA2846F3E72848FEF75F
:1057D0006BFFD7F800B0019B9BF800801C883068F5
:1057E000A04528BFA046054642465946039402906C
:1057F000FEF78EF99BF80420A4EB080705EB080AD6
:10580000BFB29BF8005002B30026A946DBF8053072
:10581000504653F8265001362C782946BC4228BF02
:105820003C462246FEF774F92B789BF8042009EBDE
:105830000305B3B23F1BA0449A42BFB21FFA88F8D7
:10584000A2441FFA85F9E1D84D46039B0120434548
:1058500028BF43469846029B5D80019BA3F80080C9
:1058600005B0BDE8F08F00BF540A00208466000830
:10587000A466000810B50446094B19600021FFF723
:1058800075FF20460749FEF793FE002800DB10BD98
:105890000548FEF7CFFABDE81040FEF74BBA00BF4F
:1058A000540A00206D5700086C66000838B505469C
:1058B0000C464FF46770FBF769F940F29B30FBF739
:1058C00065F9FBF753F9064A6B00A1B20133240CCA
:1058D00022F8351022F82340BDE83840FBF74EB9D6
:1058E000046C0040044A4300013332F8231032F8BC
:1058F000300040EA01407047046C004070B5234B13
:10590000234C1A682168234B1A604B1C0ED0224B83
:105910001A780AB100221A70204E4FF48062304685
:10592000FEF716F918B94FF0FF33236070BD1C481D
:10593000FEF77AFA2068FEF7BFFA1A48FEF774FA03
:1059400000230422184D21682B726E60AB72EB723B
:105950002B736B73AB73EB7329606A72FAF704FCF9
:105960002D69002D03DD6D10B5F5007FDBD00F48EC
:10597000FEF75AFA2846FEF777FA0D48FEF75AFA6C
:10598000FEF7E2F94FF0FF332360CFE75C0A002017
:1059900050050020580A002054050020004C00202B
:1059A000A8660008F05F000800000020AC66000850
:1059B000605B0008B0F1006F2DE9F84F04460E4619
:1059C00015463FD32C4B02449A423BD8B1F1006FAD
:1059D00038D36A189A4208D9B1F1005F32D303F183
:1059E000C053A3F530439A422CD8002D28DDDFF8B0
:1059F0008C90DFF89C80DFF89CA0B5F5806F2F4677
:105A0000A8BF4FF48067D8F8002004EA0A0B93453A
:105A1000A5EB070509D0FFF771FF59464FF48062E7
:105A20001648C8F800B0FEF773F8C4F30900314611
:105A300048443A46FEF76CF8002D3C443E44DCDC1A
:105A4000BDE8F88F0E48FEF7EFF92046FEF734FA6E
:105A50000C48FEF7E9F93046FEF72EFA0A48FEF741
:105A6000E3F92846FEF728FA0848FEF7E3F9BDE80F
:105A7000F84FFEF769B900BFFFFF0008004C002097
:105A8000C8660008DC5D0008E45D0008605B000893
:105A90005005002000FCFFFF2A2A2A2068616C20A4
:105AA0006273732F64617461206661696C65642C34
:105AB000206273735F74657374203D2000000000E2
:105AC0002C20646174615F74657374203D20000054
:105AD000757B20007D200000613F20002D2D2D2DA5
