:020000040800F2
:1000000000500020510100087D0600087906000814
:10001000790600087906000879060008000000004B
:100020000000000000000000000000007D06000845
:100030007D060008000000007D0600087D0600081F
:10004000790600087906000879060008D93D0008FD
:100050007906000879060008790600087906000884
:100060007906000879060008790600087906000874
:100070007906000879060008790600087906000864
:100080007906000879060008790600087906000854
:100090007906000879060008790600087906000844
:1000A0007906000879060008790600087906000834
:1000B0007906000879060008790600087906000824
:1000C0007906000879060008790600087906000814
:1000D0007906000879060008790600087906000804
:1000E00079060008093E000879060008790600082C
:1000F00079060008790600087906000879060008E4
:1001000079060008790600087906000879060008D3
:1001100079060008790600087906000879060008C3
:1001200079060008790600087906000879060008B3
:1001300079060008790600087906000879060008A3
:100140007906000879060008790600087906000893
:1001500038B53C4A3C4CA2420FD2D3431546234407
:100160003A4923F0030304330846194450F8044B7A
:10017000884245F8044BF9D11A44354B9A420DD2C6
:100180000333111D5B1A23F00303043300201344CF
:1001900000E00431994210600A46FAD12D4A2E4DF2
:1001A00013682E4C43F40073136000F0D1F900F093
:1001B000F5F82B681BB92A4B22689A420CD02948C3
:1001C00003F0ACFC286803F0EFFC274803F0A6FC22
:1001D000206803F0E9FCFEE7244C25498C420BD251
:1001E000E3430B4423F00303043325461C4455F832
:1001F000043B9847A542FAD11E4C1F498C420BD2B2
:10020000E3430B4423F00303043325461C4455F811
:10021000043B9847A542FAD103F044FE174C06F080
:10022000EFFA17498C420BD2E3430B4423F003034C
:10023000043325461C4455F8043B9847AC42FAD198
:1002400038BD00BF0000002040050020605E0008AF
:100250009C0C002014ED00E0340B00200000002076
:10026000214365876053000888530008605E0008DA
:10027000605E0008605E0008605E0008605E000866
:10028000605E00082DE9F041184E336833B398479B
:10029000174DDFF86C8028602B68C8F800302B6899
:1002A000002B02DD134803F039FC2B680027002BDC
:1002B0000DDD0A242F60336898472B68013C1843F2
:1002C000A4B22860002CF6D12B68002BF1DCD8F802
:1002D0000030002B02DD084803F020FC074B1B68B0
:1002E00003B19847BDE8F04101F058BD500500202A
:1002F00040050020985300089C5300084405002046
:100300004C050020074B1B6803B1184710B503F0DC
:1003100093FDC72800D910BD0348BDE8104003F085
:10032000FDBB00BF48050020A053000870B504467F
:10033000164803F0F3FB1648FF26A0FB04308009A3
:1003400003F00CFC03F078FD124D044400E020BFE4
:1003500003F072FD844210D901F024FD0028F6D08C
:1003600001F020FD0028F2D02E7001F08BFDFF2857
:10037000287007D001F02CFEE9E70748BDE870407F
:1003800003F0CCBB01F0EEFCE1E700BFFC5300083A
:10039000D34D62103C0C00200454000808B5084BF3
:1003A0001A7802B108BD01221A7003F00FFC01F0A7
:1003B000DBFC04490448BDE8084003F065BC00BF0D
:1003C000580500200503000885020008024B1B7831
:1003D00003B120BF704700BF5805002010B1034B88
:1003E0001B7803B97047FFF7A1BF00BF5805002075
:1003F000054BA3FB0030800902D0044B1B7803B9E6
:100400007047FFF793BF00BFD34D6210580500201F
:1004100008B5034803F088FB03F006FB00F030F951
:10042000D0530008024B1868C0F30800704700BFA3
:1004300004ED00E062B6704772B6704708B5024836
:1004400003F072FB002008BDE453000808B5034820
:1004500003F06AFB024B186808BD00BFA4530008F4
:10046000147AFF1F08B5044672B6054803F056FB20
:10047000204603F067FB03F0D7FA20BFFDE700BF7B
:10048000BC5300080048704700500020402008F08E
:10049000D7BB00BF8163704741637047C16370473A
:1004A000C06B704768467047406B7047C0E90012E8
:1004B0008360704738B5144B14481D68144C03F022
:1004C0002DFB284603F070FB124803F027FB204663
:1004D00003F06AFB104803F021FB601B800A03F065
:1004E000C1FA0E4803F01AFB6B46C3F1005000F549
:1004F000A040800A03F0B6FA094803F015FBBDE8F6
:10050000384003F091BA00BF0400002008540008EE
:100510000048002018540008205400082C540008FB
:1005200040540008704700BF00207047014B18601E
:10053000704700BF44050020014B1860704700BFA2
:1005400048050020014B1860704700BF500500208F
:1005500003F062BB002815D0006041608260C36078
:10056000046145618661C761444604624C46446249
:10057000544684625C46C462644604636E464663C5
:1005800074468463002906D0C46B043C0439256892
:100590000D60B442F9D1946BA646566BB546002B5C
:1005A00006D0D46B043C043B1D682560B442F9D1ED
:1005B000146BA446D46AA346946AA246546AA14620
:1005C000146AA046D769966955691469D368516859
:1005D000106892687047006041608260C360046187
:1005E00045618661C761444604624C464462544694
:1005F00084625C46C462644604636E464663744625
:100600008463C46B043C043925680D60B442F9D19D
:10061000C769866945690469704700604160826006
:10062000C360046145618661C761444604624C460B
:100630004462544684625C46C462644604636C4609
:1006400044637446846304697047846BA646446BB4
:10065000A546046BA446C46AA346846AA246446ABB
:10066000A146046AA046C769866945690469C368EA
:100670008268006841687047FEE700BF704700BFAE
:10068000014B024A1A60FEE70CED00E00400FA0597
:10069000024B0349034A19601A6070470420024064
:1006A00023016745AB89EFCD024A136843F080030D
:1006B0001360704710200240016170470904016116
:1006C000704700BF024A136843F480731360704799
:1006D00000700040024A136823F48073136070476F
:1006E000007000400122430903F1804303F5043305
:1006F000196800F01F0002FA00F008431860704704
:100700000122430903F1804303F50433196800F023
:100710001F0002FA00F0014319601A6822EA000083
:1007200018607047192928BF1921F0B40D4688B008
:10073000164F03AE04460FCF0FC63A68144B327003
:100740001A68083B00925A68013D01921B68002D0F
:10075000029316DD002208AB03EB620313F8203C82
:1007600008A800EB131010F8140C03F00F0308AEE8
:100770003344A118A05413F8143C023295424B7034
:10078000E9DC0023635508B0F0BC7047445400080E
:10079000F0F7FF1F064A074B10681B88B3F5007F70
:1007A00082BF054B1B68184300F03500704700BF3F
:1007B0000C200240E0F7FF1F4C20024070B5214C96
:1007C00005460E4600F0E0FE2388B3F5007F14D9FD
:1007D0001D4B9D4226D91D4A136843F00103136047
:1007E0002E8000F0D1FE2388B3F5007F14D9174A7C
:1007F000136823F00103136070BD154A136843F0BA
:10080000010313602E8000F0BFFE2388B3F5007F44
:1008100002D90D4B9D42EAD80D4A136823F001031B
:10082000136070BD0A4A136843F0010313602E8001
:1008300000F0AAFE064A2388136823F00103136020
:10084000EFE700BFE0F7FF1FFFFF0708502002405F
:100850001020024038B5284C054600F095FE23884C
:10086000B3F5007F19D9254B9D4230D9244B25493A
:100870001A6842F002021A600D601A6842F04002E3
:100880001A6000F081FE2388B3F5007F19D91C4A55
:10089000136823F00203136038BD1B4B1B491A6811
:1008A00042F002021A600D601A6842F040021A60BB
:1008B00000F06AFE2388B3F5007F02D90F4B9D42FA
:1008C000E5D8114A136823F00203136038BD0E4BBC
:1008D0000E491A6842F002021A600D601A6842F06E
:1008E00040021A6000F050FE074A2388136823F084
:1008F00002031360EAE700BFE0F7FF1FFFFF0708EE
:100900005020024054200240102002401420024097
:100910002DE9F04743F6F87C066800240F27D0F84D
:1009200004E004E048EA0A060134102C29D043FA16
:1009300004F515F0010FA5B2F6D04FEA840808F1CE
:10094000020907FA08FA02FA09F901FA08F8072C6D
:1009500026EA0A0A49EA0808E4D96544AD00ADB2BE
:1009600005F1020801FA05F902FA08F807FA05F597
:10097000013448EA09082EEA0505102C48EA050E5C
:10098000D5D10660C0F804E0BDE8F087024B1868D6
:10099000C0F34060704700BF00100240024A136875
:1009A00043F080731360704700100240024A1368DE
:1009B00043F40043136070472010024006280AD811
:1009C000DFE800F00404042F041D0A001E4A136827
:1009D00023F44073136070471C4B1A46196841F0AA
:1009E0000101196013689907FCD5174B1A6822F4A6
:1009F00040721A601A6842F400721A607047124B13
:100A00001A46196841F00101196013689807FCD56E
:100A1000136823F440731360136843F48073136006
:100A200070470B4B1A46196841F4803119601368FE
:100A30009B03FCD5044B1A6822F440721A601A68B2
:100A400042F440721A6070472010024024100240A5
:100A50000010024038B52B4B1A46196841F00101CD
:100A6000196013689907FCD527482649036823F0C5
:100A700003030360136843F4803313600B689B0324
:100A8000FCD5214C0220236823F0030343F001032B
:100A90002360236823F0F0032360236843F440437A
:100AA0002360236823F4E06343F4806323602368B6
:100AB00023F46053236000F05DFD236823F470137A
:100AC00043F4E0132360236843F4803323602368F6
:100AD00023F400332360FFF761FFFFF757FF00287F
:100AE000FBD00949094A0B68094D23F0030343F081
:100AF00002030B60074C0848084B2A602260036021
:100B000038BD00BF001002400410024000A24A0499
:100B100008000020100000200C00002000512502D9
:100B200010B540F29730FFF7DDFD00234FF41C4174
:100B3000044A0548054C13600360236004481160B3
:100B400010BD00BF405C0040505C0040445C004071
:100B5000400B00200132521093B25AB1013B9BB2BC
:100B6000013301EB430331F8022B0430994240F882
:100B7000042CF8D1704700BF70B402F0010652088F
:100B80000DD00B46013A92B2013200EB420533F828
:100B9000044B20F8024BA842F9D101EB82010EB1BF
:100BA0000B78037070BC70472DE9F04780460068F1
:100BB0008A4617461E46BDF8289080470025866065
:100BC000089E0B4B0B490C4AC660099EC0F800A05A
:100BD000C0F8DC8047600661A0F81490C0E91B13E0
:100BE0008266C0E93255C0E93455BDE8F08700BFE0
:100BF000310E0008950E0008350F0008816270471D
:100C000070B5002504460368C582D0F8DC2082B0A8
:100C1000DB790095966829462A46B047D4F8DC303F
:100C200029465B6820469847E3691BB102B0BDE8DE
:100C30007040184702B070BDD0F8DC305B6A1847CE
:100C400010B4D0F8DC40A468A44610BC604700BFD4
:100C500010B4D0F8DC40E469A44610BC604700BF83
:100C600010B4D0F8DC40246AA44610BC604700BF32
:100C7000D0F8DC301B691847D0F8DC309B69184786
:100C8000D0F8DC305B69184710B50268838FD179E2
:100C900004469942826B10D30021FFF7D9FF00234D
:100CA00094F84420A3879A420CBF0322022284F8BE
:100CB000443084F82C20A36310BD0B460021FFF7BD
:100CC000C7FF0222236884F82C20D979A26BA38F56
:100CD0000A445B1AA263A38710BD00BF2DE9F04F41
:100CE00005460F4683B000F1380800F13C0900F1D9
:100CF000480400F1680A00F1400B266896B161795A
:100D00003B7822790B409A4204F1080408D1CDF8CF
:100D100000B04B46424639462846B04701280AD91A
:100D20005445EAD14B4642463946284603B0BDE811
:100D3000F04F00F0EDBB03B0BDE8F08F70B5036974
:100D4000044683638B79CA790D4643EA022383877D
:100D5000FFF7C4FFA8B1EB8823B3A28F21689342A9
:100D6000C97917D932B192FBF1F301FB1322B2FA20
:100D700082F2520984F844202046BDE87040FFF713
:100D800083BF0646014601222046FFF771FF84F823
:100D90002C6070BD0022204684F84420BDE87040DD
:100DA000FFF772BF1A4619462046FFF751FF04238A
:100DB00084F82C3070BD00BF70B50268838FC48E7C
:100DC000D279E41A9442A8BF1446826BA6B21A44A0
:100DD000002133460546FFF743FF864204D1AB8F1F
:100DE000A0B21E44AE8770BD284601220021FFF745
:100DF0003FFF00234FF0FF3085F82C3070BD00BF5F
:100E000070B405460026AC6C08353CB10136042EA2
:100E1000F9D14FF0FF34204670BC704700EBC6009C
:100E200080F84C1080F84D208364204670BC7047D9
:100E300038B500250446294601220564FFF720FF46
:100E4000E38E04F13001C3B194F93020002A14DBA1
:100E5000A28A9A4216D321692268A163A587D27912
:100E600020469A4234BF05230623002284F82C3002
:100E70001146BDE83840FFF703BF2046BDE83840C3
:100E8000FFF75CBF012229462046FFF7F1FE84F8F8
:100E90002C5038BD38B590F82C300446062B2BD09A
:100EA000072B18D0052B07D001220021FFF7E0FE09
:100EB000002384F82C3038BDFFF77EFF0028FADBD2
:100EC0002268E38EA18FD2795B1A9342F3DC06236A
:100ED00084F82C3038BD00231A461946FFF7C0FEAF
:100EE0000022236C84F82C201BB104F13001204631
:100EF00098470023236438BDFFF75EFF0028DADB44
:100F000004F130012046FFF7E9FE054648B1002311
:100F100020461A461946FFF79BFE042384F82C301E
:100F200038BD014601222046FFF7A2FE84F82C506E
:100F300038BD00BF90F82C3010B5032B044627D0E5
:100F4000042B0DD0022B07D001220021FFF790FEC9
:100F5000002384F82C3010BDBDE81040FFF794BE8C
:100F6000036C13B100F13001984794F83030002B36
:100F7000EED194F83130052BEAD1618ED4F8DC3013
:100F8000C9B25B6820469847002384F82C3010BD16
:100F90000723BDE81040002280F82C301146FFF7EF
:100FA0006FBE00BFF8B54E8896B103685D7C6DB129
:100FB00044686379B34244D02246002303E0977C1F
:100FC0000D32BE4222D00133AB42F8D10020F8BD31
:100FD000C6750446D0F8DC300E46DB689847D4F876
:100FE000C8308BB1002204F1CC05A2642265A26551
:100FF000226604F1D80713B1718820469847AF42A2
:1010000002D055F8043BF6E70120F8BD0133DBB20E
:10101000C375002BDDD003EB430203EB82030D3BD2
:101020001C442579002DD4D000231F46D4F8092074
:101030001E01B25801330AB1177025799D42F5D8C7
:10104000C7E70123C375ECE719881268012984BF3B
:1010500001211980C37D13B91370012070474168C5
:1010600003EB430003EB80030B4413F8083C01201F
:101070001370704730B4C47D406804EB440504EB42
:1010800085040D3C044420798D8885420DD20120D1
:1010900018808B88D4F809101B015B5803B11B78AA
:1010A00012680120137030BC7047002030BC7047BC
:1010B00019880120022984BF0221198000231168A8
:1010C0000B7012685370704738B51D881446022D96
:1010D00084BF02221A808988C9B2FFF7CDFD011CA6
:1010E00018BF0121002223680120197023685A705B
:1010F00038BD00BF08B589880122C9B2FFF7B8FD25
:10110000012008BD08B589880022C9B2FFF7B0FDEB
:10111000012008BD0B788BB910B54C887F2C0BD8FB
:10112000D0F8DC30847593F830204AB149885B6888
:10113000C9B29847012010BD184610BD0020704765
:10114000012010BD70B5C27D446802EB420502EB80
:1011500085020D3A224415798C88A54215D9D2F81A
:101160000920240115192E794D88AE420DD9125946
:101170006AB115701C46D0F8D83013B14A888988F6
:10118000984700230120238070BD002070BD002DF2
:10119000F0D0104670BD00BF2DE9F04F4D8889B0EA
:1011A0002C0A022C069348D0032C12D0012C03D019
:1011B000002009B0BDE8F08F01681D8811601E464F
:1011C0000B782046AB4228BF2B46338009B0BDE8E0
:1011D000F08F15F0FF05066900F015818468002C7A
:1011E000E6D0C368013DAB42E2DD40F209438988A5
:1011F0009942DDD154F825400092204602F010FBC0
:10120000431C5B00DBB2069A3370118815468B4293
:1012100028BF0B46032B1380009A40F2FF80002169
:10122000601E10F8014F06EB41035C802B880131F2
:101230005B08013B8B42F4DCF0E00169EDB24668EB
:1012400005EB45031160069A05EB8305735D148871
:101250007219A34228BF234690469B460F4607912A
:101260000846039211461A4602F0C2FA98F8043072
:10127000A4EB0B04A4B216F805A007EB0B09002B96
:1012800000F0B78000230593D8F80920059B1F01C3
:10129000D3199D680497BDB12E782946A64228BF70
:1012A00026464846324602F0A3FA039A2B78D2F833
:1012B00009209A44A41B06EB0B01A4B21FFA81FB80
:1012C000B1441FFA8AFAD3191979002900F08880ED
:1012D00000220292DF68029B484603EB4306C6EBFE
:1012E000C606BD5DBA19A54228BF254690461146DF
:1012F00000922A4602F07CFABB5DD8F80D10641B00
:10130000AB449A44A4B21FFA8BFBA9441FFA8AFA91
:10131000A1B1D8F811504846A542A8BF2546AEB2A3
:10132000324602F065FAD8F81130A41BB3449A444F
:10133000A4B21FFA8BFBB1441FFA8AFA009B1B79F7
:10134000002B40D0002553460193009BC5EB0518A8
:10135000D3F809A048461AF808600AEB0807A64225
:1013600028BF26463946324602F042FA1AF80820CB
:10137000019BD7F80710A41BB3441344A4B21FFA6F
:101380008BFBB1449BB2B9B10193D7F80B604846CF
:10139000A642A8BF26461FFA86F84646424602F0F5
:1013A00027FAD7F80B20019BA41BC3441344A4B213
:1013B0001FFA8BFBC1449BB2009A01351179AAB286
:1013C0009142C1D89A46039B0299D3F80920049B05
:1013D0000131D3181D7988B2854202913FF67AAF68
:1013E000059B03990133087999B2884205933FF62A
:1013F0004DAF0120079BA3F802A0069BA3F800B005
:1014000009B0BDE8F08F09210423B1700699F3708B
:1014100033700B88042B28BF04230B800323012087
:101420007370166009B0BDE8F08F00BF1988012005
:10143000022984BF02211980002311680B701268F1
:1014400053707047002210B400F1C80454F8043BF4
:1014500063B18B4202F1010205D0042AF6D14FF0AC
:10146000FF3010BC7047002010BC7047323240F88B
:1014700022101846F8E700BF10B44C78092C1AD88F
:10148000DFE804F01119191919050919150D0B4C8C
:10149000A44610BC60470A4CA44610BC6047094CE7
:1014A000A44610BC6047084CA44610BC6047074CDB
:1014B000A44610BC6047002010BC704715110008FE
:1014C00099110008A50F0008B11000084910000884
:1014D00010B44C78012C08D00CD3032C07D14C88C5
:1014E0002CB9084CA44610BC60474C8834B100208D
:1014F00010BC7047044CA44610BC6047034CA44683
:1015000010BC6047F5100008C9100008051100085C
:10151000F0B40C7814F0600F13D104F01F04012C08
:1015200005D011D3022C0CD1F0BCFFF7D1BF9C46E3
:101530004B780D460A2B0646174612D00B2B0ED0C1
:101540002BB1F0BC00207047F0BCFFF795BF064CF4
:1015500063463A4629463046A446F0BC6047034CF1
:10156000F6E7034CF4E700BF2D140008451100080E
:1015700075100008034A136823F00703184310602E
:10158000704700BF0020024008B5FFF703F9C3070A
:10159000FBD408BD024B41F080011960704700BFC9
:1015A0004C5C00403E2A10B411D80132C2F34F0205
:1015B000500080B20A4B0B4C1B6892029BB203EBAB
:1015C000C10149000C4492B2226010BC7047013A3C
:1015D000C2F34412501C400142F02002EAE700BF6F
:1015E000505C00400C600040F0B54FF0C06701F067
:1015F0007F06B40004F1804404F5B844256883B044
:1016000025F4E0450DF1080C25F07F050CEB4202B6
:101610003543DFF8E8C0ADB2CDE900C725602568E5
:1016200032F8082C25F4EC4525F07005154349B235
:10163000ADB2002925604FEAC60EB0F818C0089F69
:1016400000DB5EBB2C4A126892B27244520002F177
:10165000804202F5C042C2F800C027B106EB460244
:1016600000EB8202976648F6CF7522689C442A40B8
:10167000226025681FFA8CFC25F4E04525F0400522
:10168000ADB285F0200545F4004545F08005002900
:101690002560A0F818C001DA03B0F0BD1A46164B59
:1016A0000546196803F56E7389B28E444FEA4E0EF3
:1016B0007344C3F800C03146FFF774FF27B106EB4F
:1016C000460605EB8606F7664CF68F7123682A8B73
:1016D0000B4023602368104423F4804323F07003FD
:1016E0009BB283F4405343F4004343F080032360F0
:1016F000288303B0F0BD00BF505C0040000200042E
:1017000048F2800170B40C4A0C4E0D4D0D4C13681C
:1017100033400B439BB2136013682B400B439BB2C7
:1017200042F8043BA242F2D170BC0368DB7920335B
:101730005B000383704700BF045C0040BF8FFFFF66
:101740008FBFFFFF205C004010B449BB002A0CBFD4
:10175000202410242B48036823F4E04323F04003A3
:1017600063401BB243F4004343F080039BB2036029
:10177000890001F1804101F5B84122B34FF4805353
:101780000A6822F4804222F0700292B253401BB2E7
:1017900043F4004343F080039BB20B6010BC7047DE
:1017A0000B06E5D501F07F01890001F1804101F5CB
:1017B000B8410B6823F4E04323F040039BB282B1AD
:1017C00083F01003E3E74CF68F700A684FF4405340
:1017D00002400A600A6822F4804222F0700292B24B
:1017E000D4E748F6CF7283F020031BB243F40043E2
:1017F00043F080039BB20B600B6810BC13400B607E
:10180000704700BF005C00400B060DD4890001F159
:10181000804101F5B841086800F44050A0F58050BF
:10182000B0FA80F04009704701F07F01890001F1B2
:10183000804101F5B841086800F03000A0F11000C7
:10184000B0FA80F0400970470B0614D40E4B8800A4
:1018500000F1804000F5B8405A54036823F48043F7
:1018600023F070039BB23AB983F4405343F400432E
:1018700043F080030360704783F4005343F4004354
:1018800043F0800303607047380B00202DE9F041DE
:1018900001F07F06B40004F1804404F5B8442568E3
:1018A00005F03005302D2ED01F46DFF8648011463C
:1018B000D8F80020F60092B23244520002F1804281
:1018C00002F5C04210881A46400000F1804000F541
:1018D000C040FFF73FF9D8F800100C4B89B20E4416
:1018E000760033441F602168384621F4E04121F03E
:1018F000400189B281F0300141F4004141F08001A2
:101900002160BDE8F0810020BDE8F0810460004066
:10191000505C0040F8B58C0004F1804404F5B844F4
:10192000266806F44056B6F5405F43D0234FCE00FC
:101930003D682348ADB235446D0028440068C0F3CB
:10194000090098422CDB1D461C4B10461A6803F513
:101950006E7392B21644760033440F4619882A46B5
:10196000490001F1804101F5C041FFF705F940F65A
:101970000F732168134A0B4043F080032360D35D4B
:1019800063B9236823F4804323F070039BB283F48C
:10199000405343F4004343F0800323602846F8BDDE
:1019A0003B6807489BB233445B0018440568C5F3A5
:1019B0000905C9E700252846F8BD00BF505C004076
:1019C0000C600040380B0020364AF8B51368044616
:1019D000590549D41A049DB222D4280506D54FF2E0
:1019E000FF71304A236A116003B19847E90406D5B4
:1019F0004EF6FF712B4A636A116003B19847AA053E
:101A0000A36A06D54FF6FF51264A116033B39847B3
:101A1000A36A1BB3244A136843F400731360F8BD30
:101A200003F00F07BE0006F1804613F0100306F521
:101A3000B84622D140F60F7231680A4042F40042A3
:101A4000326007EB470213441A3354F823300BB3C8
:101A50002046394698472805C8D5C0E7124A13687A
:101A600023F400731360F8BD40234FF6FF3111607B
:101A70000383BDE8F840FFF7C3B833681B0501D402
:101A80000123DEE7082300F130023946FFF742FF69
:101A90000223D6E740F60F733268134043F0800309
:101AA00033609AE7445C0040405C004001224309F7
:101AB0009B0003F1604300F01F0003F5614302FA4D
:101AC00000F01860704700BF012916D00BD302291F
:101AD00008D10F490F4A0B6803430B601368184382
:101AE0001060704770470A490A4A0B6803430B604D
:101AF000136823EA0000106070470549054A0B6827
:101B000023EA00030B60136818431060704700BF9E
:101B1000080401400C0401400449054A0B680343D2
:101B20000B60136818431060704700BF0004014049
:101B300004040140014B1860704700BF14040140C9
:101B4000044A13689B06FCD5136843F01003136026
:101B5000704700BF04280040044B1A46196821F062
:101B60001001196013689B06FCD5704704280040DB
:101B700030B40C4A13689906FCD513680A490B4C1B
:101B800043F0100385B2000C1360256008601368F1
:101B90001C3923F0100313600B689B06FCD530BC86
:101BA000704700BF0428004020280040242800403F
:101BB00030B40C4A13689906FCD513680A490B4CDB
:101BC00043F0100385B2C0F3034013602560086042
:101BD0001368043923F0100313600B689B06FCD5CF
:101BE00030BC704704280040082800400C28004002
:101BF000034A044B10681B6843EA0040704700BF6B
:101C0000182800401C28004030B40C4A136899067C
:101C1000FCD513680A490B4C43F01003050C80B245
:101C20001360256008601368183923F010031360EF
:101C30000B689B06FCD530BC704700BF04280040F1
:101C40001C28004018280040144A13689906FCD547
:101C50001368012843F01003136018D011D3022831
:101C600009D00E4B1A46196821F01001196013684B
:101C70009B06FCD570470A4A136843F004031360BF
:101C8000EFE7074A136843F001031360E9E7044AEA
:101C9000136843F002031360E3E700BF0428004029
:101CA00000280040144A13689906FCD513680128DF
:101CB00043F01003136018D011D3022809D00E4B43
:101CC0001A46196821F01001196013689B06FCD5AB
:101CD00070470A4A136823F004031360EFE7074ACA
:101CE000136823F001031360E9E7044A136823F043
:101CF00002031360E3E700BF04280040002800400F
:101D000001280FD008D3022805D1094A136823F00F
:101D10000403136070477047054A136823F00103FA
:101D200013607047024A136823F002031360704780
:101D30000428004001280ED008D3022804D1084B03
:101D4000186800F00400704700207047044B1868C2
:101D500000F001007047024B186800F00200704765
:101D600004280040704700BFFF23002110B5084839
:101D7000084A094C03702370117000F05BF800F002
:101D800055F900F015F8BDE8104000F059B800BF53
:101D90003E0C00203D0C00203C0C002001210020C6
:101DA00000F090B8014B1878704700BF3D0C002040
:101DB0000023064A0649C2E900330B70137293816F
:101DC000C2E9043313769383704700BF5C0500209B
:101DD00018060020F8B5164D05EB0015EC792A7AA7
:101DE000631C93FBF2F402FB1434AE79E4B2B44208
:101DF000AF8809D11AE02A7A013494FBF2F302FB8E
:101E00001344E4B2A64211D02B6807FB04335A688E
:101E1000511E002AEFD059600029ECD1687B00F0F8
:101E20000BF9FE21687B00F00DF9E4E7F8BD00BF77
:101E30005C0500200022014B1A7070471906002033
:101E40000021FF2010B40D4B0D4C0A46217003F108
:101E50008C011875D880DA731A745A749A745A738C
:101E60005A7198731A711A6018739A60DA745875F7
:101E70009A611C338B42ECD110BC70477C0500206A
:101E80001A060020F0B40D4B1E78A6B1FF270022E1
:101E900038460B4B1C795D7B052C02F1010103F1E7
:101EA0001C0303D1BD423CBF2F46D0B28AB2B2421E
:101EB000F0D1F0BC7047FF20F0BC70471A0600203C
:101EC0007C0500202DE9F047DFF88C9099F8003070
:101ED00013B300240E4682464FF0050827461D4DD9
:101EE000E300191B05EB81010A79022A1AD0042AA2
:101EF00018D0012A12D0BAF1000F07D11B1B05EB35
:101F00008303D87BFF2801D0FFF764FF013499F8E1
:101F10000030E4B2A342E3D1BDE8F0878A68013221
:101F20008A60E8E7191B05EB8101087D5045E2D185
:101F30008868B0420BD8042AA3EB040205EB8202A6
:101F40008F6004BFCF744F7582F80480D3E7801B85
:101F50008860D0E77C0500201A0600201A4B1B7809
:101F60008BB30122F0B5C40800F0070002FA00F0BC
:101F70005A1E164BD2B240B2C2EBC20203F11C0190
:101F8000C6430025052701EB820102E01C3399427C
:101F900018D01A79033A012AF8D803EB040C9CF9FB
:101FA0001520024206EA020EF0D08CF815E0DA7C29
:101FB00012B95A7D002AE9D1DD745D751F711C3399
:101FC0009942E6D1F0BD70471A0600207C0500203A
:101FD00010B5094A094C127823789A4204D84FF474
:101FE0001C7000F00FF82378054AC3EBC30352F8C6
:101FF0002330BDE8104018471A0600203C0C002092
:102000007C050020044608B5064801F087FD2046FF
:1020100001F0A4FD01F008FD034B1C801A8892B268
:102020001A80FEE78C540008160600200022014B9F
:102030001A7070471B060020014B1870FFF78EBF07
:1020400014000020024B03EB40004170704700BFBA
:102050000806002081F0004102E000BF83F0004349
:1020600030B54FEA41044FEA430594EA050F08BF33
:1020700090EA020F1FBF54EA000C55EA020C7FEAF7
:10208000645C7FEA655C00F0E2804FEA5454D4EB74
:102090005555B8BF6D420CDD2C4480EA020281EA3E
:1020A000030382EA000083EA010180EA020281EA76
:1020B0000303362D88BF30BD11F0004F4FEA0131C8
:1020C0004FF4801C4CEA113102D0404261EB4101D7
:1020D00013F0004F4FEA03334CEA133302D052425D
:1020E00063EB430394EA050F00F0A780A4F1010419
:1020F000D5F1200E0DDB02FA0EFC22FA05F2801853
:1021000041F1000103FA0EF2801843FA05F3594138
:102110000EE0A5F120050EF1200E012A03FA0EFCB7
:1021200028BF4CF0020C43FA05F3C01851EBE371E1
:1021300001F0004507D54FF0000EDCF1000C7EEBFE
:1021400000006EEB0101B1F5801F1BD3B1F5001F3C
:102150000CD349085FEA30004FEA3C0C04F101045B
:102160004FEA445212F5800F80F09A80BCF1004F84
:1021700008BF5FEA500C50F1000041EB045141EA06
:10218000050130BD5FEA4C0C404141EB010111F407
:10219000801FA4F10104E9D191F0000F04BF0146B2
:1021A0000020B1FA81F308BF2033A3F10B03B3F190
:1021B00020020CDA0C3208DD02F1140CC2F10C0220
:1021C00001FA0CF021FA02F10CE002F11402D8BF7E
:1021D000C2F1200C01FA02F120FA0CFCDCBF41EA4A
:1021E0000C019040E41AA2BF01EB0451294330BD19
:1021F0006FEA04041F3C1CDA0C340EDC04F11404F6
:10220000C4F1200220FA04F001FA02F340EA0300CC
:1022100021FA04F345EA030130BDC4F10C04C4F112
:10222000200220FA02F001FA04F340EA03002946F2
:1022300030BD21FA04F0294630BD94F0000F83F43C
:10224000801306BF81F480110134013D4EE77FEA1F
:10225000645C18BF7FEA655C29D094EA050F08BF6B
:1022600090EA020F05D054EA000C04BF194610464C
:1022700030BD91EA030F1EBF0021002030BD5FEA90
:10228000545C05D14000494128BF41F0004130BDB8
:1022900014F580043CBF01F5801130BD01F000450C
:1022A00045F0FE4141F470014FF0000030BD7FEA7F
:1022B000645C1ABF194610467FEA655C1CBF0B467A
:1022C000024650EA013406BF52EA033591EA030F91
:1022D00041F4002130BD00BF90F0000F04BF002189
:1022E000704730B54FF4806404F132044FF00005BC
:1022F0004FF0000150E700BF90F0000F04BF002135
:10230000704730B54FF4806404F1320410F000459A
:1023100048BF40424FF000013EE700BF42004FEA95
:10232000E2014FEA31014FEA02701FBF12F07F4312
:1023300093F07F4F81F06051704732F07F4208BFC9
:10234000704793F07F4F04BF41F40021704730B5D0
:102350004FF4607401F0004521F000411CE700BF1C
:1023600050EA010208BF704730B54FF000050AE09F
:1023700050EA010208BF704730B511F0004502D5A0
:10238000404261EB41014FF4806404F132045FEAA2
:10239000915C3FF4D8AE4FF003025FEADC0C18BF4B
:1023A00003325FEADC0C18BF033202EBDC02C2F13D
:1023B000200300FA03FC20FA02F001FA03FE40EACF
:1023C0000E0021FA02F11444BDE600BF4FEA4102BB
:1023D000B2F1E04324BFB3F5001CDCF1FE5C0DD983
:1023E00001F0004C4FEAC0024CEA5070B2F1004FCD
:1023F00040EB830008BF20F00100704711F0804FD0
:1024000021D113F13872BCBF01F00040704741F494
:1024100080114FEA5252C2F11802C2F1200C10FA98
:102420000CF320FA02F018BF40F001004FEAC1237C
:102430004FEAD32303FA0CFC40EA0C0023FA02F320
:102440004FEA4303CCE77FEA625307D150EA0133F6
:102450001EBF4FF0FE4040F44000704701F00040C6
:1024600040F0FE4040F40000704700BF2DE9F84303
:1024700082EAE274A4EBE2741546E20706460F46D0
:1024800053BF4FF0000880468946DFF84C9064083F
:1024900013D03B4632463046394600F003FBE30793
:1024A00006460F46F3D54046494632463B4600F0C5
:1024B000F9FA640880468946EBD1002D07DA4246D6
:1024C0004B460020044900F0D5FA80468946404634
:1024D0004946BDE8F88300BF0000F03F05B5084657
:1024E0001A460ABD00B500F004F8FFF7F7FF10BC6C
:1024F000A646C20D4002400A0124E4052043FF2AFB
:10250000D2B200D94042013AFE2A01D27E3A704747
:102510000028204600D540427E3A92008032704723
:10252000C40FE40704D5002D00D00130404203D48D
:10253000013A001812D0FBD5813201D1803005D28A
:10254000803003D2002D0FD04000013AFE2A06DA77
:10255000013207DD400AD205104320437047FF20B7
:10256000C005FAE7002070470506EDD1400A800259
:10257000EBE700B5FFF7B6FF80018901D41A07DA4F
:102580001A46054664422041202C07D3002000BD96
:102590000D462141202C01D3002100BD644220348E
:1025A000A54000BD0122D207514030B5FFF7E1FF41
:1025B000401803D1C82A01DB01204007FFF7B0FF14
:1025C00030BD83B20C14634304148DB26C431B19E9
:1025D00084B26C432504240C1B19001409144843CD
:1025E000C002D9060D435911401870470122D30784
:1025F000184200D0181A194200D0591A401A02D0B5
:1026000000DC52421046704730B5FFF76BFF1A44AA
:102610000432FFF7D6FFD1E730B5FFF763FF01259E
:10262000002801D5404249420024002901D54942F1
:10263000E443C82B0EDA5242C82A0BDAD2184023E0
:10264000091A00D201445B410944F9D318016040E2
:10265000B4E700240846FF22F9E730B5FFF742FF50
:10266000002801D540424942C82BF2DA5242C82A1A
:10267000EFDAD21823A4030DE45CA3004343240241
:102680005B1563431B13E41A2346444324145C4341
:102690001B02E4131B1BDC014343DB13200C4343ED
:1026A0001B14E01A07300009B3E730B5FFF721FF2C
:1026B0000100CED4501000D34900043214A44B0DB5
:1026C000E45CC80960436043001360434013240284
:1026D000241A20464043000CCB09584300136043A2
:1026E0004015241A20464043030B4B430005000DC0
:1026F0000D0B68431844C013604364030014201A90
:102700005210CFD340084900CCE7C046F1D8C3B23D
:10271000A4988D84F1DAC9BBB0A69E97918B86826E
:10272000002110B5FFF7E5FE0A44173A07DB072A38
:1027300017DDC117C9430120C007484010BD5242F0
:10274000202A00DB2022104110BD002110B5FFF728
:10275000D0FE0A440100F0D4173AF0DBC143082A46
:10276000EBDC904010BD002130B51D22521A00252F
:1027700024E7002130B50028F7DA1E22521AC507D7
:1027800040081BE7474680B40025A0460DE000291D
:1027900002DC05E0002A03DA891B7F42121901E0FE
:1027A0008919121B44466743C01B1C680433640824
:1027B00000D2013506462E410F462F41640870476E
:1027C000C0B5FFF7DFFFFFF7E5FFFCD386138F13DC
:1027D000D210564357434446674336133F13C01B3A
:1027E000891980BCB846C0BDC0B5FFF7CBFFFFF765
:1027F000CEFFFCD3002902DC8919121B01E0891BE2
:10280000121976106410F5D1EBE730B51821FFF7F7
:1028100088FF484C2409001BFDDA0019FDD4820012
:1028200065003E480021A24202DB521B4042FAE70B
:10283000D20040A30124FFF7C3FF09310022002387
:102840000025FFF76DFEFFF749FE90E700B5FFF7A3
:10285000DCFF084600BD30B5FFF7D7FFFEE630B518
:102860001821FFF75EFF01142D4A5143C9140131AD
:10287000491002B442012B484143521A2A48002110
:1028800039A3CC43FFF79CFF084404BC6FE730B585
:10289000FFF72FFE010015D42449FFF792FE5110D7
:1028A00001D30131401002B40146204B9B00C018F7
:1028B000C91A00222CA3D443FFF796FF114604BC8B
:1028C000130054E7FF22FBE730B5FFF7E0FF462B8C
:1028D0000ADC5B42462B06DC1548584308310911D7
:1028E000081A052243E7C043FF2240E730B5FFF74F
:1028F00040FE0022002802DA404249420D4A0DA360
:102900000124FFF771FF10460A4A841802D2841A84
:1029100000D4A01A0138002229E7C046B49D6E13E6
:1029200015170000FF422E16CA159E2CB9C293053A
:1029300030E4620151ED87640CCE583BF8755B1FA3
:102940004CDDEA0FEC56FD07B8AAFF0354F5FF0172
:10295000ACFEFF00D4FF7F00FCFF3F00FCFF1F0028
:102960000000100002000800ECA94F46EDA94F46F8
:10297000F45DB1201C89151044AC020845AC020876
:1029800064550004AC0A0002540100012C008000D0
:1029900004004000040020000000100000000800B7
:1029A0000300080000000000F8B52F4D024695F81E
:1029B00022400B46013485F8224006460F4600F0BF
:1029C00037F998B939463046FFF700FD4FF07E5190
:1029D0000446FFF70BFE10B900200021F8BD4FF0B0
:1029E0007E512046FFF702FE002802DD00201F492D
:1029F000F8BD1F492046FFF7F9FD0028F6DB1C490A
:102A00002046FFF7F3FD18B915A1D1E90001F8BD83
:102A100021462046FFF7F8FD01464FF07E50FFF7B4
:102A2000C1FDFFF742FE214606464FF07E50FFF7FC
:102A3000BCFDFFF773FC04460D463046FFF76EFC05
:102A400022462B4600F00EFAFFF7C0FC01464FF07D
:102A50008040FFF7D9FDFFF761FCF8BDAFF30080C0
:102A6000182D4454FB2109401C0600200000F87F6B
:102A7000000080BFF8B50A4D06466C781046013458
:102A80000F466C701946FFF7A1FC044639463046E4
:102A9000FFF79CFC2146FFF7E0FDFFF73FFCF8BD88
:102AA0001C060020F8B50A4D0646AC7810460134E5
:102AB0000F46AC701946FFF789FC0446394630468C
:102AC000FFF784FC2146FFF79FFDFFF727FCF8BDC9
:102AD0001C060020F8B50A4D0646EC781046013475
:102AE0000F46EC701946FFF771FC04463946304634
:102AF000FFF76CFC2146FFF758FDFFF70FFCF8BD10
:102B00001C060020F8B50A4D06462C791046013403
:102B10000F462C711946FFF759FC044639463046DA
:102B2000FFF754FC2146FFF73DFDFFF7F7FBF8BD2B
:102B30001C060020F8B50B4D06466C791046013492
:102B40000F466C711946FFF741FC04463946304682
:102B5000FFF73CFC2146FFF749FDB0FA80F0400941
:102B6000F8BD00BF1C060020F8B50A4D0646AC793A
:102B7000104601340F46AC711946FFF727FC044696
:102B800039463046FFF722FC2146FFF72FFDC00FE4
:102B9000F8BD00BF1C060020F8B50B4D0646EC79C9
:102BA000104601340F46EC711946FFF70FFC04463E
:102BB00039463046FFF70AFC2146FFF717FD00288B
:102BC000CCBF00200120F8BD1C060020F8B50A4D3E
:102BD00006462C7A104601340F462C721946FFF730
:102BE000F5FB044639463046FFF7F0FB2146FFF778
:102BF000FDFCC043C00FF8BD1C060020F8B50B4D0E
:102C000006466C7A104601340F466C721946FFF77F
:102C1000DDFB044639463046FFF7D8FB2146FFF777
:102C2000E5FC0028D4BF00200120F8BD1C060020D0
:102C3000F8B50B4D0646AC7A104601340F46AC721F
:102C40001946FFF7C3FB044639463046FFF7BEFB83
:102C50002146FFF7CBFC003018BF0120F8BD00BFB4
:102C60001C06002010B5094AD37B0133D373FFF74C
:102C7000ADFB00210446FFF7B9FC00B910BD2046AA
:102C8000FFF74EFD0028B8BF013010BD1C06002024
:102C900010B50C4A137C01331374FFF797FB002126
:102CA0000446FFF7A3FC08B9002010BD0021204610
:102CB000FFF79CFC0028F7DB2046BDE81040FFF73B
:102CC00044BD00BF1C06002008B5054A537D0133F2
:102CD0005375FFF77BFBFFF7E8FCFFF71FFB08BD11
:102CE0001C06002008B5054A937D01339375FFF754
:102CF0006DFBFFF7E9FDFFF711FB08BD1C06002087
:102D000008B5054AD37D0133D375FFF75FFBFFF7A5
:102D1000A6FDFFF703FB08BD1C06002008B5074A07
:102D2000137E01331376FFF751FBFFF7CDFD044906
:102D3000FFF76AFCFFF7F2FA08BD00BF1C0600208F
:102D40003BAAB83F08B5074A537E01335376FFF7D5
:102D50003DFBFFF7B9FD0449FFF756FCFFF7DEFA2C
:102D600008BD00BF1C060020D95BDE3EF8B5214C33
:102D70001F46A37E16460133A376FFF727FB0021EB
:102D80000446FFF733FC002810DB2046FFF79CFDCC
:102D9000394604463046FFF719FB01462046FFF747
:102DA00033FCFFF75CFDFFF7B9FAF8BD3946304652
:102DB000FFF70CFB00210546FFF718FC0028E4DABA
:102DC00005F10040FFF7ACFC002800F00100B8BF9F
:102DD00040420128D9D104F10040FFF775FD294692
:102DE000FFF712FCFFF73BFD00F10040FFF796FAFA
:102DF000F8BD00BF1C06002008B5054A137F01334B
:102E00001377FFF7E3FAFFF700FDFFF787FA08BD36
:102E10001C06002010B50A4A537F01335377FFF791
:102E2000D5FA08490446FFF7E1FB10B9002000215C
:102E300010BD2046FFF70AFDFFF770FA10BD00BF76
:102E40001C060020DB0FC93F08B5054A937F0133FC
:102E50009377FFF7BBFAFFF7FEFCFFF75FFA08BDB9
:102E60001C060020F8B5134C1F46E37F16460133BD
:102E7000E377FFF7ABFA00210446FFF7B7FB58B141
:102E800030463946FFF7A2FA054629462046FFF7A5
:102E90002DFDFFF743FAF8BD39463046FFF796FAA5
:102EA00000210546FFF7A2FB0028EED100200021FB
:102EB000F8BD00BF1C0600202DE9F047244F024654
:102EC00097F820600B46013687F8206004460D46CF
:102ED000FFF7AEFE70BB29462046FFF777FA0021C8
:102EE0000746FFF783FB08B325F00046204631462E
:102EF0004FF0FF32174BFFF79BFE38B920463146A3
:102F00004FF0FF32134BFFF747FE38B120462946FA
:102F1000BDE8F0470022104BFFF7A4BF0021384660
:102F2000FFF764FB00280BDD0C4C0D4D20462946B5
:102F3000BDE8F08700240B4D20462946BDE8F08708
:102F400038460021FFF752FB0028DFDAECE700BF2C
:102F50001C060020FFFFEF7F0000F03F182D4454B7
:102F6000FB21F93F0000F87F2DE9F041204F024698
:102F700097F821600B46013687F8216004460D461C
:102F8000FFF756FE98B929462046FFF71FFA0021A1
:102F90000646FFF72BFB18B920462946BDE8F0810D
:102FA0004FF07E513046FFF721FB002805DD00245D
:102FB000104D20462946BDE8F0810F493046FFF705
:102FC00015FB0028F3DB31463046FFF71DFB0146B9
:102FD0004FF07E50FFF7E6FAFFF767FBFFF79EF929
:102FE00002460B4620462946BDE8F041FFF73ABFAE
:102FF0001C0600200000F87F000080BF2DE9F84388
:10300000254F024697F823600B46013687F8236068
:1030100004460D46FFF70CFEB8BB29462046FFF7D5
:10302000D5F900210646FFF7E1FA88B125F00047FF
:10303000204639464FF0FF32184BFFF7F9FD58B9DB
:10304000204639464FF0FF32144BFFF7A5FD18B963
:1030500020462946BDE8F8833046FFF700FC0446C9
:1030600006F10040FFF7FBFB01462046FFF79AFA06
:1030700001464FF07C50FFF7C7FAFFF74FF90446BF
:103080000D4620462946BDE8F8830024044D20461D
:103090002946BDE8F88300BF1C060020FFFFEF7F34
:1030A0000000F87F2DE9F843234F024697F824608B
:1030B0000B46013687F8246005460C46FFF7B8FD3D
:1030C000B0BB21462846FFF781F900210646FFF7ED
:1030D0008DFAA8B124F00047284639464FF0FF3258
:1030E000164BFFF7A5FD70B9284639464FF0FF3261
:1030F000124BFFF751FD30B928462146BDE8F88351
:103100000F49BDE8F8833046FFF7A9FB044606F1F6
:103110000040FFF7A4FB01462046FFF746FA0146B0
:103120004FF07C50FFF770FAFFF7F8F8BDE8F8832E
:1031300000200449BDE8F8831C060020FFFFEF7F54
:103140000000F03F0000F87F2DE9F843284F0246C9
:1031500097F825600B46013687F8256004460D4632
:10316000FFF766FD00283ED129462046FFF72EF9DD
:1031700000210646FFF73AFAA8B125F0004520469F
:1031800029464FF0FF321B4BFFF752FD78B920461E
:1031900029464FF0FF32174BFFF7FEFC38B9164DAA
:1031A0002946BDE8F88320462946BDE8F883314624
:1031B0004FF08040FFF728FAFFF751FB4FF07E51A8
:1031C0000546FFF7EFF94FF07E5104462846FFF71A
:1031D000ECF901462046FFF740FAFFF79FF80D464D
:1031E0002946BDE8F883054D00202946BDE8F8834F
:1031F0001C060020FFFFEF7F0000F03F0000F87F7B
:103200002DE9F843244F024697F826600B46013615
:1032100087F8266004460D46FFF70AFDB0BB294635
:103220002046FFF7D3F800210746FFF7DFF988B102
:1032300025F00046204631464FF0FF32174BFFF78E
:10324000F7FC58B9204631464FF0FF32134BFFF7D9
:10325000A3FC18B920462946BDE8F883394638460C
:10326000FFF7D2F94FF07E51FFF79FF9FFF71DFAF4
:1032700001463846FFF799F9FFF726FBFFF74EF8AE
:1032800004460D4620462946BDE8F8830024044D37
:1032900020462946BDE8F8831C060020FFFFEF7F8B
:1032A0000000F87F2DE9F843264F024697F8276083
:1032B0000B46013687F8276005460C46FFF7B8FC39
:1032C00030BB21462846FFF781F84FF07E51064675
:1032D000FFF78CF900281BDB4FF07E513046FFF7DB
:1032E00085F960B324F00047284639464FF0FF3295
:1032F000154BFFF79DFC78B9284639464FF0FF3251
:10330000114BFFF749FC38B928462146BDE8F88340
:1033100000200E49BDE8F88331463046FFF774F9C6
:103320004FF07E51FFF73EF9FFF7BFF901463046F7
:10333000FFF73BF9FFF7C8FAFEF7F0FFEAE70146AF
:10334000BDE8F8831C060020FFFFEF7F0000F87F38
:10335000F8B52C4F024697F828600B46013687F8DF
:10336000286004460D46FFF763FCF0B92946204665
:10337000FFF72CF800210646FFF738F910B9204670
:103380002946F8BD4FF07E513046FFF72FF920B99E
:1033900000241D4D20462946F8BD1C493046FFF744
:1033A00025F938B900241A4DE9E70024194D2046C3
:1033B0002946F8BD4FF07E513046FFF717F9002837
:1033C000F3DC12493046FFF711F90028EDDB3146F6
:1033D0004FF07E50FFF7E9F8314604464FF07E503B
:1033E000FFF7E0F801462046FFF737F9FFF76CFAE0
:1033F00001464FF07C50FFF707F9FEF78FFF0446B8
:103400000D46BCE71C0600200000F07F000080BFD6
:103410000000F0FF0000F87F2DE9F8431E4F024640
:1034200097F829600B46013687F8296004460D4657
:10343000FFF7FEFB68BB25F00046204631464FF003
:10344000FF32164BFFF7F4FB58B9204631464FF0D8
:10345000FF32124BFFF7A0FB18B920462946BDE802
:10346000F88329462046FEF7B1FF00210646FFF704
:10347000BDF80028F1D03046FFF752F9031EB8BF5F
:10348000581CFEF739FF04460D4620462946BDE884
:10349000F8830024024DE0E71C060020FFFFEF7FC9
:1034A0000000F87F2DE9F8431D4F024697F82A6087
:1034B0000B46013687F82A6004460D46FFF7B8FB35
:1034C00050BB25F00046204631464FF0FF32154BE9
:1034D000FFF7AEFB58B9204631464FF0FF32114B93
:1034E000FFF75AFB18B920462946BDE8F88329465C
:1034F0002046FEF76BFF00210646FFF777F800280D
:10350000F1D03046FFF70CF9FEF7F6FE04460D4603
:1035100020462946BDE8F8830024034DE3E700BFB9
:103520001C060020FFFFEF7F0000F87F2DE9F84325
:103530001D4F024697F82B600B46013687F82B602B
:1035400004460D46FFF774FB58BB25F000462046A5
:1035500031464FF0FF32154BFFF76AFB58B9204652
:1035600031464FF0FF32114BFFF716FB18B92046DA
:103570002946BDE8F88329462046FEF727FF0021AB
:103580000646FFF733F80028F1D03046FFF7C8F8B9
:103590000130FEF7B1FE04460D4620462946BDE83F
:1035A000F8830024024DE2E71C060020FFFFEF7FB6
:1035B0000000F87FDFF834C12DE9F0479CF82C605B
:1035C000924601361F4602460B468CF82C60054693
:1035D0000C46FFF72DFB10BB524650463B46394682
:1035E000FFF726FBD8B921462846FEF7EFFE00215B
:1035F0008046FEF7FBFF064698B324F000462846B7
:1036000031464FF0FF32374BFFF712FB58B92846CF
:1036100031464FF0FF32334BFFF7BEFA18B90020A6
:103620003149BDE8F08739465046FEF7CFFE00210C
:10363000FEF7DCFF0028F2D027F00047504639465D
:103640004FF0FF32274BFFF7F3FAB8B9504639462F
:103650004FF0FF32234BFFF79FFA78B928462146F7
:10366000DFE739465046FEF7B1FE0021FEF7BEFF08
:103670000028C2D030463146BDE8F08728463146A2
:10368000FEF7A4FE394604465046FEF79FFE054667
:1036900001462046FEF7E1FFFEF740FEFFF7BCFEC5
:1036A000FEF794FE2946FEF7AFFF01462046FEF7DF
:1036B00079FF00210446FEF799FF00280BDB404606
:1036C0000021FEF793FF0028B8BF04F10044204614
:1036D000FEF724FEA5E720462946FEF766FF0446CE
:1036E000EDE700BFFFFFEF7F0000F87F1C06002022
:1036F0002DE9F0470D46844637482F4617F8014B11
:10370000265C16F0080634D12D2C34D14FF0010E72
:103710006C78AF1C002B5BD0102B09D1302C07D15B
:10372000387800F0DF0058284DD110237C7802371C
:10373000BEF1000F14BF4FF000486FF000480026A4
:10374000B8FBF3F9304603FB198AA4F13005092DC3
:1037500017D82C46A34223DD751C07D081451CD306
:1037600001D1A24519DB012600FB034017F8014BEC
:10377000EBE73D46C1E72B2C04BFAF1C6C78B64687
:10378000C8E7A4F14105192D01D8373CE2E7A4F1BF
:103790006105192D04D8573CDCE74FF0FF36E5E70B
:1037A000731C06D122234046CCF8003042B9BDE854
:1037B000F087BEF1000F00D04042002AF7D006B1DA
:1037C000791E1160F3E73024002BB1D10823AFE755
:1037D000302CA5D00A23ABE7A754000813460A46AD
:1037E000014602480068FFF783BF00BF280400209D
:1037F0000A44914200F1FF3300D1704710B511F82F
:10380000014B914203F8014FF9D110BD10F8012B83
:1038100011F8013B012A28BF9A42F7D0D01A70470D
:10382000034613F8012B002AFBD1181A0138704700
:1038300030B50024A24201D1002007E0035D01342D
:103840000D1915F8015CAB42F4D0581B30BD88420D
:1038500010B501EB020307D8421E99420AD011F8B5
:10386000014B02F8014FF8E78342F5D98118D21ACB
:10387000D34200D110BD13F8014D01F8014DF7E717
:1038800003460244934200D1704703F8011BF9E755
:10389000F0B50C7864B103461A7818465E1C0AB974
:1038A000104605E0944208D10D4615F8012F02B9E3
:1038B000F0BD13F8017F9742F7D03346ECE770B5BF
:1038C0000446013902B970BD234611F8015F561E46
:1038D00003F8015B2DB91444A342F4D003F8015B53
:1038E000FAE71C463246EDE738B50C4D2B880B4401
:1038F000B3F5007F04D32B880B44B3F5007F0BD2C4
:103900000C462B88064A0146D0182246FFF770FF66
:103910002988214489B2298038BD00BF6008002071
:103920004C06002010B50446FFF77AFF01462046FA
:10393000BDE81040FFF7D8BF2DE9F043DFF88C90C9
:1039400085B0B9F80060B6B23C2E354628BF3C259C
:103950003EB102211A4B1B4A1B780395CDE9011297
:10396000BBB9194CDFF85C8004F1100754F8043B34
:1039700013B1294640469847BC42F7D136B1B9F851
:1039800000309D420BD30023A9F8003005B0BDE8FC
:10399000F083052301AA18461146ABBEE1E7B9F84A
:1039A00000200848521B4119FFF722FFB9F80030E8
:1039B0005D1BADB2A9F8005005B0BDE8F08300BFB3
:1039C000620800204C0600205008002060080020FB
:1039D0000122014B1A70704762080020F0B1114AB1
:1039E00030B41346154602F1100453F8041B81420B
:1039F0000CD0A342F9D1002352F8041B49B1013382
:103A0000042BF9D130BC4FF0FF307047002030BCA0
:103A1000704745F82300084630BC70474FF0FF3030
:103A2000704700BF50080020034B1B889BB203B9AE
:103A30007047FFF781BF00BF6008002038B56424DD
:103A4000074D01E0013C0AD02B889BB23BB12B888B
:103A50009BB2002BF6D0FFF76FFF013CF4D138BDCD
:103A600060080020F0B50A2100251D4A1D4F85B0D1
:103A7000B0FBF2F404F13003DBB2392B2AD8A7FBF8
:103A800002C6302B02FB14004FEAD60200D835B133
:103A90000A2D04DC04AC2C4404F80C3C013501393B
:103AA000E6D1A5B9302301258DF80430002304AAFE
:103AB000154405F80C3C002301A88DF80E30FFF7E3
:103AC000AFFE014601A8FFF70FFF05B0F0BD0A2DBC
:103AD000F1DCEBE70448FFF725FF05B0F0BD00BFC0
:103AE00000CA9A3BCDCCCCCCB0550008031E0DD0FB
:103AF00001DBFFF7B7BF10B51C4606480121FFF7F1
:103B0000F3FE6042BDE81040FFF7ACBF0121024860
:103B1000FFF7EABEAC550008A8550008037803B9C2
:103B20007047FFF7FFBE00BF08B503780BB1FFF782
:103B3000F9FEBDE8084002210148FFF7D5BE00BFED
:103B4000BC55000808B5FFF7D1FFBDE808400221C9
:103B50000148FFF7C9BE00BFBC550008FFF782BF90
:103B600000B5030903F13002392AC8BF03F1570237
:103B700083B0C8BF52B28DF80420002200F00F00BD
:103B800000F13003392BC4BF573043B201A88DF880
:103B900005308DF80620FFF743FE014601A8FFF728
:103BA000A3FE03B05DF804FB10B50446000EFFF75A
:103BB000D7FFC4F30740FFF7D3FFC4F30720FFF795
:103BC000CFFFE0B2BDE81040FFF7CABF08B5FCF771
:103BD00041FF00F031F80E4B1B78A3B100F03CF828
:103BE00000F04AF800F040F800F046F800F034F831
:103BF00000F042F800F038F800F03EF80548FFF712
:103C000093FF00F029F8BDE80840FCF753BC00BF63
:103C100074080020C05500080122024B1A70FFF7FB
:103C2000D7BE00BF740800204FF47A70FCF71ABCAE
:103C300005F006B804F02CBF10B54FF44170FCF746
:103C400051FDBDE810404FF400530022022101480D
:103C5000FCF75EBE001001404FF400510148FCF734
:103C60002DBD00BF001001404FF400510148FCF78A
:103C700023BD00BF00100140024B00BF013BFCD13F
:103C8000704700BF60E3160038B53B4B3B4D3C4AE4
:103C90001C782860116004B138BD012539481D70B9
:103CA000FFF742FFFCF782FE2046FDF7FBFF2846A8
:103CB000FDF7F8FF0220FDF7F5FF3348FFF734FF6B
:103CC000FFF7B2FE4FF46770FCF70CFD40F29B303B
:103CD000FCF708FDFCF7F6FC0520FCF76FFE2B4D0A
:103CE0002B4B1C602C60FCF761FEFDF729FF4FF6A3
:103CF000FF73284A2848294904600C601460446115
:103D00004B61D360FDF728FF2A462B6823F0080398
:103D10002B6013681B07FCD52020FDF749FF2048C6
:103D2000FFF702FFFFF780FE0020FDF76DFF4FF069
:103D3000FF30FDF71DFF00214FF40030FDF7C4FEFA
:103D40004FF40030FDF7E8FE0320FDF7AFFE292019
:103D5000FDF7ACFE72B60020FDF7D2FF0120FDF7A3
:103D6000CFFF0220FDF7CCFF0020FDF76DFF012003
:103D7000FDF76AFF62B638BD7508002068080020AC
:103D80006C080020DC550008F455000804280040A9
:103D90000028004018280040082800400C28004057
:103DA0000456000810B50A4B82B01B6804465BB18C
:103DB000FDF71EFF0190FCF785FC0198204402B03E
:103DC000BDE81040FDF7D4BE0248FFF7A7FEEFE7BD
:103DD0006C080020D455000810B50020FDF7AAFF9C
:103DE00000B910BD0020FDF78BFF054A0549136897
:103DF0000968013313600029F3D0BDE8104008477B
:103E0000700800206808002010B54FF40030FDF75E
:103E100091FE0120FDF774FF054A06491368096801
:103E20000133136011B1BDE81040084710BD00BF59
:103E3000640800206C080020FDF7DABE08B50548CC
:103E4000FFF772FEFFF7F0FD0122034B00201A700E
:103E500008BD00BF905600082C0B002010B50D4C7B
:103E6000236883B9FFF7E8FF0B4B2060186868B13F
:103E7000FCF7E2FE00F080F9084B094A1860196867
:103E80001160186810BDFFF7D7FFEBE74FF0FF3068
:103E900010BD00BF7C0800208C080020880800208E
:103EA000800800202DE9F04F454C89B025681DB1F0
:103EB000012009B0BDE8F08F424808AEFFF734FE9C
:103EC00000F056FC06F81C5D3F48FFF72DFE182158
:103ED000304600F041FD3D48FFF726FE304600F039
:103EE000A7F900F0EBFC022802D1394B83F30888D4
:103EF0003848FFF719FE00F0E9F8206000F0DEFC1A
:103F0000012806D13448FCF71DFB002009B0BDE8AC
:103F1000F08F3248FFF708FEFFF786FDFFF784FDBC
:103F20002F4800F073FC4FF000094FF4FA78DFF8E7
:103F3000CCB02C4F2C4EDFF8C8A02C4D2068FCF7DD
:103F40007BFEDBF800300133B3F52F7FCBF8003078
:103F5000F4D33B68CBF80090A5FB0320400908FB95
:103F60001030312803F101038CBF002001203B6099
:103F700000F0F2FB4FF47A713268A5FB02039B0953
:103F800001FB132301323260002BD7D100F0F4F88B
:103F90000028D3D1FFF748FD9AF80030002BCDD090
:103FA0001348FFF7C1FDFFF749FD124B00BF013B6E
:103FB000FCD11148FFF7B8FDFFF740FDFCF760FBAF
:103FC0008C080020145600082456000844560008A7
:103FD000BC4700205C5600085D3E0008685600089B
:103FE0003D3E0008840800202C040020D34D6210C0
:103FF00078560008809698008856000878080020B7
:104000002C0B002008B500F001FC002008BD00BF0B
:10401000024B1A780AB901221A7070472E0B002041
:10402000094B1B686BB110B4084C24782CB10A46BC
:1040300010BC0146184600F073BD4FF0FF3010BCB5
:1040400070474FF0FF3070472C0900202D0B0020E7
:1040500008B5FFF7F1FE014B186008BD0C09002000
:10406000044B1A7802B17047012203481A70FFF717
:10407000B5BC00BF2D0B002021400008F8B54FF65D
:10408000FF73994205460BD00E460D4C04F12807EC
:1040900054F8043B23B1314628469847BC42F7D137
:1040A000002228461146074BFCF7AAFE002800DB39
:1040B000F8BD0548FFF738FDBDE8F840FFF7B4BC90
:1040C0009008002015440008A858000810B584B0D6
:1040D00000F086FB4FF4807109221B4B0291CDE961
:1040E00000231A491A4B1B4AFCF75EFD1A4C1B4968
:1040F0002060FCF783FD2068194900F061FD20680D
:10410000184900F0C1FF2068174901F083F82068C2
:10411000164900F045FA2068002100F0EFFA206807
:104120001349FDF78FF9002807DB20684FF6FF7170
:10413000FFF7A4FF206804B010BD0E48FFF7F4FCA1
:10414000FFF772FCF1E700BF2C0A00209857000827
:1041500038040020505700082C0900205140000866
:104160006140000811400008005700085C59000831
:104170007D4000087859000810B5094C82B02068CD
:1041800060B1FFF759FE01902368019A03F59C5333
:104190000833934296BF00200120206002B010BD7A
:1041A0000809002010B50C4C0023224652F8040BDD
:1041B00078B1884203F1010309D00A2BF6D10748F0
:1041C000FFF7B2FCFFF730FC4FF0FF3010BD0020CE
:1041D00010BD44F8231010BD90080020D8560008E8
:1041E000F8B5114F00253C466068B0B1267801351E
:1041F0008E4204D16678964201D198420BD00A2DA6
:1042000004F10804F0D10948FFF78EFCFFF70CFC1D
:104210004FF0FF30F8BD0020F8BD07EBC50407F8EC
:10422000351062706360F8BDB8080020B056000811
:1042300010B50024044B1C7028B101461822184602
:10424000FFF73DFB047610BD1009002070B5154640
:104250000C46FFF763FC0E48FFF760FC2846FFF7AB
:104260007DFC0C48FFF75AFC002D0BDD013C084E8D
:10427000254414F8010FFFF773FC3046FFF74EFC9E
:10428000AC42F6D1BDE870400348FFF74DBC00BF1B
:1042900030580008AC5700082854000870B50C4688
:1042A000FFF73CFC49486588FFF738FC2078FFF7AA
:1042B00057FC4748FFF732FC6078FFF751FC454850
:1042C000FFF72CFC60882E0A000AFFF749FC608883
:1042D000C0B2FFF745FC4048FFF720FCA088000A69
:1042E000FFF73EFCA088C0B2FFF73AFC3B48FFF75F
:1042F00015FCE088000AFFF733FCE088C0B2FFF746
:104300002FFC2378CBB96378052B43D0092B0CBF46
:1043100033483448FFF702FC3348FFF7FFFB3046D1
:10432000FFF71EFC3148FFF7F9FBE8B2FFF718FC76
:10433000BDE870402E48FFF7F7BB802BF8D16378BB
:10434000062BE3D12B48FFF7E9FB731E0E2BE3D8B6
:1043500001A252F823F000BFC5430008BD43000886
:10436000B5430008AD430008A54300081943000801
:1043700019430008194300081943000819430008AD
:10438000194300081943000819430008194300089D
:104390009D4300081848FFF7C1FBBDE71748FFF72A
:1043A000BDFBB9E71648FFF7B9FBB5E71548FFF7BE
:1043B000B5FBB1E71448FFF7B1FBADE71348FFF7D2
:1043C000ADFBA9E71248FFF7A9FBA5E7B057000826
:1043D000B8570008C0570008C8570008D057000851
:1043E0002458000834580008385800083C58000881
:1043F00028540008D8570008145800080C58000822
:1044000004580008FC570008F4570008EC5700084F
:10441000E45700082DE9F04F0C7883B00E46814632
:1044200092469846DDF830B014B94B78052B31D060
:10443000234C04F15007656895B161783378227890
:104440000B409A4204F1080408D1CDF800B043466D
:10445000524631464846A847012814D9BC42EAD101
:10446000FFF7EAFC0246174B17481A60FFF756FBA6
:104470003378802B02D17378062B07D0134831464E
:10448000FFF70CFF022003B0BDE8F08F022003B05D
:10449000BDE8F08FFFF7D0FC02460A4B0A481A60CD
:1044A000FFF73CFB0A48FFF73FFB434652463146C5
:1044B0004846A8F8004003B0BDE8F04FFCF7DCBF69
:1044C000B80800200809002084560008AC560008EF
:1044D000A456000808B57F22064B4021FFF780FE56
:1044E000002800DB08BD0448FFF71EFBBDE80840BC
:1044F000FFF79ABAFD440008E859000808784030F0
:10450000C0B201281ED82DE9F04148780C46222877
:1045100015D11D468B88022B16D14C880CB1012C6D
:1045200017D01A48FFF7FAFA2046FFF717FB18488A
:10453000FFF7FAFAFFF778FA0020BDE8F0810220D1
:10454000BDE8F081022070471248FFF7E7FAA08823
:10455000EBE711481768FFF7A1FE104BD3F8008076
:104560004046FFF75DF90323C618F6B202467B709A
:104570003E70F8184146BC70FFF73AF92B88204688
:104580009E4228BF1E462E80DAE700BF90590008E1
:1045900028540008B4590008AC590008300900201C
:1045A0000F4A10B50F4B11607F2240210446FFF7E0
:1045B00017FE00280DDB20460B49FFF7F3FD00280E
:1045C00000DB10BD0948FFF7AFFABDE81040FFF768
:1045D0002BBA0648FFF7A8FAFFF726FAEBE700BF69
:1045E00030090020FD440008D5440008085A00089E
:1045F000F8B50D7805F14000C0B201280BD8487815
:10460000212808D1C02D1F4616468B8805D1072BBF
:1046100024D0042B15D00220F8BD052BFBD1154A60
:104620004B88127CDBB29A42F5D11348FFF736FE75
:104630003B88124A922B28BF9223326001203B8094
:10464000F8BD0F48FFF72AFE0A4A3B88116801208F
:104650008B4228BF0B4632603B80F8BD0948FFF70C
:104660001DFE3B88084AB22B28BFB22332600120CE
:104670003B80F8BD10050020E05A0008205A0008D1
:10468000D85A0008D05A00085C04002008B56022FF
:10469000064B4021FFF7A4FD002800DB08BD0448BD
:1046A000FFF742FABDE80840FFF7BEB9F145000840
:1046B000F05A000838B50C7814F0600F17D14C7818
:1046C000062C14D14888040A032C10D1C0B2EE285D
:1046D0000DD11C4607481546FFF7E0FD2388064A22
:1046E000122B28BF12232A600120238038BD02200C
:1046F00038BD00BFE85A0008285B0008114B70B5B0
:10470000197411490446FFF74DFD104B0546602210
:1047100040212046FFF764FD0D4B06461F22204630
:104720000021FFF75DFD002D04DB002E02DB0028D9
:1047300000DB70BD0748FFF7F7F9BDE87040FFF7F1
:1047400073B900BF100500208D460008F145000830
:10475000B5460008105B00084FF4005110B903483B
:10476000FBF7AABF0148FBF7A9BF00BF001001403B
:1047700008B540F20230FBF7B5FF40F20330FBF71B
:10478000B1FF4FF44170FBF7ADFF40F29730FBF7FC
:10479000A9FF4FF400510F48FBF78EFF01224FF4A1
:1047A000005311460B48FCF7B3F84FF48053002236
:1047B00001210948FCF7ACF810210648FBF77EFF01
:1047C000064B00BF013BFCD1044B00BF013BFCD1B9
:1047D00008BD00BF0010014000080140400D03006B
:1047E00008B540F21720FBF78BFF4FF480510448C7
:1047F000FBF764FF034B00BF013BFCD1024808BD3F
:104800000008014000350C005854000810B504465B
:104810000548FFF783F92046FFF7C6F90348FFF77D
:1048200083F9034B1C6010BDF85B00082854000896
:104830003C09002010B5FFF701F90649002000F0FF
:1048400005FD054B1B6813B1BDE810401847FBF789
:1048500017FF00BF2A72823F3C09002010B5FFF706
:10486000EDF80649002000F0F1FC054B1B6813B180
:10487000BDE810401847FBF703FF00BF424F4F54FD
:104880003C09002008B5002000F0FCFC094B9842D0
:1048900009D0094988420ABF00210020084600F0DB
:1048A000D5FC002008BD0021084600F0CFFC012007
:1048B00008BD00BF424F4F542A72823F70B51D4C55
:1048C000207800B170BD1C4E356805F47F43B3F508
:1048D000354F1CD005F07F43B3F1354F17D0174843
:1048E000FFF71CF93046FFF75FF91548FFF716F997
:1048F0002846FFF759F91348FFF716F9FFF7C2FFEB
:1049000090B91148FFF710F90220207070BD0F48D0
:10491000FFF70AF9FFF7B6FF30B90D48FFF704F9C2
:1049200001231846237070BD0A48FFF7FDF80220E6
:10493000207070BD2F0B002000680008AC5B0008E1
:10494000BC5B000828540008C05B0008805B0008BE
:10495000E05B00088C5B00080131FBF7E3BE00BFA1
:10496000FBF796BEFBF7A0BE2DE9F04704461646BE
:104970002A480D46FFF7D2F82046FFF715F92848D8
:10498000FFF7CCF82748FFF70FF92748FFF7C6F8DD
:104990003046FFF709F92548FFF7C6F89EB3244BC8
:1049A0009C4233D89946DFF89880224FDFF894A0D4
:1049B000023D03E0013E26D04C4527D8D8F8002020
:1049C00004EA0A03A24203F5806202D93968A142CF
:1049D00005D918463B60C8F80020FBF73BFF35F8C7
:1049E000021F20460234FBF7E9FE34F8022C2B8824
:1049F0003C609A42DED01048FFF796F8FFF714F8B3
:104A00000020BDE8F0870120BDE8F0870B48FFF7E4
:104A10008BF8FFF709F80020BDE8F0873C5B000841
:104A20004C5B000800000108545B00082854000893
:104A3000FFFF000838090020705B00085C5B00087D
:104A40003409002000FCFFFF0148FFF76DB800BFEC
:104A5000285C000810B5154A82B04023009203215B
:104A600002220446FCF7ECF80023204600930222C1
:104A700040238321FCF7E4F80D4B204600930322EA
:104A800010238421FCF7DCF820460A4B7F222121E9
:104A9000FFF7A6FB002801DB02B010BD0648FFF7B8
:104AA00043F802B0BDE81040FEF7BEBF754B0008EA
:104AB000494A0008BD4A0008585C000810B549780A
:104AC00021290AD0222906D0202901D0022010BD98
:104AD0001A88062A0AD9012010BD1988062905D985
:104AE00007210B4C01201460198010BD1C46094899
:104AF000FFF714F80720FFF731F80748FFF70EF823
:104B00002088FFF72BF80548FFF70EF8002010BDAE
:104B1000785C0008305C0008D05700082854000872
:104B2000F8B5134B1B7803B30746F0B10E46E1B15D
:104B3000144692B1402A12D9402C254628BF402560
:104B400032462B4683213846FCF782F8641B8542A7
:104B5000A4B202D12E44002CEED10020F8BD1346A1
:104B60000A468321FCF774F8F8BD4FF0FF30F8BD1A
:104B7000300B002070B50F4D40232A460321064616
:104B8000FCF76EF8A8B1402828BF402000210A4B4E
:104B900084B21A7829552AB90121084A1970136874
:104BA00003B1984722463046BDE870400149FFF7FF
:104BB000B7BF70BD44090020300B00204009002021
:104BC00008B5074B19600749FFF7ECFA002800DB2E
:104BD00008BD0548FEF7A8FFBDE80840FEF724BF62
:104BE00040090020554A0008105C000810B5044632
:104BF00082B00A48FEF798FF094B20460093022234
:104C000040238221FCF71CF80222064B2046009329
:104C100011464023FCF714F802B010BD6C5D00088B
:104C2000655000081D4D00082DE9F04182B001914A
:104C300005461646002140222A48FEF721FE72B69C
:104C4000019B1BB962B602B0BDE8F081019B3E2B0F
:104C500034D93F24402E08BF2346274618BF46EAD2
:104C60000403DFF8808022464046294600F8013BD5
:104C7000FEF7BEFD019B1B1B019362B61A4B424619
:104C8000186882214023FBF7E3FF019B23B3174BF6
:104C90002C441C600199164A164B1D2F11601E7082
:104CA00012DD1548FEF73AFF781CC0B2FEF758FF38
:104CB000124802B0BDE8F041FEF736BF019C46EA5B
:104CC0000403DBB22746CCE706490D487A1C02B044
:104CD000BDE8F041FFF7BABA054A1D2F1360E0DCCA
:104CE000F2E700BFE00900208809002094090020B5
:104CF00098090020320B0020A85D00082854000805
:104D0000A05D000810B504460348FEF707FF2046E3
:104D1000BDE81040FEF708BF805C00082DE9F04FA9
:104D2000B64C402389B02246FBF79AFF0546FFF7B1
:104D300083F8B34B1860D5B1B24F26783C68ACB35A
:104D40002088B8B906F03F0904F1020840444A46F9
:104D5000AD49FEF74DFD258816F0C0064D44ADB2B5
:104D6000258004D0402E2AD000232370637009B020
:104D7000BDE8F08F33060CD406F03F0909EB0003C1
:104D8000B3F5886FE0DDA148FFF7BCFF3C682088E1
:104D9000DAE79E48FFF7B6FF3C6806F03F09208837
:104DA00009EB0003B3F5886FEDDCCDE7FFF786FD77
:104DB000974C984B022808BF1C463C60C0E7964BB6
:104DC0001A7832B90121954A197013680BB19847C6
:104DD00025880022D4F80260E188731E2271627176
:104DE0006180072B00F2D780DFE803F0816454C7AD
:104DF000B723D5048A48FEF797FEFFF75FFD012829
:104E000000F0F680102D02D08648FFF77BFFD4F823
:104E10000E50D4F80A10AD002A46A01D0435FEF746
:104E2000E7FC0795079940464022FFF7FDFE3C68E6
:104E30009AE7D4F80A607C48FEF770FE3046FEF729
:104E4000B3FE7A48FEF770FEB5F5867F02D075484E
:104E5000FFF758FF04230693069940464022FFF7C8
:104E6000E3FEFFF72BFD012800F0B880704B9E4257
:104E700005D3704B06F580729A4240F2A1806E48CD
:104E8000FEF74CFE3046FEF78FFE6848FEF74CFEFC
:104E90003C6869E76948FEF747FE00F0FFF9042324
:104EA0000393039940464022FFF7BEFEFFF7C2FC82
:104EB0003C6859E76248FEF737FE6248FEF7B0FCEF
:104EC0000546002800F08580061D582E02DD5E484C
:104ED000FFF718FF2A46A01D5A49FEF789FC0596E0
:104EE000059940464022FFF79FFE3C683CE7574843
:104EF000FEF71AFEFFF7E2FC182102284FF000032C
:104F000018BF02264FF0010B40224FF0100E6FF039
:104F10001D0C4FF0040A4FF072095E250491C4F88D
:104F20000660A37223736373A3732374637423757E
:104F3000637584F80BB084F80FB0A27484F813A0E2
:104F400084F8169084F817E084F818C06576049900
:104F50004046FFF769FE3C6806E73D48FEF7E4FD82
:104F600004230193019940464022FFF75DFEFFF7BD
:104F7000A5FC012838D03C68F6E63648FEF7D4FD9B
:104F800004230293029940464022FFF74DFEFFF7AB
:104F900065FC3C68E8E63048FEF7C0FD3046FEF7A9
:104FA000DDFD2248FEF7C0FD04210022012300910F
:104FB00062710099404623714022FFF735FEDAE71F
:104FC00004F10E0130464FF4807200F0A5F93C6800
:104FD000CAE62248FFF796FE04267BE72048FEF744
:104FE000A3FDFFF73BFC41E7FFF738FC3C68BBE65D
:104FF0001B48FEF799FDFFF731FC03E79C090020F1
:10500000DC090020900900209D0900208C5C00082C
:10501000400C0020BC470020310B00208C090020F0
:10502000505D0008105D0008005D0008285400086D
:1050300000680008000001083C5D0008D85C00081A
:10504000985C0008085E0008B45C0008C85C0008B2
:10505000F05C0008E45C00085C5D0008A45C0008EB
:10506000305D0008054B1A6802B970471968044A98
:10507000044B12781868FFF7D7BD00BF98090020CD
:10508000320B00209409002038B50D46044615481F
:10509000FEF744FD1448FEF787FD1448FEF73EFD79
:1050A0001348FEF781FD1348FEF73EFD124A134BED
:1050B00014601D60FFF702FC02280BD02046104947
:1050C000FFF770F8002800DB38BD0E48BDE8384017
:1050D000FEF72ABD40F2424200210B48FEF7D0FB0A
:1050E000ECE700BF785D0008006800084C5B000832
:1050F0000000010828540008880900208C090020BD
:10510000ED4B0008885D0008BC47002008B5FF2271
:10511000064B8021FFF764F8002800DB08BD044837
:10512000FEF702FDBDE80840FEF77EBC35510008E1
:10513000B05D00084888000A0F280ED12DE9F04F15
:10514000314F85B03D680193164645B14B78062B2B
:105150000CD0022005B0BDE8F08F022070472B482C
:10516000FEF7E2FCFEF760FC2846F3E72848FFF76D
:1051700095F8D7F800B0019B9BF800801C88306838
:10518000A04528BFA04605464246594603940290D2
:10519000FEF72EFB9BF80420A4EB080705EB080A9A
:1051A000BFB29BF8005002B30026A946DBF80530D9
:1051B000504653F8265001362C782946BC4228BF69
:1051C0003C462246FEF714FB2B789BF8042009EBA3
:1051D0000305B3B23F1BA0449A42BFB21FFA88F83E
:1051E000A2441FFA85F9E1D84D46039B01204345AF
:1051F00028BF43469846029B5D80019BA3F8008030
:1052000005B0BDE8F08F00BF200A0020E45D000873
:10521000045E000810B50446094B19600021FFF731
:1052200075FF20460749FEF7BDFF002800DB10BDD3
:105230000548FEF779FCBDE81040FEF7F5BB00BF5E
:10524000200A00200D510008CC5D000838B5054645
:105250000C464FF46770FBF745FA40F29B30FBF7C2
:1052600041FAFBF72FFA064A6B00A1B20133240C76
:1052700022F8351022F82340BDE83840FBF72ABA5F
:10528000046C0040044A4300013332F8231032F822
:10529000300040EA01407047046C004010B5174BE5
:1052A000174C1A682168174B1A604B1C0DD0164B0F
:1052B0001A780AB100221A704FF480621348FEF780
:1052C000B7FA18B94FF0FF33236010BD1048FEF74E
:1052D00025FC2068FEF768FC0E48FEF725FCFFF76A
:1052E0003FFB4FF4007209492068FFF73DFBFFF7D1
:1052F00039FB4FF0FF332360E7E700BF280A0020A7
:1053000038050020240A00203C050020004C002025
:10531000485D0008285400082DE9F0410E4E20F4A5
:105320007F74336824F00304A34205460F46904679
:1053300008D0FFF7B3FF21464FF48062074834607E
:10534000FEF756FA0548C5F3090542463946284492
:10535000BDE8F041FEF74CBA38050020004C0020B3
:105360002A2A2A2068616C206273732F6461746139
:10537000206661696C65642C206273735F74657369
:1053800074203D20000000002C20646174615F7473
:10539000657374203D200000757B20007D20000097
:1053A000613F20002D2D2D2D7461726765745F673C
:1053B00065745F73657269616C0000002A2A2A2A8D
:1053C0002A7461726765745F70616E6963200000A2
:1053D0002D2D2D2D7461726765745F726573657410
:1053E000000000002D2D2D2D7461726765745F73B0
:1053F0006565645F72616E646F6D00007774203C58
:10540000000000003E200000686561702073746138
:1054100072743A20000000002C20656E643A20006F
:105420002C2073697A653A2000000000204B422C42
:1054300020737461636B20757365643A200000000B
:10544000204B42003031323334353637383941421F
:105450004344454600000000210B00089515000854
:10546000E915000801170008491700084918000845
:10547000091800088D18000815190008C919000836
:105480000000000000000000000000002A2A2A207E
:10549000636F636F6F7320617373657274206661ED
:1054A000696C65642000002020202020202020201E
:1054B00028282828282020202020202020202020C4
:1054C00020202020202020881010101010101010F4
:1054D0001010101010101004040404040404040438
:1054E00004101010101010104141414141410101C0
:1054F000010101010101010101010101010101019C
:1055000001011010101010104242424242420202A9
:10551000020202020202020202020202020202026B
:105520000202101010102000000000000000000017
:10553000000000000000000000000000000000006B
:10554000000000000000000000000000000000005B
:10555000000000000000000000000000000000004B
:10556000000000000000000000000000000000003B
:10557000000000000000000000000000000000002B
:10558000000000000000000000000000000000001B
:10559000000000000000000000000000000000000B
:1055A0000000000000000000300000002D0000009E
:1055B000284F766572666C6F772900000D0A00002F
:1055C0002D2D2D2D706C6174666F726D5F73657417
:1055D00075700000616C6D3F20000000706C61749C
:1055E000666F726D5F73746172745F74696D6572FA
:1055F00000000000727463206177616B652E2E2EAF
:1056000000000000727463206177616B65206F6B2E
:10561000000000002D2D2D2D626F6F746C6F616482
:1056200065720000626F6F745F7461726765745FAA
:105630006765745F73657269616C5F6E756D6265D5
:10564000720000007573625F7365745F73657269E1
:10565000616C5F6E756D6265720000007573625FEC
:1056600073657475700000007573626420706F6CF0
:105670006C696E672E2E2E00726573746172746988
:105680006E672E2E2E000000646F6E650000000015
:10569000726573746172742063616C6C6261636BB8
:1056A000000000005345545F414452003E3E20003C
:1056B0002A2A2A204552524F523A20546F6F206DA9
:1056C000616E7920636F6E74726F6C2063616C6CB5
:1056D0006261636B730000002A2A2A204552524FF0
:1056E000523A20546F6F206D616E7920636F6E6641
:1056F00069672063616C6C6261636B73000000001A
:10570000050F00000230040020000000080B010219
:1057100002020106052400100105240100020424F0
:105720000200052406010200070584031000FF00A3
:105730000000000000000000090401000102020155
:105740000728570008145700081300000000000045
:105750000902000003010080FA78580008000000E8
:1057600007050302400001000000000000000007E0
:10577000058302400001000000000000000000005E
:1057800009040200020A0000086057000800000037
:10579000000000000000000012011002EF020140B2
:1057A000091242DB2102010203010000202F200028
:1057B00020747970200000002C2072657120000098
:1057C0002C2076616C2000002C2069647820000079
:1057D0002C206C656E2000002C204745545F44450A
:1057E000530000005F444556000000005F434647F9
:1057F000000000005F535452000000005F494E4615
:10580000000000005F454E50000000005F424F5313
:10581000000000002C205345545F414452202020BA
:10582000200000002C205345545F43464720202091
:10583000200000002C0000002074200020692000BF
:105840000705020240000000000000000000000701
:10585000058202400000000000000000000000007F
:105860000904000002FF2A01094058000800000056
:105870000000000000000000000000000100000027
:105880000000000060580008000000000100000057
:105890000C57000838570008000000000100000005
:1058A00000000000805700082A2A2A204552524F43
:1058B000523A207365745F616767726567617465EA
:1058C0005F63616C6C6261636B206661696C6564C7
:1058D00000000000446576616E61726368790000C3
:1058E000444150426F6F742044465520426F6F749C
:1058F0006C6F616465720000444150426F6F7420A8
:1059000044465500426C75652050696C6C204D53BF
:1059100043000000426C75652050696C6C20536533
:105920007269616C20506F7274000000426C756582
:105930002050696C6C20434F4D4D0000426C7565E2
:105940002050696C6C20444154410000426C7565E4
:105950002050696C6C2048463200000076697375EF
:10596000616C626C756570696C6C2E6769746875C2
:10597000622E696F000000002A2A2A207573625F78
:105980007365747570206661696C65640000000061
:105990002A2A2A20776562757362206E6F74737588
:1059A000707020696E64657820000000776562750C
:1059B000726C00002A2A2A20776562757362206E55
:1059C0006F74737570702077496E6465782000007D
:1059D0001810050038B60834A909A0478BFDA07639
:1059E0008815B665000122012A2A2A20776562758A
:1059F00073625F7365745F636F6E6669672066616B
:105A0000696C6564000000002A2A2A2077656275A7
:105A100073625F7365747570206661696C6564009C
:105A2000920000000001050001008800000007004E
:105A300000002A00440065007600690063006500EC
:105A400049006E007400650072006600610063002A
:105A500065004700550049004400730000005000F5
:105A600000007B0030003200360033006200350059
:105A7000310032002D0038003800630062002D0034
:105A800034003100330036002D003900360031007B
:105A900033002D0035006300380065003100300010
:105AA0003900640038006500660035007D000000A4
:105AB000000000001C100500DF60DDD88945C74CE0
:105AC0009CD2659D9E648A9F00000306B20021005F
:105AD00077696E646573000077696E696400000021
